{
	"contracts/ObzidianWhitelist.sol": {
		"ObzidianWhitelist": {
			"abi": [
				{
					"anonymous": false,
					"inputs": [
						{
							"indexed": false,
							"internalType": "address",
							"name": "member",
							"type": "address"
						}
					],
					"name": "MemberAdded",
					"type": "event"
				},
				{
					"anonymous": false,
					"inputs": [
						{
							"indexed": false,
							"internalType": "address",
							"name": "member",
							"type": "address"
						}
					],
					"name": "MemberRemoved",
					"type": "event"
				},
				{
					"anonymous": false,
					"inputs": [
						{
							"indexed": true,
							"internalType": "address",
							"name": "previousOwner",
							"type": "address"
						},
						{
							"indexed": true,
							"internalType": "address",
							"name": "newOwner",
							"type": "address"
						}
					],
					"name": "OwnershipTransferred",
					"type": "event"
				},
				{
					"inputs": [
						{
							"internalType": "address",
							"name": "wallet",
							"type": "address"
						}
					],
					"name": "addWallet",
					"outputs": [],
					"stateMutability": "nonpayable",
					"type": "function"
				},
				{
					"inputs": [
						{
							"internalType": "address",
							"name": "wallet",
							"type": "address"
						}
					],
					"name": "disableMember",
					"outputs": [],
					"stateMutability": "nonpayable",
					"type": "function"
				},
				{
					"inputs": [
						{
							"internalType": "address",
							"name": "wallet",
							"type": "address"
						}
					],
					"name": "enableMember",
					"outputs": [],
					"stateMutability": "nonpayable",
					"type": "function"
				},
				{
					"inputs": [
						{
							"internalType": "address",
							"name": "wallet",
							"type": "address"
						}
					],
					"name": "getMember",
					"outputs": [
						{
							"components": [
								{
									"internalType": "bool",
									"name": "active",
									"type": "bool"
								},
								{
									"internalType": "address",
									"name": "wallet",
									"type": "address"
								},
								{
									"internalType": "uint256",
									"name": "mintCount",
									"type": "uint256"
								}
							],
							"internalType": "struct ObzidianWhitelist.Member",
							"name": "member",
							"type": "tuple"
						}
					],
					"stateMutability": "view",
					"type": "function"
				},
				{
					"inputs": [],
					"name": "getTotalMembers",
					"outputs": [
						{
							"internalType": "uint256",
							"name": "",
							"type": "uint256"
						}
					],
					"stateMutability": "view",
					"type": "function"
				},
				{
					"inputs": [],
					"name": "owner",
					"outputs": [
						{
							"internalType": "address",
							"name": "",
							"type": "address"
						}
					],
					"stateMutability": "view",
					"type": "function"
				},
				{
					"inputs": [],
					"name": "renounceOwnership",
					"outputs": [],
					"stateMutability": "nonpayable",
					"type": "function"
				},
				{
					"inputs": [
						{
							"internalType": "address",
							"name": "newOwner",
							"type": "address"
						}
					],
					"name": "transferOwnership",
					"outputs": [],
					"stateMutability": "nonpayable",
					"type": "function"
				},
				{
					"inputs": [
						{
							"internalType": "address",
							"name": "wallet",
							"type": "address"
						},
						{
							"internalType": "uint256",
							"name": "size",
							"type": "uint256"
						}
					],
					"name": "updateMemberMint",
					"outputs": [],
					"stateMutability": "nonpayable",
					"type": "function"
				},
				{
					"inputs": [
						{
							"internalType": "address",
							"name": "wallet",
							"type": "address"
						}
					],
					"name": "validateMember",
					"outputs": [
						{
							"internalType": "bool",
							"name": "",
							"type": "bool"
						}
					],
					"stateMutability": "view",
					"type": "function"
				}
			],
			"devdoc": {
				"kind": "dev",
				"methods": {
					"owner()": {
						"details": "Returns the address of the current owner."
					},
					"renounceOwnership()": {
						"details": "Leaves the contract without owner. It will not be possible to call `onlyOwner` functions anymore. Can only be called by the current owner. NOTE: Renouncing ownership will leave the contract without an owner, thereby removing any functionality that is only available to the owner."
					},
					"transferOwnership(address)": {
						"details": "Transfers ownership of the contract to a new account (`newOwner`). Can only be called by the current owner."
					}
				},
				"version": 1
			},
			"evm": {
				"assembly": "    /* \"contracts/ObzidianWhitelist.sol\":123:1900  contract ObzidianWhitelist is Ownable {... */\n  mstore(0x40, 0x80)\n  callvalue\n  dup1\n  iszero\n  tag_1\n  jumpi\n  0x00\n  dup1\n  revert\ntag_1:\n  pop\n    /* \"@openzeppelin/contracts/access/Ownable.sol\":936:968  _transferOwnership(_msgSender()) */\n  tag_4\n    /* \"@openzeppelin/contracts/access/Ownable.sol\":955:967  _msgSender() */\n  tag_5\n    /* \"@openzeppelin/contracts/access/Ownable.sol\":955:965  _msgSender */\n  shl(0x20, tag_6)\n    /* \"@openzeppelin/contracts/access/Ownable.sol\":955:967  _msgSender() */\n  0x20\n  shr\n  jump\t// in\ntag_5:\n    /* \"@openzeppelin/contracts/access/Ownable.sol\":936:954  _transferOwnership */\n  shl(0x20, tag_7)\n    /* \"@openzeppelin/contracts/access/Ownable.sol\":936:968  _transferOwnership(_msgSender()) */\n  0x20\n  shr\n  jump\t// in\ntag_4:\n    /* \"contracts/ObzidianWhitelist.sol\":123:1900  contract ObzidianWhitelist is Ownable {... */\n  jump(tag_8)\n    /* \"@openzeppelin/contracts/utils/Context.sol\":640:736  function _msgSender() internal view virtual returns (address) {... */\ntag_6:\n    /* \"@openzeppelin/contracts/utils/Context.sol\":693:700  address */\n  0x00\n    /* \"@openzeppelin/contracts/utils/Context.sol\":719:729  msg.sender */\n  caller\n    /* \"@openzeppelin/contracts/utils/Context.sol\":712:729  return msg.sender */\n  swap1\n  pop\n    /* \"@openzeppelin/contracts/utils/Context.sol\":640:736  function _msgSender() internal view virtual returns (address) {... */\n  swap1\n  jump\t// out\n    /* \"@openzeppelin/contracts/access/Ownable.sol\":2433:2620  function _transferOwnership(address newOwner) internal virtual {... */\ntag_7:\n    /* \"@openzeppelin/contracts/access/Ownable.sol\":2506:2522  address oldOwner */\n  0x00\n    /* \"@openzeppelin/contracts/access/Ownable.sol\":2525:2531  _owner */\n  dup1\n  0x00\n  swap1\n  sload\n  swap1\n  0x0100\n  exp\n  swap1\n  div\n  0xffffffffffffffffffffffffffffffffffffffff\n  and\n    /* \"@openzeppelin/contracts/access/Ownable.sol\":2506:2531  address oldOwner = _owner */\n  swap1\n  pop\n    /* \"@openzeppelin/contracts/access/Ownable.sol\":2550:2558  newOwner */\n  dup2\n    /* \"@openzeppelin/contracts/access/Ownable.sol\":2541:2547  _owner */\n  0x00\n  dup1\n    /* \"@openzeppelin/contracts/access/Ownable.sol\":2541:2558  _owner = newOwner */\n  0x0100\n  exp\n  dup2\n  sload\n  dup2\n  0xffffffffffffffffffffffffffffffffffffffff\n  mul\n  not\n  and\n  swap1\n  dup4\n  0xffffffffffffffffffffffffffffffffffffffff\n  and\n  mul\n  or\n  swap1\n  sstore\n  pop\n    /* \"@openzeppelin/contracts/access/Ownable.sol\":2604:2612  newOwner */\n  dup2\n    /* \"@openzeppelin/contracts/access/Ownable.sol\":2573:2613  OwnershipTransferred(oldOwner, newOwner) */\n  0xffffffffffffffffffffffffffffffffffffffff\n  and\n    /* \"@openzeppelin/contracts/access/Ownable.sol\":2594:2602  oldOwner */\n  dup2\n    /* \"@openzeppelin/contracts/access/Ownable.sol\":2573:2613  OwnershipTransferred(oldOwner, newOwner) */\n  0xffffffffffffffffffffffffffffffffffffffff\n  and\n  0x8be0079c531659141344cd1fd0a4f28419497f9722a3daafe3b4186f6b6457e0\n  mload(0x40)\n  mload(0x40)\n  dup1\n  swap2\n  sub\n  swap1\n  log3\n    /* \"@openzeppelin/contracts/access/Ownable.sol\":2496:2620  {... */\n  pop\n    /* \"@openzeppelin/contracts/access/Ownable.sol\":2433:2620  function _transferOwnership(address newOwner) internal virtual {... */\n  pop\n  jump\t// out\n    /* \"contracts/ObzidianWhitelist.sol\":123:1900  contract ObzidianWhitelist is Ownable {... */\ntag_8:\n  dataSize(sub_0)\n  dup1\n  dataOffset(sub_0)\n  0x00\n  codecopy\n  0x00\n  return\nstop\n\nsub_0: assembly {\n        /* \"contracts/ObzidianWhitelist.sol\":123:1900  contract ObzidianWhitelist is Ownable {... */\n      mstore(0x40, 0x80)\n      callvalue\n      dup1\n      iszero\n      tag_1\n      jumpi\n      0x00\n      dup1\n      revert\n    tag_1:\n      pop\n      jumpi(tag_2, lt(calldatasize, 0x04))\n      shr(0xe0, calldataload(0x00))\n      dup1\n      0x8f180305\n      gt\n      tag_13\n      jumpi\n      dup1\n      0x8f180305\n      eq\n      tag_8\n      jumpi\n      dup1\n      0xe10eff9b\n      eq\n      tag_9\n      jumpi\n      dup1\n      0xefeb5f1f\n      eq\n      tag_10\n      jumpi\n      dup1\n      0xf2fde38b\n      eq\n      tag_11\n      jumpi\n      dup1\n      0xf47d2a30\n      eq\n      tag_12\n      jumpi\n      jump(tag_2)\n    tag_13:\n      dup1\n      0x065c24dc\n      eq\n      tag_3\n      jumpi\n      dup1\n      0x2ada2596\n      eq\n      tag_4\n      jumpi\n      dup1\n      0x5918ba79\n      eq\n      tag_5\n      jumpi\n      dup1\n      0x715018a6\n      eq\n      tag_6\n      jumpi\n      dup1\n      0x8da5cb5b\n      eq\n      tag_7\n      jumpi\n    tag_2:\n      0x00\n      dup1\n      revert\n        /* \"contracts/ObzidianWhitelist.sol\":764:876  function validateMember(address wallet) public view returns(bool) {... */\n    tag_3:\n      tag_14\n      0x04\n      dup1\n      calldatasize\n      sub\n      dup2\n      add\n      swap1\n      tag_15\n      swap2\n      swap1\n      tag_16\n      jump\t// in\n    tag_15:\n      tag_17\n      jump\t// in\n    tag_14:\n      mload(0x40)\n      tag_18\n      swap2\n      swap1\n      tag_19\n      jump\t// in\n    tag_18:\n      mload(0x40)\n      dup1\n      swap2\n      sub\n      swap1\n      return\n        /* \"contracts/ObzidianWhitelist.sol\":618:735  function getMember(address wallet) public  view returns(Member memory member) {... */\n    tag_4:\n      tag_20\n      0x04\n      dup1\n      calldatasize\n      sub\n      dup2\n      add\n      swap1\n      tag_21\n      swap2\n      swap1\n      tag_16\n      jump\t// in\n    tag_21:\n      tag_22\n      jump\t// in\n    tag_20:\n      mload(0x40)\n      tag_23\n      swap2\n      swap1\n      tag_24\n      jump\t// in\n    tag_23:\n      mload(0x40)\n      dup1\n      swap2\n      sub\n      swap1\n      return\n        /* \"contracts/ObzidianWhitelist.sol\":1421:1647  function disableMember(address wallet) public onlyOwner {... */\n    tag_5:\n      tag_25\n      0x04\n      dup1\n      calldatasize\n      sub\n      dup2\n      add\n      swap1\n      tag_26\n      swap2\n      swap1\n      tag_16\n      jump\t// in\n    tag_26:\n      tag_27\n      jump\t// in\n    tag_25:\n      stop\n        /* \"@openzeppelin/contracts/access/Ownable.sol\":1831:1932  function renounceOwnership() public virtual onlyOwner {... */\n    tag_6:\n      tag_28\n      tag_29\n      jump\t// in\n    tag_28:\n      stop\n        /* \"@openzeppelin/contracts/access/Ownable.sol\":1201:1286  function owner() public view virtual returns (address) {... */\n    tag_7:\n      tag_30\n      tag_31\n      jump\t// in\n    tag_30:\n      mload(0x40)\n      tag_32\n      swap2\n      swap1\n      tag_33\n      jump\t// in\n    tag_32:\n      mload(0x40)\n      dup1\n      swap2\n      sub\n      swap1\n      return\n        /* \"contracts/ObzidianWhitelist.sol\":502:594  function getTotalMembers() public view returns(uint256) {... */\n    tag_8:\n      tag_34\n      tag_35\n      jump\t// in\n    tag_34:\n      mload(0x40)\n      tag_36\n      swap2\n      swap1\n      tag_37\n      jump\t// in\n    tag_36:\n      mload(0x40)\n      dup1\n      swap2\n      sub\n      swap1\n      return\n        /* \"contracts/ObzidianWhitelist.sol\":1184:1393  function updateMemberMint(address wallet, uint256 size) public onlyOwner {... */\n    tag_9:\n      tag_38\n      0x04\n      dup1\n      calldatasize\n      sub\n      dup2\n      add\n      swap1\n      tag_39\n      swap2\n      swap1\n      tag_40\n      jump\t// in\n    tag_39:\n      tag_41\n      jump\t// in\n    tag_38:\n      stop\n        /* \"contracts/ObzidianWhitelist.sol\":900:1157  function addWallet(address wallet) public onlyOwner {... */\n    tag_10:\n      tag_42\n      0x04\n      dup1\n      calldatasize\n      sub\n      dup2\n      add\n      swap1\n      tag_43\n      swap2\n      swap1\n      tag_16\n      jump\t// in\n    tag_43:\n      tag_44\n      jump\t// in\n    tag_42:\n      stop\n        /* \"@openzeppelin/contracts/access/Ownable.sol\":2081:2279  function transferOwnership(address newOwner) public virtual onlyOwner {... */\n    tag_11:\n      tag_45\n      0x04\n      dup1\n      calldatasize\n      sub\n      dup2\n      add\n      swap1\n      tag_46\n      swap2\n      swap1\n      tag_16\n      jump\t// in\n    tag_46:\n      tag_47\n      jump\t// in\n    tag_45:\n      stop\n        /* \"contracts/ObzidianWhitelist.sol\":1675:1897  function enableMember(address wallet) public onlyOwner {... */\n    tag_12:\n      tag_48\n      0x04\n      dup1\n      calldatasize\n      sub\n      dup2\n      add\n      swap1\n      tag_49\n      swap2\n      swap1\n      tag_16\n      jump\t// in\n    tag_49:\n      tag_50\n      jump\t// in\n    tag_48:\n      stop\n        /* \"contracts/ObzidianWhitelist.sol\":764:876  function validateMember(address wallet) public view returns(bool) {... */\n    tag_17:\n        /* \"contracts/ObzidianWhitelist.sol\":824:828  bool */\n      0x00\n        /* \"contracts/ObzidianWhitelist.sol\":847:854  members */\n      0x02\n        /* \"contracts/ObzidianWhitelist.sol\":847:862  members[wallet] */\n      0x00\n        /* \"contracts/ObzidianWhitelist.sol\":855:861  wallet */\n      dup4\n        /* \"contracts/ObzidianWhitelist.sol\":847:862  members[wallet] */\n      0xffffffffffffffffffffffffffffffffffffffff\n      and\n      0xffffffffffffffffffffffffffffffffffffffff\n      and\n      dup2\n      mstore\n      0x20\n      add\n      swap1\n      dup2\n      mstore\n      0x20\n      add\n      0x00\n      keccak256\n        /* \"contracts/ObzidianWhitelist.sol\":847:869  members[wallet].active */\n      0x00\n      add\n      0x00\n      swap1\n      sload\n      swap1\n      0x0100\n      exp\n      swap1\n      div\n      0xff\n      and\n        /* \"contracts/ObzidianWhitelist.sol\":840:869  return members[wallet].active */\n      swap1\n      pop\n        /* \"contracts/ObzidianWhitelist.sol\":764:876  function validateMember(address wallet) public view returns(bool) {... */\n      swap2\n      swap1\n      pop\n      jump\t// out\n        /* \"contracts/ObzidianWhitelist.sol\":618:735  function getMember(address wallet) public  view returns(Member memory member) {... */\n    tag_22:\n        /* \"contracts/ObzidianWhitelist.sol\":674:694  Member memory member */\n      tag_52\n      tag_53\n      jump\t// in\n    tag_52:\n        /* \"contracts/ObzidianWhitelist.sol\":713:720  members */\n      0x02\n        /* \"contracts/ObzidianWhitelist.sol\":713:728  members[wallet] */\n      0x00\n        /* \"contracts/ObzidianWhitelist.sol\":721:727  wallet */\n      dup4\n        /* \"contracts/ObzidianWhitelist.sol\":713:728  members[wallet] */\n      0xffffffffffffffffffffffffffffffffffffffff\n      and\n      0xffffffffffffffffffffffffffffffffffffffff\n      and\n      dup2\n      mstore\n      0x20\n      add\n      swap1\n      dup2\n      mstore\n      0x20\n      add\n      0x00\n      keccak256\n        /* \"contracts/ObzidianWhitelist.sol\":706:728  return members[wallet] */\n      mload(0x40)\n      dup1\n      0x60\n      add\n      0x40\n      mstore\n      swap1\n      dup2\n      0x00\n      dup3\n      add\n      0x00\n      swap1\n      sload\n      swap1\n      0x0100\n      exp\n      swap1\n      div\n      0xff\n      and\n      iszero\n      iszero\n      iszero\n      iszero\n      dup2\n      mstore\n      0x20\n      add\n      0x00\n      dup3\n      add\n      0x01\n      swap1\n      sload\n      swap1\n      0x0100\n      exp\n      swap1\n      div\n      0xffffffffffffffffffffffffffffffffffffffff\n      and\n      0xffffffffffffffffffffffffffffffffffffffff\n      and\n      0xffffffffffffffffffffffffffffffffffffffff\n      and\n      dup2\n      mstore\n      0x20\n      add\n      0x01\n      dup3\n      add\n      sload\n      dup2\n      mstore\n      pop\n      pop\n      swap1\n      pop\n        /* \"contracts/ObzidianWhitelist.sol\":618:735  function getMember(address wallet) public  view returns(Member memory member) {... */\n      swap2\n      swap1\n      pop\n      jump\t// out\n        /* \"contracts/ObzidianWhitelist.sol\":1421:1647  function disableMember(address wallet) public onlyOwner {... */\n    tag_27:\n        /* \"@openzeppelin/contracts/access/Ownable.sol\":1094:1107  _checkOwner() */\n      tag_56\n        /* \"@openzeppelin/contracts/access/Ownable.sol\":1094:1105  _checkOwner */\n      tag_57\n        /* \"@openzeppelin/contracts/access/Ownable.sol\":1094:1107  _checkOwner() */\n      jump\t// in\n    tag_56:\n        /* \"contracts/ObzidianWhitelist.sol\":1495:1502  members */\n      0x02\n        /* \"contracts/ObzidianWhitelist.sol\":1495:1510  members[wallet] */\n      0x00\n        /* \"contracts/ObzidianWhitelist.sol\":1503:1509  wallet */\n      dup3\n        /* \"contracts/ObzidianWhitelist.sol\":1495:1510  members[wallet] */\n      0xffffffffffffffffffffffffffffffffffffffff\n      and\n      0xffffffffffffffffffffffffffffffffffffffff\n      and\n      dup2\n      mstore\n      0x20\n      add\n      swap1\n      dup2\n      mstore\n      0x20\n      add\n      0x00\n      keccak256\n        /* \"contracts/ObzidianWhitelist.sol\":1495:1517  members[wallet].active */\n      0x00\n      add\n      0x00\n      swap1\n      sload\n      swap1\n      0x0100\n      exp\n      swap1\n      div\n      0xff\n      and\n        /* \"contracts/ObzidianWhitelist.sol\":1487:1564  require(members[wallet].active, \"This wallet is not stored in the whitelist\") */\n      tag_59\n      jumpi\n      mload(0x40)\n      0x08c379a000000000000000000000000000000000000000000000000000000000\n      dup2\n      mstore\n      0x04\n      add\n      tag_60\n      swap1\n      tag_61\n      jump\t// in\n    tag_60:\n      mload(0x40)\n      dup1\n      swap2\n      sub\n      swap1\n      revert\n    tag_59:\n        /* \"contracts/ObzidianWhitelist.sol\":1599:1604  false */\n      0x00\n        /* \"contracts/ObzidianWhitelist.sol\":1574:1581  members */\n      0x02\n        /* \"contracts/ObzidianWhitelist.sol\":1574:1589  members[wallet] */\n      0x00\n        /* \"contracts/ObzidianWhitelist.sol\":1582:1588  wallet */\n      dup4\n        /* \"contracts/ObzidianWhitelist.sol\":1574:1589  members[wallet] */\n      0xffffffffffffffffffffffffffffffffffffffff\n      and\n      0xffffffffffffffffffffffffffffffffffffffff\n      and\n      dup2\n      mstore\n      0x20\n      add\n      swap1\n      dup2\n      mstore\n      0x20\n      add\n      0x00\n      keccak256\n        /* \"contracts/ObzidianWhitelist.sol\":1574:1596  members[wallet].active */\n      0x00\n      add\n      0x00\n        /* \"contracts/ObzidianWhitelist.sol\":1574:1604  members[wallet].active = false */\n      0x0100\n      exp\n      dup2\n      sload\n      dup2\n      0xff\n      mul\n      not\n      and\n      swap1\n      dup4\n      iszero\n      iszero\n      mul\n      or\n      swap1\n      sstore\n      pop\n        /* \"contracts/ObzidianWhitelist.sol\":1619:1640  MemberRemoved(wallet) */\n      0x6e76fb4c77256006d9c38ec7d82b45a8c8f3c27b1d6766fffc42dfb8de684492\n        /* \"contracts/ObzidianWhitelist.sol\":1633:1639  wallet */\n      dup2\n        /* \"contracts/ObzidianWhitelist.sol\":1619:1640  MemberRemoved(wallet) */\n      mload(0x40)\n      tag_62\n      swap2\n      swap1\n      tag_33\n      jump\t// in\n    tag_62:\n      mload(0x40)\n      dup1\n      swap2\n      sub\n      swap1\n      log1\n        /* \"contracts/ObzidianWhitelist.sol\":1421:1647  function disableMember(address wallet) public onlyOwner {... */\n      pop\n      jump\t// out\n        /* \"@openzeppelin/contracts/access/Ownable.sol\":1831:1932  function renounceOwnership() public virtual onlyOwner {... */\n    tag_29:\n        /* \"@openzeppelin/contracts/access/Ownable.sol\":1094:1107  _checkOwner() */\n      tag_64\n        /* \"@openzeppelin/contracts/access/Ownable.sol\":1094:1105  _checkOwner */\n      tag_57\n        /* \"@openzeppelin/contracts/access/Ownable.sol\":1094:1107  _checkOwner() */\n      jump\t// in\n    tag_64:\n        /* \"@openzeppelin/contracts/access/Ownable.sol\":1895:1925  _transferOwnership(address(0)) */\n      tag_66\n        /* \"@openzeppelin/contracts/access/Ownable.sol\":1922:1923  0 */\n      0x00\n        /* \"@openzeppelin/contracts/access/Ownable.sol\":1895:1913  _transferOwnership */\n      tag_67\n        /* \"@openzeppelin/contracts/access/Ownable.sol\":1895:1925  _transferOwnership(address(0)) */\n      jump\t// in\n    tag_66:\n        /* \"@openzeppelin/contracts/access/Ownable.sol\":1831:1932  function renounceOwnership() public virtual onlyOwner {... */\n      jump\t// out\n        /* \"@openzeppelin/contracts/access/Ownable.sol\":1201:1286  function owner() public view virtual returns (address) {... */\n    tag_31:\n        /* \"@openzeppelin/contracts/access/Ownable.sol\":1247:1254  address */\n      0x00\n        /* \"@openzeppelin/contracts/access/Ownable.sol\":1273:1279  _owner */\n      dup1\n      0x00\n      swap1\n      sload\n      swap1\n      0x0100\n      exp\n      swap1\n      div\n      0xffffffffffffffffffffffffffffffffffffffff\n      and\n        /* \"@openzeppelin/contracts/access/Ownable.sol\":1266:1279  return _owner */\n      swap1\n      pop\n        /* \"@openzeppelin/contracts/access/Ownable.sol\":1201:1286  function owner() public view virtual returns (address) {... */\n      swap1\n      jump\t// out\n        /* \"contracts/ObzidianWhitelist.sol\":502:594  function getTotalMembers() public view returns(uint256) {... */\n    tag_35:\n        /* \"contracts/ObzidianWhitelist.sol\":549:556  uint256 */\n      0x00\n        /* \"contracts/ObzidianWhitelist.sol\":575:587  membersCount */\n      sload(0x01)\n        /* \"contracts/ObzidianWhitelist.sol\":568:587  return membersCount */\n      swap1\n      pop\n        /* \"contracts/ObzidianWhitelist.sol\":502:594  function getTotalMembers() public view returns(uint256) {... */\n      swap1\n      jump\t// out\n        /* \"contracts/ObzidianWhitelist.sol\":1184:1393  function updateMemberMint(address wallet, uint256 size) public onlyOwner {... */\n    tag_41:\n        /* \"@openzeppelin/contracts/access/Ownable.sol\":1094:1107  _checkOwner() */\n      tag_71\n        /* \"@openzeppelin/contracts/access/Ownable.sol\":1094:1105  _checkOwner */\n      tag_57\n        /* \"@openzeppelin/contracts/access/Ownable.sol\":1094:1107  _checkOwner() */\n      jump\t// in\n    tag_71:\n        /* \"contracts/ObzidianWhitelist.sol\":1275:1282  members */\n      0x02\n        /* \"contracts/ObzidianWhitelist.sol\":1275:1290  members[wallet] */\n      0x00\n        /* \"contracts/ObzidianWhitelist.sol\":1283:1289  wallet */\n      dup4\n        /* \"contracts/ObzidianWhitelist.sol\":1275:1290  members[wallet] */\n      0xffffffffffffffffffffffffffffffffffffffff\n      and\n      0xffffffffffffffffffffffffffffffffffffffff\n      and\n      dup2\n      mstore\n      0x20\n      add\n      swap1\n      dup2\n      mstore\n      0x20\n      add\n      0x00\n      keccak256\n        /* \"contracts/ObzidianWhitelist.sol\":1275:1297  members[wallet].active */\n      0x00\n      add\n      0x00\n      swap1\n      sload\n      swap1\n      0x0100\n      exp\n      swap1\n      div\n      0xff\n      and\n        /* \"contracts/ObzidianWhitelist.sol\":1267:1344  require(members[wallet].active, \"This wallet is not stored in the whitelist\") */\n      tag_73\n      jumpi\n      mload(0x40)\n      0x08c379a000000000000000000000000000000000000000000000000000000000\n      dup2\n      mstore\n      0x04\n      add\n      tag_74\n      swap1\n      tag_61\n      jump\t// in\n    tag_74:\n      mload(0x40)\n      dup1\n      swap2\n      sub\n      swap1\n      revert\n    tag_73:\n        /* \"contracts/ObzidianWhitelist.sol\":1382:1386  size */\n      dup1\n        /* \"contracts/ObzidianWhitelist.sol\":1354:1361  members */\n      0x02\n        /* \"contracts/ObzidianWhitelist.sol\":1354:1369  members[wallet] */\n      0x00\n        /* \"contracts/ObzidianWhitelist.sol\":1362:1368  wallet */\n      dup5\n        /* \"contracts/ObzidianWhitelist.sol\":1354:1369  members[wallet] */\n      0xffffffffffffffffffffffffffffffffffffffff\n      and\n      0xffffffffffffffffffffffffffffffffffffffff\n      and\n      dup2\n      mstore\n      0x20\n      add\n      swap1\n      dup2\n      mstore\n      0x20\n      add\n      0x00\n      keccak256\n        /* \"contracts/ObzidianWhitelist.sol\":1354:1379  members[wallet].mintCount */\n      0x01\n      add\n        /* \"contracts/ObzidianWhitelist.sol\":1354:1386  members[wallet].mintCount = size */\n      dup2\n      swap1\n      sstore\n      pop\n        /* \"contracts/ObzidianWhitelist.sol\":1184:1393  function updateMemberMint(address wallet, uint256 size) public onlyOwner {... */\n      pop\n      pop\n      jump\t// out\n        /* \"contracts/ObzidianWhitelist.sol\":900:1157  function addWallet(address wallet) public onlyOwner {... */\n    tag_44:\n        /* \"@openzeppelin/contracts/access/Ownable.sol\":1094:1107  _checkOwner() */\n      tag_76\n        /* \"@openzeppelin/contracts/access/Ownable.sol\":1094:1105  _checkOwner */\n      tag_57\n        /* \"@openzeppelin/contracts/access/Ownable.sol\":1094:1107  _checkOwner() */\n      jump\t// in\n    tag_76:\n        /* \"contracts/ObzidianWhitelist.sol\":971:978  members */\n      0x02\n        /* \"contracts/ObzidianWhitelist.sol\":971:986  members[wallet] */\n      0x00\n        /* \"contracts/ObzidianWhitelist.sol\":979:985  wallet */\n      dup3\n        /* \"contracts/ObzidianWhitelist.sol\":971:986  members[wallet] */\n      0xffffffffffffffffffffffffffffffffffffffff\n      and\n      0xffffffffffffffffffffffffffffffffffffffff\n      and\n      dup2\n      mstore\n      0x20\n      add\n      swap1\n      dup2\n      mstore\n      0x20\n      add\n      0x00\n      keccak256\n        /* \"contracts/ObzidianWhitelist.sol\":971:993  members[wallet].active */\n      0x00\n      add\n      0x00\n      swap1\n      sload\n      swap1\n      0x0100\n      exp\n      swap1\n      div\n      0xff\n      and\n        /* \"contracts/ObzidianWhitelist.sol\":970:993  !members[wallet].active */\n      iszero\n        /* \"contracts/ObzidianWhitelist.sol\":962:1041  require(!members[wallet].active, \"This wallet already stored in the whitelist\") */\n      tag_78\n      jumpi\n      mload(0x40)\n      0x08c379a000000000000000000000000000000000000000000000000000000000\n      dup2\n      mstore\n      0x04\n      add\n      tag_79\n      swap1\n      tag_80\n      jump\t// in\n    tag_79:\n      mload(0x40)\n      dup1\n      swap2\n      sub\n      swap1\n      revert\n    tag_78:\n        /* \"contracts/ObzidianWhitelist.sol\":1051:1063  membersCount */\n      0x01\n      0x00\n        /* \"contracts/ObzidianWhitelist.sol\":1051:1065  membersCount++ */\n      dup2\n      sload\n      dup1\n      swap3\n      swap2\n      swap1\n      tag_81\n      swap1\n      tag_82\n      jump\t// in\n    tag_81:\n      swap2\n      swap1\n      pop\n      sstore\n      pop\n        /* \"contracts/ObzidianWhitelist.sol\":1093:1116  Member(true, wallet, 0) */\n      mload(0x40)\n      dup1\n      0x60\n      add\n      0x40\n      mstore\n      dup1\n        /* \"contracts/ObzidianWhitelist.sol\":1100:1104  true */\n      0x01\n        /* \"contracts/ObzidianWhitelist.sol\":1093:1116  Member(true, wallet, 0) */\n      iszero\n      iszero\n      dup2\n      mstore\n      0x20\n      add\n        /* \"contracts/ObzidianWhitelist.sol\":1106:1112  wallet */\n      dup3\n        /* \"contracts/ObzidianWhitelist.sol\":1093:1116  Member(true, wallet, 0) */\n      0xffffffffffffffffffffffffffffffffffffffff\n      and\n      dup2\n      mstore\n      0x20\n      add\n        /* \"contracts/ObzidianWhitelist.sol\":1114:1115  0 */\n      0x00\n        /* \"contracts/ObzidianWhitelist.sol\":1093:1116  Member(true, wallet, 0) */\n      dup2\n      mstore\n      pop\n        /* \"contracts/ObzidianWhitelist.sol\":1075:1082  members */\n      0x02\n        /* \"contracts/ObzidianWhitelist.sol\":1075:1090  members[wallet] */\n      0x00\n        /* \"contracts/ObzidianWhitelist.sol\":1083:1089  wallet */\n      dup4\n        /* \"contracts/ObzidianWhitelist.sol\":1075:1090  members[wallet] */\n      0xffffffffffffffffffffffffffffffffffffffff\n      and\n      0xffffffffffffffffffffffffffffffffffffffff\n      and\n      dup2\n      mstore\n      0x20\n      add\n      swap1\n      dup2\n      mstore\n      0x20\n      add\n      0x00\n      keccak256\n        /* \"contracts/ObzidianWhitelist.sol\":1075:1116  members[wallet] = Member(true, wallet, 0) */\n      0x00\n      dup3\n      add\n      mload\n      dup2\n      0x00\n      add\n      exp(0x0100, 0x00)\n      dup2\n      sload\n      dup2\n      0xff\n      mul\n      not\n      and\n      swap1\n      dup4\n      iszero\n      iszero\n      mul\n      or\n      swap1\n      sstore\n      pop\n      0x20\n      dup3\n      add\n      mload\n      dup2\n      0x00\n      add\n      exp(0x0100, 0x01)\n      dup2\n      sload\n      dup2\n      0xffffffffffffffffffffffffffffffffffffffff\n      mul\n      not\n      and\n      swap1\n      dup4\n      0xffffffffffffffffffffffffffffffffffffffff\n      and\n      mul\n      or\n      swap1\n      sstore\n      pop\n      0x40\n      dup3\n      add\n      mload\n      dup2\n      0x01\n      add\n      sstore\n      swap1\n      pop\n      pop\n        /* \"contracts/ObzidianWhitelist.sol\":1131:1150  MemberAdded(wallet) */\n      0xb251eb052afc73ffd02ffe85ad79990a8b3fed60d76dbc2fa2fdd7123dffd914\n        /* \"contracts/ObzidianWhitelist.sol\":1143:1149  wallet */\n      dup2\n        /* \"contracts/ObzidianWhitelist.sol\":1131:1150  MemberAdded(wallet) */\n      mload(0x40)\n      tag_83\n      swap2\n      swap1\n      tag_33\n      jump\t// in\n    tag_83:\n      mload(0x40)\n      dup1\n      swap2\n      sub\n      swap1\n      log1\n        /* \"contracts/ObzidianWhitelist.sol\":900:1157  function addWallet(address wallet) public onlyOwner {... */\n      pop\n      jump\t// out\n        /* \"@openzeppelin/contracts/access/Ownable.sol\":2081:2279  function transferOwnership(address newOwner) public virtual onlyOwner {... */\n    tag_47:\n        /* \"@openzeppelin/contracts/access/Ownable.sol\":1094:1107  _checkOwner() */\n      tag_85\n        /* \"@openzeppelin/contracts/access/Ownable.sol\":1094:1105  _checkOwner */\n      tag_57\n        /* \"@openzeppelin/contracts/access/Ownable.sol\":1094:1107  _checkOwner() */\n      jump\t// in\n    tag_85:\n        /* \"@openzeppelin/contracts/access/Ownable.sol\":2189:2190  0 */\n      0x00\n        /* \"@openzeppelin/contracts/access/Ownable.sol\":2169:2191  newOwner != address(0) */\n      0xffffffffffffffffffffffffffffffffffffffff\n      and\n        /* \"@openzeppelin/contracts/access/Ownable.sol\":2169:2177  newOwner */\n      dup2\n        /* \"@openzeppelin/contracts/access/Ownable.sol\":2169:2191  newOwner != address(0) */\n      0xffffffffffffffffffffffffffffffffffffffff\n      and\n      eq\n      iszero\n        /* \"@openzeppelin/contracts/access/Ownable.sol\":2161:2234  require(newOwner != address(0), \"Ownable: new owner is the zero address\") */\n      tag_87\n      jumpi\n      mload(0x40)\n      0x08c379a000000000000000000000000000000000000000000000000000000000\n      dup2\n      mstore\n      0x04\n      add\n      tag_88\n      swap1\n      tag_89\n      jump\t// in\n    tag_88:\n      mload(0x40)\n      dup1\n      swap2\n      sub\n      swap1\n      revert\n    tag_87:\n        /* \"@openzeppelin/contracts/access/Ownable.sol\":2244:2272  _transferOwnership(newOwner) */\n      tag_90\n        /* \"@openzeppelin/contracts/access/Ownable.sol\":2263:2271  newOwner */\n      dup2\n        /* \"@openzeppelin/contracts/access/Ownable.sol\":2244:2262  _transferOwnership */\n      tag_67\n        /* \"@openzeppelin/contracts/access/Ownable.sol\":2244:2272  _transferOwnership(newOwner) */\n      jump\t// in\n    tag_90:\n        /* \"@openzeppelin/contracts/access/Ownable.sol\":2081:2279  function transferOwnership(address newOwner) public virtual onlyOwner {... */\n      pop\n      jump\t// out\n        /* \"contracts/ObzidianWhitelist.sol\":1675:1897  function enableMember(address wallet) public onlyOwner {... */\n    tag_50:\n        /* \"@openzeppelin/contracts/access/Ownable.sol\":1094:1107  _checkOwner() */\n      tag_92\n        /* \"@openzeppelin/contracts/access/Ownable.sol\":1094:1105  _checkOwner */\n      tag_57\n        /* \"@openzeppelin/contracts/access/Ownable.sol\":1094:1107  _checkOwner() */\n      jump\t// in\n    tag_92:\n        /* \"contracts/ObzidianWhitelist.sol\":1748:1755  members */\n      0x02\n        /* \"contracts/ObzidianWhitelist.sol\":1748:1763  members[wallet] */\n      0x00\n        /* \"contracts/ObzidianWhitelist.sol\":1756:1762  wallet */\n      dup3\n        /* \"contracts/ObzidianWhitelist.sol\":1748:1763  members[wallet] */\n      0xffffffffffffffffffffffffffffffffffffffff\n      and\n      0xffffffffffffffffffffffffffffffffffffffff\n      and\n      dup2\n      mstore\n      0x20\n      add\n      swap1\n      dup2\n      mstore\n      0x20\n      add\n      0x00\n      keccak256\n        /* \"contracts/ObzidianWhitelist.sol\":1748:1770  members[wallet].active */\n      0x00\n      add\n      0x00\n      swap1\n      sload\n      swap1\n      0x0100\n      exp\n      swap1\n      div\n      0xff\n      and\n        /* \"contracts/ObzidianWhitelist.sol\":1740:1817  require(members[wallet].active, \"This wallet is not stored in the whitelist\") */\n      tag_94\n      jumpi\n      mload(0x40)\n      0x08c379a000000000000000000000000000000000000000000000000000000000\n      dup2\n      mstore\n      0x04\n      add\n      tag_95\n      swap1\n      tag_61\n      jump\t// in\n    tag_95:\n      mload(0x40)\n      dup1\n      swap2\n      sub\n      swap1\n      revert\n    tag_94:\n        /* \"contracts/ObzidianWhitelist.sol\":1852:1856  true */\n      0x01\n        /* \"contracts/ObzidianWhitelist.sol\":1827:1834  members */\n      0x02\n        /* \"contracts/ObzidianWhitelist.sol\":1827:1842  members[wallet] */\n      0x00\n        /* \"contracts/ObzidianWhitelist.sol\":1835:1841  wallet */\n      dup4\n        /* \"contracts/ObzidianWhitelist.sol\":1827:1842  members[wallet] */\n      0xffffffffffffffffffffffffffffffffffffffff\n      and\n      0xffffffffffffffffffffffffffffffffffffffff\n      and\n      dup2\n      mstore\n      0x20\n      add\n      swap1\n      dup2\n      mstore\n      0x20\n      add\n      0x00\n      keccak256\n        /* \"contracts/ObzidianWhitelist.sol\":1827:1849  members[wallet].active */\n      0x00\n      add\n      0x00\n        /* \"contracts/ObzidianWhitelist.sol\":1827:1856  members[wallet].active = true */\n      0x0100\n      exp\n      dup2\n      sload\n      dup2\n      0xff\n      mul\n      not\n      and\n      swap1\n      dup4\n      iszero\n      iszero\n      mul\n      or\n      swap1\n      sstore\n      pop\n        /* \"contracts/ObzidianWhitelist.sol\":1871:1890  MemberAdded(wallet) */\n      0xb251eb052afc73ffd02ffe85ad79990a8b3fed60d76dbc2fa2fdd7123dffd914\n        /* \"contracts/ObzidianWhitelist.sol\":1883:1889  wallet */\n      dup2\n        /* \"contracts/ObzidianWhitelist.sol\":1871:1890  MemberAdded(wallet) */\n      mload(0x40)\n      tag_96\n      swap2\n      swap1\n      tag_33\n      jump\t// in\n    tag_96:\n      mload(0x40)\n      dup1\n      swap2\n      sub\n      swap1\n      log1\n        /* \"contracts/ObzidianWhitelist.sol\":1675:1897  function enableMember(address wallet) public onlyOwner {... */\n      pop\n      jump\t// out\n        /* \"@openzeppelin/contracts/access/Ownable.sol\":1359:1489  function _checkOwner() internal view virtual {... */\n    tag_57:\n        /* \"@openzeppelin/contracts/access/Ownable.sol\":1433:1445  _msgSender() */\n      tag_98\n        /* \"@openzeppelin/contracts/access/Ownable.sol\":1433:1443  _msgSender */\n      tag_99\n        /* \"@openzeppelin/contracts/access/Ownable.sol\":1433:1445  _msgSender() */\n      jump\t// in\n    tag_98:\n        /* \"@openzeppelin/contracts/access/Ownable.sol\":1422:1445  owner() == _msgSender() */\n      0xffffffffffffffffffffffffffffffffffffffff\n      and\n        /* \"@openzeppelin/contracts/access/Ownable.sol\":1422:1429  owner() */\n      tag_100\n        /* \"@openzeppelin/contracts/access/Ownable.sol\":1422:1427  owner */\n      tag_31\n        /* \"@openzeppelin/contracts/access/Ownable.sol\":1422:1429  owner() */\n      jump\t// in\n    tag_100:\n        /* \"@openzeppelin/contracts/access/Ownable.sol\":1422:1445  owner() == _msgSender() */\n      0xffffffffffffffffffffffffffffffffffffffff\n      and\n      eq\n        /* \"@openzeppelin/contracts/access/Ownable.sol\":1414:1482  require(owner() == _msgSender(), \"Ownable: caller is not the owner\") */\n      tag_101\n      jumpi\n      mload(0x40)\n      0x08c379a000000000000000000000000000000000000000000000000000000000\n      dup2\n      mstore\n      0x04\n      add\n      tag_102\n      swap1\n      tag_103\n      jump\t// in\n    tag_102:\n      mload(0x40)\n      dup1\n      swap2\n      sub\n      swap1\n      revert\n    tag_101:\n        /* \"@openzeppelin/contracts/access/Ownable.sol\":1359:1489  function _checkOwner() internal view virtual {... */\n      jump\t// out\n        /* \"@openzeppelin/contracts/access/Ownable.sol\":2433:2620  function _transferOwnership(address newOwner) internal virtual {... */\n    tag_67:\n        /* \"@openzeppelin/contracts/access/Ownable.sol\":2506:2522  address oldOwner */\n      0x00\n        /* \"@openzeppelin/contracts/access/Ownable.sol\":2525:2531  _owner */\n      dup1\n      0x00\n      swap1\n      sload\n      swap1\n      0x0100\n      exp\n      swap1\n      div\n      0xffffffffffffffffffffffffffffffffffffffff\n      and\n        /* \"@openzeppelin/contracts/access/Ownable.sol\":2506:2531  address oldOwner = _owner */\n      swap1\n      pop\n        /* \"@openzeppelin/contracts/access/Ownable.sol\":2550:2558  newOwner */\n      dup2\n        /* \"@openzeppelin/contracts/access/Ownable.sol\":2541:2547  _owner */\n      0x00\n      dup1\n        /* \"@openzeppelin/contracts/access/Ownable.sol\":2541:2558  _owner = newOwner */\n      0x0100\n      exp\n      dup2\n      sload\n      dup2\n      0xffffffffffffffffffffffffffffffffffffffff\n      mul\n      not\n      and\n      swap1\n      dup4\n      0xffffffffffffffffffffffffffffffffffffffff\n      and\n      mul\n      or\n      swap1\n      sstore\n      pop\n        /* \"@openzeppelin/contracts/access/Ownable.sol\":2604:2612  newOwner */\n      dup2\n        /* \"@openzeppelin/contracts/access/Ownable.sol\":2573:2613  OwnershipTransferred(oldOwner, newOwner) */\n      0xffffffffffffffffffffffffffffffffffffffff\n      and\n        /* \"@openzeppelin/contracts/access/Ownable.sol\":2594:2602  oldOwner */\n      dup2\n        /* \"@openzeppelin/contracts/access/Ownable.sol\":2573:2613  OwnershipTransferred(oldOwner, newOwner) */\n      0xffffffffffffffffffffffffffffffffffffffff\n      and\n      0x8be0079c531659141344cd1fd0a4f28419497f9722a3daafe3b4186f6b6457e0\n      mload(0x40)\n      mload(0x40)\n      dup1\n      swap2\n      sub\n      swap1\n      log3\n        /* \"@openzeppelin/contracts/access/Ownable.sol\":2496:2620  {... */\n      pop\n        /* \"@openzeppelin/contracts/access/Ownable.sol\":2433:2620  function _transferOwnership(address newOwner) internal virtual {... */\n      pop\n      jump\t// out\n        /* \"@openzeppelin/contracts/utils/Context.sol\":640:736  function _msgSender() internal view virtual returns (address) {... */\n    tag_99:\n        /* \"@openzeppelin/contracts/utils/Context.sol\":693:700  address */\n      0x00\n        /* \"@openzeppelin/contracts/utils/Context.sol\":719:729  msg.sender */\n      caller\n        /* \"@openzeppelin/contracts/utils/Context.sol\":712:729  return msg.sender */\n      swap1\n      pop\n        /* \"@openzeppelin/contracts/utils/Context.sol\":640:736  function _msgSender() internal view virtual returns (address) {... */\n      swap1\n      jump\t// out\n    tag_53:\n      mload(0x40)\n      dup1\n      0x60\n      add\n      0x40\n      mstore\n      dup1\n      iszero(iszero(0x00))\n      dup2\n      mstore\n      0x20\n      add\n      and(0xffffffffffffffffffffffffffffffffffffffff, 0x00)\n      dup2\n      mstore\n      0x20\n      add\n      0x00\n      dup2\n      mstore\n      pop\n      swap1\n      jump\t// out\n        /* \"#utility.yul\":7:146   */\n    tag_107:\n        /* \"#utility.yul\":53:58   */\n      0x00\n        /* \"#utility.yul\":91:97   */\n      dup2\n        /* \"#utility.yul\":78:98   */\n      calldataload\n        /* \"#utility.yul\":69:98   */\n      swap1\n      pop\n        /* \"#utility.yul\":107:140   */\n      tag_109\n        /* \"#utility.yul\":134:139   */\n      dup2\n        /* \"#utility.yul\":107:140   */\n      tag_110\n      jump\t// in\n    tag_109:\n        /* \"#utility.yul\":7:146   */\n      swap3\n      swap2\n      pop\n      pop\n      jump\t// out\n        /* \"#utility.yul\":152:291   */\n    tag_111:\n        /* \"#utility.yul\":198:203   */\n      0x00\n        /* \"#utility.yul\":236:242   */\n      dup2\n        /* \"#utility.yul\":223:243   */\n      calldataload\n        /* \"#utility.yul\":214:243   */\n      swap1\n      pop\n        /* \"#utility.yul\":252:285   */\n      tag_113\n        /* \"#utility.yul\":279:284   */\n      dup2\n        /* \"#utility.yul\":252:285   */\n      tag_114\n      jump\t// in\n    tag_113:\n        /* \"#utility.yul\":152:291   */\n      swap3\n      swap2\n      pop\n      pop\n      jump\t// out\n        /* \"#utility.yul\":297:626   */\n    tag_16:\n        /* \"#utility.yul\":356:362   */\n      0x00\n        /* \"#utility.yul\":405:407   */\n      0x20\n        /* \"#utility.yul\":393:402   */\n      dup3\n        /* \"#utility.yul\":384:391   */\n      dup5\n        /* \"#utility.yul\":380:403   */\n      sub\n        /* \"#utility.yul\":376:408   */\n      slt\n        /* \"#utility.yul\":373:492   */\n      iszero\n      tag_116\n      jumpi\n        /* \"#utility.yul\":411:490   */\n      tag_117\n      tag_118\n      jump\t// in\n    tag_117:\n        /* \"#utility.yul\":373:492   */\n    tag_116:\n        /* \"#utility.yul\":531:532   */\n      0x00\n        /* \"#utility.yul\":556:609   */\n      tag_119\n        /* \"#utility.yul\":601:608   */\n      dup5\n        /* \"#utility.yul\":592:598   */\n      dup3\n        /* \"#utility.yul\":581:590   */\n      dup6\n        /* \"#utility.yul\":577:599   */\n      add\n        /* \"#utility.yul\":556:609   */\n      tag_107\n      jump\t// in\n    tag_119:\n        /* \"#utility.yul\":546:609   */\n      swap2\n      pop\n        /* \"#utility.yul\":502:619   */\n      pop\n        /* \"#utility.yul\":297:626   */\n      swap3\n      swap2\n      pop\n      pop\n      jump\t// out\n        /* \"#utility.yul\":632:1106   */\n    tag_40:\n        /* \"#utility.yul\":700:706   */\n      0x00\n        /* \"#utility.yul\":708:714   */\n      dup1\n        /* \"#utility.yul\":757:759   */\n      0x40\n        /* \"#utility.yul\":745:754   */\n      dup4\n        /* \"#utility.yul\":736:743   */\n      dup6\n        /* \"#utility.yul\":732:755   */\n      sub\n        /* \"#utility.yul\":728:760   */\n      slt\n        /* \"#utility.yul\":725:844   */\n      iszero\n      tag_121\n      jumpi\n        /* \"#utility.yul\":763:842   */\n      tag_122\n      tag_118\n      jump\t// in\n    tag_122:\n        /* \"#utility.yul\":725:844   */\n    tag_121:\n        /* \"#utility.yul\":883:884   */\n      0x00\n        /* \"#utility.yul\":908:961   */\n      tag_123\n        /* \"#utility.yul\":953:960   */\n      dup6\n        /* \"#utility.yul\":944:950   */\n      dup3\n        /* \"#utility.yul\":933:942   */\n      dup7\n        /* \"#utility.yul\":929:951   */\n      add\n        /* \"#utility.yul\":908:961   */\n      tag_107\n      jump\t// in\n    tag_123:\n        /* \"#utility.yul\":898:961   */\n      swap3\n      pop\n        /* \"#utility.yul\":854:971   */\n      pop\n        /* \"#utility.yul\":1010:1012   */\n      0x20\n        /* \"#utility.yul\":1036:1089   */\n      tag_124\n        /* \"#utility.yul\":1081:1088   */\n      dup6\n        /* \"#utility.yul\":1072:1078   */\n      dup3\n        /* \"#utility.yul\":1061:1070   */\n      dup7\n        /* \"#utility.yul\":1057:1079   */\n      add\n        /* \"#utility.yul\":1036:1089   */\n      tag_111\n      jump\t// in\n    tag_124:\n        /* \"#utility.yul\":1026:1089   */\n      swap2\n      pop\n        /* \"#utility.yul\":981:1099   */\n      pop\n        /* \"#utility.yul\":632:1106   */\n      swap3\n      pop\n      swap3\n      swap1\n      pop\n      jump\t// out\n        /* \"#utility.yul\":1112:1220   */\n    tag_125:\n        /* \"#utility.yul\":1189:1213   */\n      tag_127\n        /* \"#utility.yul\":1207:1212   */\n      dup2\n        /* \"#utility.yul\":1189:1213   */\n      tag_128\n      jump\t// in\n    tag_127:\n        /* \"#utility.yul\":1184:1187   */\n      dup3\n        /* \"#utility.yul\":1177:1214   */\n      mstore\n        /* \"#utility.yul\":1112:1220   */\n      pop\n      pop\n      jump\t// out\n        /* \"#utility.yul\":1226:1344   */\n    tag_129:\n        /* \"#utility.yul\":1313:1337   */\n      tag_131\n        /* \"#utility.yul\":1331:1336   */\n      dup2\n        /* \"#utility.yul\":1313:1337   */\n      tag_128\n      jump\t// in\n    tag_131:\n        /* \"#utility.yul\":1308:1311   */\n      dup3\n        /* \"#utility.yul\":1301:1338   */\n      mstore\n        /* \"#utility.yul\":1226:1344   */\n      pop\n      pop\n      jump\t// out\n        /* \"#utility.yul\":1350:1449   */\n    tag_132:\n        /* \"#utility.yul\":1421:1442   */\n      tag_134\n        /* \"#utility.yul\":1436:1441   */\n      dup2\n        /* \"#utility.yul\":1421:1442   */\n      tag_135\n      jump\t// in\n    tag_134:\n        /* \"#utility.yul\":1416:1419   */\n      dup3\n        /* \"#utility.yul\":1409:1443   */\n      mstore\n        /* \"#utility.yul\":1350:1449   */\n      pop\n      pop\n      jump\t// out\n        /* \"#utility.yul\":1455:1564   */\n    tag_136:\n        /* \"#utility.yul\":1536:1557   */\n      tag_138\n        /* \"#utility.yul\":1551:1556   */\n      dup2\n        /* \"#utility.yul\":1536:1557   */\n      tag_135\n      jump\t// in\n    tag_138:\n        /* \"#utility.yul\":1531:1534   */\n      dup3\n        /* \"#utility.yul\":1524:1558   */\n      mstore\n        /* \"#utility.yul\":1455:1564   */\n      pop\n      pop\n      jump\t// out\n        /* \"#utility.yul\":1570:1936   */\n    tag_139:\n        /* \"#utility.yul\":1712:1715   */\n      0x00\n        /* \"#utility.yul\":1733:1800   */\n      tag_141\n        /* \"#utility.yul\":1797:1799   */\n      0x2b\n        /* \"#utility.yul\":1792:1795   */\n      dup4\n        /* \"#utility.yul\":1733:1800   */\n      tag_142\n      jump\t// in\n    tag_141:\n        /* \"#utility.yul\":1726:1800   */\n      swap2\n      pop\n        /* \"#utility.yul\":1809:1902   */\n      tag_143\n        /* \"#utility.yul\":1898:1901   */\n      dup3\n        /* \"#utility.yul\":1809:1902   */\n      tag_144\n      jump\t// in\n    tag_143:\n        /* \"#utility.yul\":1927:1929   */\n      0x40\n        /* \"#utility.yul\":1922:1925   */\n      dup3\n        /* \"#utility.yul\":1918:1930   */\n      add\n        /* \"#utility.yul\":1911:1930   */\n      swap1\n      pop\n        /* \"#utility.yul\":1570:1936   */\n      swap2\n      swap1\n      pop\n      jump\t// out\n        /* \"#utility.yul\":1942:2308   */\n    tag_145:\n        /* \"#utility.yul\":2084:2087   */\n      0x00\n        /* \"#utility.yul\":2105:2172   */\n      tag_147\n        /* \"#utility.yul\":2169:2171   */\n      0x26\n        /* \"#utility.yul\":2164:2167   */\n      dup4\n        /* \"#utility.yul\":2105:2172   */\n      tag_142\n      jump\t// in\n    tag_147:\n        /* \"#utility.yul\":2098:2172   */\n      swap2\n      pop\n        /* \"#utility.yul\":2181:2274   */\n      tag_148\n        /* \"#utility.yul\":2270:2273   */\n      dup3\n        /* \"#utility.yul\":2181:2274   */\n      tag_149\n      jump\t// in\n    tag_148:\n        /* \"#utility.yul\":2299:2301   */\n      0x40\n        /* \"#utility.yul\":2294:2297   */\n      dup3\n        /* \"#utility.yul\":2290:2302   */\n      add\n        /* \"#utility.yul\":2283:2302   */\n      swap1\n      pop\n        /* \"#utility.yul\":1942:2308   */\n      swap2\n      swap1\n      pop\n      jump\t// out\n        /* \"#utility.yul\":2314:2680   */\n    tag_150:\n        /* \"#utility.yul\":2456:2459   */\n      0x00\n        /* \"#utility.yul\":2477:2544   */\n      tag_152\n        /* \"#utility.yul\":2541:2543   */\n      0x20\n        /* \"#utility.yul\":2536:2539   */\n      dup4\n        /* \"#utility.yul\":2477:2544   */\n      tag_142\n      jump\t// in\n    tag_152:\n        /* \"#utility.yul\":2470:2544   */\n      swap2\n      pop\n        /* \"#utility.yul\":2553:2646   */\n      tag_153\n        /* \"#utility.yul\":2642:2645   */\n      dup3\n        /* \"#utility.yul\":2553:2646   */\n      tag_154\n      jump\t// in\n    tag_153:\n        /* \"#utility.yul\":2671:2673   */\n      0x20\n        /* \"#utility.yul\":2666:2669   */\n      dup3\n        /* \"#utility.yul\":2662:2674   */\n      add\n        /* \"#utility.yul\":2655:2674   */\n      swap1\n      pop\n        /* \"#utility.yul\":2314:2680   */\n      swap2\n      swap1\n      pop\n      jump\t// out\n        /* \"#utility.yul\":2686:3052   */\n    tag_155:\n        /* \"#utility.yul\":2828:2831   */\n      0x00\n        /* \"#utility.yul\":2849:2916   */\n      tag_157\n        /* \"#utility.yul\":2913:2915   */\n      0x2a\n        /* \"#utility.yul\":2908:2911   */\n      dup4\n        /* \"#utility.yul\":2849:2916   */\n      tag_142\n      jump\t// in\n    tag_157:\n        /* \"#utility.yul\":2842:2916   */\n      swap2\n      pop\n        /* \"#utility.yul\":2925:3018   */\n      tag_158\n        /* \"#utility.yul\":3014:3017   */\n      dup3\n        /* \"#utility.yul\":2925:3018   */\n      tag_159\n      jump\t// in\n    tag_158:\n        /* \"#utility.yul\":3043:3045   */\n      0x40\n        /* \"#utility.yul\":3038:3041   */\n      dup3\n        /* \"#utility.yul\":3034:3046   */\n      add\n        /* \"#utility.yul\":3027:3046   */\n      swap1\n      pop\n        /* \"#utility.yul\":2686:3052   */\n      swap2\n      swap1\n      pop\n      jump\t// out\n        /* \"#utility.yul\":3132:3812   */\n    tag_160:\n        /* \"#utility.yul\":3275:3279   */\n      0x60\n        /* \"#utility.yul\":3270:3273   */\n      dup3\n        /* \"#utility.yul\":3266:3280   */\n      add\n        /* \"#utility.yul\":3364:3368   */\n      0x00\n        /* \"#utility.yul\":3357:3362   */\n      dup3\n        /* \"#utility.yul\":3353:3369   */\n      add\n        /* \"#utility.yul\":3347:3370   */\n      mload\n        /* \"#utility.yul\":3383:3440   */\n      tag_162\n        /* \"#utility.yul\":3434:3438   */\n      0x00\n        /* \"#utility.yul\":3429:3432   */\n      dup6\n        /* \"#utility.yul\":3425:3439   */\n      add\n        /* \"#utility.yul\":3411:3423   */\n      dup3\n        /* \"#utility.yul\":3383:3440   */\n      tag_132\n      jump\t// in\n    tag_162:\n        /* \"#utility.yul\":3290:3450   */\n      pop\n        /* \"#utility.yul\":3534:3538   */\n      0x20\n        /* \"#utility.yul\":3527:3532   */\n      dup3\n        /* \"#utility.yul\":3523:3539   */\n      add\n        /* \"#utility.yul\":3517:3540   */\n      mload\n        /* \"#utility.yul\":3553:3616   */\n      tag_163\n        /* \"#utility.yul\":3610:3614   */\n      0x20\n        /* \"#utility.yul\":3605:3608   */\n      dup6\n        /* \"#utility.yul\":3601:3615   */\n      add\n        /* \"#utility.yul\":3587:3599   */\n      dup3\n        /* \"#utility.yul\":3553:3616   */\n      tag_125\n      jump\t// in\n    tag_163:\n        /* \"#utility.yul\":3460:3626   */\n      pop\n        /* \"#utility.yul\":3713:3717   */\n      0x40\n        /* \"#utility.yul\":3706:3711   */\n      dup3\n        /* \"#utility.yul\":3702:3718   */\n      add\n        /* \"#utility.yul\":3696:3719   */\n      mload\n        /* \"#utility.yul\":3732:3795   */\n      tag_164\n        /* \"#utility.yul\":3789:3793   */\n      0x40\n        /* \"#utility.yul\":3784:3787   */\n      dup6\n        /* \"#utility.yul\":3780:3794   */\n      add\n        /* \"#utility.yul\":3766:3778   */\n      dup3\n        /* \"#utility.yul\":3732:3795   */\n      tag_165\n      jump\t// in\n    tag_164:\n        /* \"#utility.yul\":3636:3805   */\n      pop\n        /* \"#utility.yul\":3244:3812   */\n      pop\n        /* \"#utility.yul\":3132:3812   */\n      pop\n      pop\n      jump\t// out\n        /* \"#utility.yul\":3818:3926   */\n    tag_165:\n        /* \"#utility.yul\":3895:3919   */\n      tag_167\n        /* \"#utility.yul\":3913:3918   */\n      dup2\n        /* \"#utility.yul\":3895:3919   */\n      tag_168\n      jump\t// in\n    tag_167:\n        /* \"#utility.yul\":3890:3893   */\n      dup3\n        /* \"#utility.yul\":3883:3920   */\n      mstore\n        /* \"#utility.yul\":3818:3926   */\n      pop\n      pop\n      jump\t// out\n        /* \"#utility.yul\":3932:4050   */\n    tag_169:\n        /* \"#utility.yul\":4019:4043   */\n      tag_171\n        /* \"#utility.yul\":4037:4042   */\n      dup2\n        /* \"#utility.yul\":4019:4043   */\n      tag_168\n      jump\t// in\n    tag_171:\n        /* \"#utility.yul\":4014:4017   */\n      dup3\n        /* \"#utility.yul\":4007:4044   */\n      mstore\n        /* \"#utility.yul\":3932:4050   */\n      pop\n      pop\n      jump\t// out\n        /* \"#utility.yul\":4056:4278   */\n    tag_33:\n        /* \"#utility.yul\":4149:4153   */\n      0x00\n        /* \"#utility.yul\":4187:4189   */\n      0x20\n        /* \"#utility.yul\":4176:4185   */\n      dup3\n        /* \"#utility.yul\":4172:4190   */\n      add\n        /* \"#utility.yul\":4164:4190   */\n      swap1\n      pop\n        /* \"#utility.yul\":4200:4271   */\n      tag_173\n        /* \"#utility.yul\":4268:4269   */\n      0x00\n        /* \"#utility.yul\":4257:4266   */\n      dup4\n        /* \"#utility.yul\":4253:4270   */\n      add\n        /* \"#utility.yul\":4244:4250   */\n      dup5\n        /* \"#utility.yul\":4200:4271   */\n      tag_129\n      jump\t// in\n    tag_173:\n        /* \"#utility.yul\":4056:4278   */\n      swap3\n      swap2\n      pop\n      pop\n      jump\t// out\n        /* \"#utility.yul\":4284:4494   */\n    tag_19:\n        /* \"#utility.yul\":4371:4375   */\n      0x00\n        /* \"#utility.yul\":4409:4411   */\n      0x20\n        /* \"#utility.yul\":4398:4407   */\n      dup3\n        /* \"#utility.yul\":4394:4412   */\n      add\n        /* \"#utility.yul\":4386:4412   */\n      swap1\n      pop\n        /* \"#utility.yul\":4422:4487   */\n      tag_175\n        /* \"#utility.yul\":4484:4485   */\n      0x00\n        /* \"#utility.yul\":4473:4482   */\n      dup4\n        /* \"#utility.yul\":4469:4486   */\n      add\n        /* \"#utility.yul\":4460:4466   */\n      dup5\n        /* \"#utility.yul\":4422:4487   */\n      tag_136\n      jump\t// in\n    tag_175:\n        /* \"#utility.yul\":4284:4494   */\n      swap3\n      swap2\n      pop\n      pop\n      jump\t// out\n        /* \"#utility.yul\":4500:4919   */\n    tag_80:\n        /* \"#utility.yul\":4666:4670   */\n      0x00\n        /* \"#utility.yul\":4704:4706   */\n      0x20\n        /* \"#utility.yul\":4693:4702   */\n      dup3\n        /* \"#utility.yul\":4689:4707   */\n      add\n        /* \"#utility.yul\":4681:4707   */\n      swap1\n      pop\n        /* \"#utility.yul\":4753:4762   */\n      dup2\n        /* \"#utility.yul\":4747:4751   */\n      dup2\n        /* \"#utility.yul\":4743:4763   */\n      sub\n        /* \"#utility.yul\":4739:4740   */\n      0x00\n        /* \"#utility.yul\":4728:4737   */\n      dup4\n        /* \"#utility.yul\":4724:4741   */\n      add\n        /* \"#utility.yul\":4717:4764   */\n      mstore\n        /* \"#utility.yul\":4781:4912   */\n      tag_177\n        /* \"#utility.yul\":4907:4911   */\n      dup2\n        /* \"#utility.yul\":4781:4912   */\n      tag_139\n      jump\t// in\n    tag_177:\n        /* \"#utility.yul\":4773:4912   */\n      swap1\n      pop\n        /* \"#utility.yul\":4500:4919   */\n      swap2\n      swap1\n      pop\n      jump\t// out\n        /* \"#utility.yul\":4925:5344   */\n    tag_89:\n        /* \"#utility.yul\":5091:5095   */\n      0x00\n        /* \"#utility.yul\":5129:5131   */\n      0x20\n        /* \"#utility.yul\":5118:5127   */\n      dup3\n        /* \"#utility.yul\":5114:5132   */\n      add\n        /* \"#utility.yul\":5106:5132   */\n      swap1\n      pop\n        /* \"#utility.yul\":5178:5187   */\n      dup2\n        /* \"#utility.yul\":5172:5176   */\n      dup2\n        /* \"#utility.yul\":5168:5188   */\n      sub\n        /* \"#utility.yul\":5164:5165   */\n      0x00\n        /* \"#utility.yul\":5153:5162   */\n      dup4\n        /* \"#utility.yul\":5149:5166   */\n      add\n        /* \"#utility.yul\":5142:5189   */\n      mstore\n        /* \"#utility.yul\":5206:5337   */\n      tag_179\n        /* \"#utility.yul\":5332:5336   */\n      dup2\n        /* \"#utility.yul\":5206:5337   */\n      tag_145\n      jump\t// in\n    tag_179:\n        /* \"#utility.yul\":5198:5337   */\n      swap1\n      pop\n        /* \"#utility.yul\":4925:5344   */\n      swap2\n      swap1\n      pop\n      jump\t// out\n        /* \"#utility.yul\":5350:5769   */\n    tag_103:\n        /* \"#utility.yul\":5516:5520   */\n      0x00\n        /* \"#utility.yul\":5554:5556   */\n      0x20\n        /* \"#utility.yul\":5543:5552   */\n      dup3\n        /* \"#utility.yul\":5539:5557   */\n      add\n        /* \"#utility.yul\":5531:5557   */\n      swap1\n      pop\n        /* \"#utility.yul\":5603:5612   */\n      dup2\n        /* \"#utility.yul\":5597:5601   */\n      dup2\n        /* \"#utility.yul\":5593:5613   */\n      sub\n        /* \"#utility.yul\":5589:5590   */\n      0x00\n        /* \"#utility.yul\":5578:5587   */\n      dup4\n        /* \"#utility.yul\":5574:5591   */\n      add\n        /* \"#utility.yul\":5567:5614   */\n      mstore\n        /* \"#utility.yul\":5631:5762   */\n      tag_181\n        /* \"#utility.yul\":5757:5761   */\n      dup2\n        /* \"#utility.yul\":5631:5762   */\n      tag_150\n      jump\t// in\n    tag_181:\n        /* \"#utility.yul\":5623:5762   */\n      swap1\n      pop\n        /* \"#utility.yul\":5350:5769   */\n      swap2\n      swap1\n      pop\n      jump\t// out\n        /* \"#utility.yul\":5775:6194   */\n    tag_61:\n        /* \"#utility.yul\":5941:5945   */\n      0x00\n        /* \"#utility.yul\":5979:5981   */\n      0x20\n        /* \"#utility.yul\":5968:5977   */\n      dup3\n        /* \"#utility.yul\":5964:5982   */\n      add\n        /* \"#utility.yul\":5956:5982   */\n      swap1\n      pop\n        /* \"#utility.yul\":6028:6037   */\n      dup2\n        /* \"#utility.yul\":6022:6026   */\n      dup2\n        /* \"#utility.yul\":6018:6038   */\n      sub\n        /* \"#utility.yul\":6014:6015   */\n      0x00\n        /* \"#utility.yul\":6003:6012   */\n      dup4\n        /* \"#utility.yul\":5999:6016   */\n      add\n        /* \"#utility.yul\":5992:6039   */\n      mstore\n        /* \"#utility.yul\":6056:6187   */\n      tag_183\n        /* \"#utility.yul\":6182:6186   */\n      dup2\n        /* \"#utility.yul\":6056:6187   */\n      tag_155\n      jump\t// in\n    tag_183:\n        /* \"#utility.yul\":6048:6187   */\n      swap1\n      pop\n        /* \"#utility.yul\":5775:6194   */\n      swap2\n      swap1\n      pop\n      jump\t// out\n        /* \"#utility.yul\":6200:6514   */\n    tag_24:\n        /* \"#utility.yul\":6339:6343   */\n      0x00\n        /* \"#utility.yul\":6377:6379   */\n      0x60\n        /* \"#utility.yul\":6366:6375   */\n      dup3\n        /* \"#utility.yul\":6362:6380   */\n      add\n        /* \"#utility.yul\":6354:6380   */\n      swap1\n      pop\n        /* \"#utility.yul\":6390:6507   */\n      tag_185\n        /* \"#utility.yul\":6504:6505   */\n      0x00\n        /* \"#utility.yul\":6493:6502   */\n      dup4\n        /* \"#utility.yul\":6489:6506   */\n      add\n        /* \"#utility.yul\":6480:6486   */\n      dup5\n        /* \"#utility.yul\":6390:6507   */\n      tag_160\n      jump\t// in\n    tag_185:\n        /* \"#utility.yul\":6200:6514   */\n      swap3\n      swap2\n      pop\n      pop\n      jump\t// out\n        /* \"#utility.yul\":6520:6742   */\n    tag_37:\n        /* \"#utility.yul\":6613:6617   */\n      0x00\n        /* \"#utility.yul\":6651:6653   */\n      0x20\n        /* \"#utility.yul\":6640:6649   */\n      dup3\n        /* \"#utility.yul\":6636:6654   */\n      add\n        /* \"#utility.yul\":6628:6654   */\n      swap1\n      pop\n        /* \"#utility.yul\":6664:6735   */\n      tag_187\n        /* \"#utility.yul\":6732:6733   */\n      0x00\n        /* \"#utility.yul\":6721:6730   */\n      dup4\n        /* \"#utility.yul\":6717:6734   */\n      add\n        /* \"#utility.yul\":6708:6714   */\n      dup5\n        /* \"#utility.yul\":6664:6735   */\n      tag_169\n      jump\t// in\n    tag_187:\n        /* \"#utility.yul\":6520:6742   */\n      swap3\n      swap2\n      pop\n      pop\n      jump\t// out\n        /* \"#utility.yul\":6829:6998   */\n    tag_142:\n        /* \"#utility.yul\":6913:6924   */\n      0x00\n        /* \"#utility.yul\":6947:6953   */\n      dup3\n        /* \"#utility.yul\":6942:6945   */\n      dup3\n        /* \"#utility.yul\":6935:6954   */\n      mstore\n        /* \"#utility.yul\":6987:6991   */\n      0x20\n        /* \"#utility.yul\":6982:6985   */\n      dup3\n        /* \"#utility.yul\":6978:6992   */\n      add\n        /* \"#utility.yul\":6963:6992   */\n      swap1\n      pop\n        /* \"#utility.yul\":6829:6998   */\n      swap3\n      swap2\n      pop\n      pop\n      jump\t// out\n        /* \"#utility.yul\":7004:7100   */\n    tag_128:\n        /* \"#utility.yul\":7041:7048   */\n      0x00\n        /* \"#utility.yul\":7070:7094   */\n      tag_192\n        /* \"#utility.yul\":7088:7093   */\n      dup3\n        /* \"#utility.yul\":7070:7094   */\n      tag_193\n      jump\t// in\n    tag_192:\n        /* \"#utility.yul\":7059:7094   */\n      swap1\n      pop\n        /* \"#utility.yul\":7004:7100   */\n      swap2\n      swap1\n      pop\n      jump\t// out\n        /* \"#utility.yul\":7106:7196   */\n    tag_135:\n        /* \"#utility.yul\":7140:7147   */\n      0x00\n        /* \"#utility.yul\":7183:7188   */\n      dup2\n        /* \"#utility.yul\":7176:7189   */\n      iszero\n        /* \"#utility.yul\":7169:7190   */\n      iszero\n        /* \"#utility.yul\":7158:7190   */\n      swap1\n      pop\n        /* \"#utility.yul\":7106:7196   */\n      swap2\n      swap1\n      pop\n      jump\t// out\n        /* \"#utility.yul\":7202:7328   */\n    tag_193:\n        /* \"#utility.yul\":7239:7246   */\n      0x00\n        /* \"#utility.yul\":7279:7321   */\n      0xffffffffffffffffffffffffffffffffffffffff\n        /* \"#utility.yul\":7272:7277   */\n      dup3\n        /* \"#utility.yul\":7268:7322   */\n      and\n        /* \"#utility.yul\":7257:7322   */\n      swap1\n      pop\n        /* \"#utility.yul\":7202:7328   */\n      swap2\n      swap1\n      pop\n      jump\t// out\n        /* \"#utility.yul\":7334:7411   */\n    tag_168:\n        /* \"#utility.yul\":7371:7378   */\n      0x00\n        /* \"#utility.yul\":7400:7405   */\n      dup2\n        /* \"#utility.yul\":7389:7405   */\n      swap1\n      pop\n        /* \"#utility.yul\":7334:7411   */\n      swap2\n      swap1\n      pop\n      jump\t// out\n        /* \"#utility.yul\":7417:7650   */\n    tag_82:\n        /* \"#utility.yul\":7456:7459   */\n      0x00\n        /* \"#utility.yul\":7479:7503   */\n      tag_198\n        /* \"#utility.yul\":7497:7502   */\n      dup3\n        /* \"#utility.yul\":7479:7503   */\n      tag_168\n      jump\t// in\n    tag_198:\n        /* \"#utility.yul\":7470:7503   */\n      swap2\n      pop\n        /* \"#utility.yul\":7525:7591   */\n      0xffffffffffffffffffffffffffffffffffffffffffffffffffffffffffffffff\n        /* \"#utility.yul\":7518:7523   */\n      dup3\n        /* \"#utility.yul\":7515:7592   */\n      eq\n        /* \"#utility.yul\":7512:7615   */\n      iszero\n      tag_199\n      jumpi\n        /* \"#utility.yul\":7595:7613   */\n      tag_200\n      tag_201\n      jump\t// in\n    tag_200:\n        /* \"#utility.yul\":7512:7615   */\n    tag_199:\n        /* \"#utility.yul\":7642:7643   */\n      0x01\n        /* \"#utility.yul\":7635:7640   */\n      dup3\n        /* \"#utility.yul\":7631:7644   */\n      add\n        /* \"#utility.yul\":7624:7644   */\n      swap1\n      pop\n        /* \"#utility.yul\":7417:7650   */\n      swap2\n      swap1\n      pop\n      jump\t// out\n        /* \"#utility.yul\":7656:7836   */\n    tag_201:\n        /* \"#utility.yul\":7704:7781   */\n      0x4e487b7100000000000000000000000000000000000000000000000000000000\n        /* \"#utility.yul\":7701:7702   */\n      0x00\n        /* \"#utility.yul\":7694:7782   */\n      mstore\n        /* \"#utility.yul\":7801:7805   */\n      0x11\n        /* \"#utility.yul\":7798:7799   */\n      0x04\n        /* \"#utility.yul\":7791:7806   */\n      mstore\n        /* \"#utility.yul\":7825:7829   */\n      0x24\n        /* \"#utility.yul\":7822:7823   */\n      0x00\n        /* \"#utility.yul\":7815:7830   */\n      revert\n        /* \"#utility.yul\":7965:8082   */\n    tag_118:\n        /* \"#utility.yul\":8074:8075   */\n      0x00\n        /* \"#utility.yul\":8071:8072   */\n      dup1\n        /* \"#utility.yul\":8064:8076   */\n      revert\n        /* \"#utility.yul\":8088:8318   */\n    tag_144:\n        /* \"#utility.yul\":8228:8262   */\n      0x546869732077616c6c657420616c72656164792073746f72656420696e207468\n        /* \"#utility.yul\":8224:8225   */\n      0x00\n        /* \"#utility.yul\":8216:8222   */\n      dup3\n        /* \"#utility.yul\":8212:8226   */\n      add\n        /* \"#utility.yul\":8205:8263   */\n      mstore\n        /* \"#utility.yul\":8297:8310   */\n      0x652077686974656c697374000000000000000000000000000000000000000000\n        /* \"#utility.yul\":8292:8294   */\n      0x20\n        /* \"#utility.yul\":8284:8290   */\n      dup3\n        /* \"#utility.yul\":8280:8295   */\n      add\n        /* \"#utility.yul\":8273:8311   */\n      mstore\n        /* \"#utility.yul\":8088:8318   */\n      pop\n      jump\t// out\n        /* \"#utility.yul\":8324:8549   */\n    tag_149:\n        /* \"#utility.yul\":8464:8498   */\n      0x4f776e61626c653a206e6577206f776e657220697320746865207a65726f2061\n        /* \"#utility.yul\":8460:8461   */\n      0x00\n        /* \"#utility.yul\":8452:8458   */\n      dup3\n        /* \"#utility.yul\":8448:8462   */\n      add\n        /* \"#utility.yul\":8441:8499   */\n      mstore\n        /* \"#utility.yul\":8533:8541   */\n      0x6464726573730000000000000000000000000000000000000000000000000000\n        /* \"#utility.yul\":8528:8530   */\n      0x20\n        /* \"#utility.yul\":8520:8526   */\n      dup3\n        /* \"#utility.yul\":8516:8531   */\n      add\n        /* \"#utility.yul\":8509:8542   */\n      mstore\n        /* \"#utility.yul\":8324:8549   */\n      pop\n      jump\t// out\n        /* \"#utility.yul\":8555:8737   */\n    tag_154:\n        /* \"#utility.yul\":8695:8729   */\n      0x4f776e61626c653a2063616c6c6572206973206e6f7420746865206f776e6572\n        /* \"#utility.yul\":8691:8692   */\n      0x00\n        /* \"#utility.yul\":8683:8689   */\n      dup3\n        /* \"#utility.yul\":8679:8693   */\n      add\n        /* \"#utility.yul\":8672:8730   */\n      mstore\n        /* \"#utility.yul\":8555:8737   */\n      pop\n      jump\t// out\n        /* \"#utility.yul\":8743:8972   */\n    tag_159:\n        /* \"#utility.yul\":8883:8917   */\n      0x546869732077616c6c6574206973206e6f742073746f72656420696e20746865\n        /* \"#utility.yul\":8879:8880   */\n      0x00\n        /* \"#utility.yul\":8871:8877   */\n      dup3\n        /* \"#utility.yul\":8867:8881   */\n      add\n        /* \"#utility.yul\":8860:8918   */\n      mstore\n        /* \"#utility.yul\":8952:8964   */\n      0x2077686974656c69737400000000000000000000000000000000000000000000\n        /* \"#utility.yul\":8947:8949   */\n      0x20\n        /* \"#utility.yul\":8939:8945   */\n      dup3\n        /* \"#utility.yul\":8935:8950   */\n      add\n        /* \"#utility.yul\":8928:8965   */\n      mstore\n        /* \"#utility.yul\":8743:8972   */\n      pop\n      jump\t// out\n        /* \"#utility.yul\":8978:9100   */\n    tag_110:\n        /* \"#utility.yul\":9051:9075   */\n      tag_211\n        /* \"#utility.yul\":9069:9074   */\n      dup2\n        /* \"#utility.yul\":9051:9075   */\n      tag_128\n      jump\t// in\n    tag_211:\n        /* \"#utility.yul\":9044:9049   */\n      dup2\n        /* \"#utility.yul\":9041:9076   */\n      eq\n        /* \"#utility.yul\":9031:9094   */\n      tag_212\n      jumpi\n        /* \"#utility.yul\":9090:9091   */\n      0x00\n        /* \"#utility.yul\":9087:9088   */\n      dup1\n        /* \"#utility.yul\":9080:9092   */\n      revert\n        /* \"#utility.yul\":9031:9094   */\n    tag_212:\n        /* \"#utility.yul\":8978:9100   */\n      pop\n      jump\t// out\n        /* \"#utility.yul\":9106:9228   */\n    tag_114:\n        /* \"#utility.yul\":9179:9203   */\n      tag_214\n        /* \"#utility.yul\":9197:9202   */\n      dup2\n        /* \"#utility.yul\":9179:9203   */\n      tag_168\n      jump\t// in\n    tag_214:\n        /* \"#utility.yul\":9172:9177   */\n      dup2\n        /* \"#utility.yul\":9169:9204   */\n      eq\n        /* \"#utility.yul\":9159:9222   */\n      tag_215\n      jumpi\n        /* \"#utility.yul\":9218:9219   */\n      0x00\n        /* \"#utility.yul\":9215:9216   */\n      dup1\n        /* \"#utility.yul\":9208:9220   */\n      revert\n        /* \"#utility.yul\":9159:9222   */\n    tag_215:\n        /* \"#utility.yul\":9106:9228   */\n      pop\n      jump\t// out\n\n    auxdata: 0xa26469706673582212208f7bd8567a24ac5ce0f8313ae53e1dc4490e361d9ff2fb304e722dd9c37ead6a64736f6c63430008070033\n}\n",
				"bytecode": {
					"linkReferences": {},
					"object": "608060405234801561001057600080fd5b5061002d61002261003260201b60201c565b61003a60201b60201c565b6100fe565b600033905090565b60008060009054906101000a900473ffffffffffffffffffffffffffffffffffffffff169050816000806101000a81548173ffffffffffffffffffffffffffffffffffffffff021916908373ffffffffffffffffffffffffffffffffffffffff1602179055508173ffffffffffffffffffffffffffffffffffffffff168173ffffffffffffffffffffffffffffffffffffffff167f8be0079c531659141344cd1fd0a4f28419497f9722a3daafe3b4186f6b6457e060405160405180910390a35050565b610f578061010d6000396000f3fe608060405234801561001057600080fd5b506004361061009e5760003560e01c80638f180305116100665780638f18030514610147578063e10eff9b14610165578063efeb5f1f14610181578063f2fde38b1461019d578063f47d2a30146101b95761009e565b8063065c24dc146100a35780632ada2596146100d35780635918ba7914610103578063715018a61461011f5780638da5cb5b14610129575b600080fd5b6100bd60048036038101906100b89190610a86565b6101d5565b6040516100ca9190610c36565b60405180910390f35b6100ed60048036038101906100e89190610a86565b61022e565b6040516100fa9190610cd1565b60405180910390f35b61011d60048036038101906101189190610a86565b610302565b005b61012761042e565b005b610131610442565b60405161013e9190610c1b565b60405180910390f35b61014f61046b565b60405161015c9190610cec565b60405180910390f35b61017f600480360381019061017a9190610ab3565b610475565b005b61019b60048036038101906101969190610a86565b610557565b005b6101b760048036038101906101b29190610a86565b610729565b005b6101d360048036038101906101ce9190610a86565b6107ad565b005b6000600260008373ffffffffffffffffffffffffffffffffffffffff1673ffffffffffffffffffffffffffffffffffffffff16815260200190815260200160002060000160009054906101000a900460ff169050919050565b610236610a23565b600260008373ffffffffffffffffffffffffffffffffffffffff1673ffffffffffffffffffffffffffffffffffffffff1681526020019081526020016000206040518060600160405290816000820160009054906101000a900460ff161515151581526020016000820160019054906101000a900473ffffffffffffffffffffffffffffffffffffffff1673ffffffffffffffffffffffffffffffffffffffff1673ffffffffffffffffffffffffffffffffffffffff1681526020016001820154815250509050919050565b61030a6108d9565b600260008273ffffffffffffffffffffffffffffffffffffffff1673ffffffffffffffffffffffffffffffffffffffff16815260200190815260200160002060000160009054906101000a900460ff16610399576040517f08c379a000000000000000000000000000000000000000000000000000000000815260040161039090610cb1565b60405180910390fd5b6000600260008373ffffffffffffffffffffffffffffffffffffffff1673ffffffffffffffffffffffffffffffffffffffff16815260200190815260200160002060000160006101000a81548160ff0219169083151502179055507f6e76fb4c77256006d9c38ec7d82b45a8c8f3c27b1d6766fffc42dfb8de684492816040516104239190610c1b565b60405180910390a150565b6104366108d9565b6104406000610957565b565b60008060009054906101000a900473ffffffffffffffffffffffffffffffffffffffff16905090565b6000600154905090565b61047d6108d9565b600260008373ffffffffffffffffffffffffffffffffffffffff1673ffffffffffffffffffffffffffffffffffffffff16815260200190815260200160002060000160009054906101000a900460ff1661050c576040517f08c379a000000000000000000000000000000000000000000000000000000000815260040161050390610cb1565b60405180910390fd5b80600260008473ffffffffffffffffffffffffffffffffffffffff1673ffffffffffffffffffffffffffffffffffffffff168152602001908152602001600020600101819055505050565b61055f6108d9565b600260008273ffffffffffffffffffffffffffffffffffffffff1673ffffffffffffffffffffffffffffffffffffffff16815260200190815260200160002060000160009054906101000a900460ff16156105ef576040517f08c379a00000000000000000000000000000000000000000000000000000000081526004016105e690610c51565b60405180910390fd5b6001600081548092919061060290610d60565b919050555060405180606001604052806001151581526020018273ffffffffffffffffffffffffffffffffffffffff1681526020016000815250600260008373ffffffffffffffffffffffffffffffffffffffff1673ffffffffffffffffffffffffffffffffffffffff16815260200190815260200160002060008201518160000160006101000a81548160ff02191690831515021790555060208201518160000160016101000a81548173ffffffffffffffffffffffffffffffffffffffff021916908373ffffffffffffffffffffffffffffffffffffffff160217905550604082015181600101559050507fb251eb052afc73ffd02ffe85ad79990a8b3fed60d76dbc2fa2fdd7123dffd9148160405161071e9190610c1b565b60405180910390a150565b6107316108d9565b600073ffffffffffffffffffffffffffffffffffffffff168173ffffffffffffffffffffffffffffffffffffffff1614156107a1576040517f08c379a000000000000000000000000000000000000000000000000000000000815260040161079890610c71565b60405180910390fd5b6107aa81610957565b50565b6107b56108d9565b600260008273ffffffffffffffffffffffffffffffffffffffff1673ffffffffffffffffffffffffffffffffffffffff16815260200190815260200160002060000160009054906101000a900460ff16610844576040517f08c379a000000000000000000000000000000000000000000000000000000000815260040161083b90610cb1565b60405180910390fd5b6001600260008373ffffffffffffffffffffffffffffffffffffffff1673ffffffffffffffffffffffffffffffffffffffff16815260200190815260200160002060000160006101000a81548160ff0219169083151502179055507fb251eb052afc73ffd02ffe85ad79990a8b3fed60d76dbc2fa2fdd7123dffd914816040516108ce9190610c1b565b60405180910390a150565b6108e1610a1b565b73ffffffffffffffffffffffffffffffffffffffff166108ff610442565b73ffffffffffffffffffffffffffffffffffffffff1614610955576040517f08c379a000000000000000000000000000000000000000000000000000000000815260040161094c90610c91565b60405180910390fd5b565b60008060009054906101000a900473ffffffffffffffffffffffffffffffffffffffff169050816000806101000a81548173ffffffffffffffffffffffffffffffffffffffff021916908373ffffffffffffffffffffffffffffffffffffffff1602179055508173ffffffffffffffffffffffffffffffffffffffff168173ffffffffffffffffffffffffffffffffffffffff167f8be0079c531659141344cd1fd0a4f28419497f9722a3daafe3b4186f6b6457e060405160405180910390a35050565b600033905090565b6040518060600160405280600015158152602001600073ffffffffffffffffffffffffffffffffffffffff168152602001600081525090565b600081359050610a6b81610ef3565b92915050565b600081359050610a8081610f0a565b92915050565b600060208284031215610a9c57610a9b610dd8565b5b6000610aaa84828501610a5c565b91505092915050565b60008060408385031215610aca57610ac9610dd8565b5b6000610ad885828601610a5c565b9250506020610ae985828601610a71565b9150509250929050565b610afc81610d18565b82525050565b610b0b81610d18565b82525050565b610b1a81610d2a565b82525050565b610b2981610d2a565b82525050565b6000610b3c602b83610d07565b9150610b4782610ddd565b604082019050919050565b6000610b5f602683610d07565b9150610b6a82610e2c565b604082019050919050565b6000610b82602083610d07565b9150610b8d82610e7b565b602082019050919050565b6000610ba5602a83610d07565b9150610bb082610ea4565b604082019050919050565b606082016000820151610bd16000850182610b11565b506020820151610be46020850182610af3565b506040820151610bf76040850182610bfd565b50505050565b610c0681610d56565b82525050565b610c1581610d56565b82525050565b6000602082019050610c306000830184610b02565b92915050565b6000602082019050610c4b6000830184610b20565b92915050565b60006020820190508181036000830152610c6a81610b2f565b9050919050565b60006020820190508181036000830152610c8a81610b52565b9050919050565b60006020820190508181036000830152610caa81610b75565b9050919050565b60006020820190508181036000830152610cca81610b98565b9050919050565b6000606082019050610ce66000830184610bbb565b92915050565b6000602082019050610d016000830184610c0c565b92915050565b600082825260208201905092915050565b6000610d2382610d36565b9050919050565b60008115159050919050565b600073ffffffffffffffffffffffffffffffffffffffff82169050919050565b6000819050919050565b6000610d6b82610d56565b91507fffffffffffffffffffffffffffffffffffffffffffffffffffffffffffffffff821415610d9e57610d9d610da9565b5b600182019050919050565b7f4e487b7100000000000000000000000000000000000000000000000000000000600052601160045260246000fd5b600080fd5b7f546869732077616c6c657420616c72656164792073746f72656420696e20746860008201527f652077686974656c697374000000000000000000000000000000000000000000602082015250565b7f4f776e61626c653a206e6577206f776e657220697320746865207a65726f206160008201527f6464726573730000000000000000000000000000000000000000000000000000602082015250565b7f4f776e61626c653a2063616c6c6572206973206e6f7420746865206f776e6572600082015250565b7f546869732077616c6c6574206973206e6f742073746f72656420696e2074686560008201527f2077686974656c69737400000000000000000000000000000000000000000000602082015250565b610efc81610d18565b8114610f0757600080fd5b50565b610f1381610d56565b8114610f1e57600080fd5b5056fea26469706673582212208f7bd8567a24ac5ce0f8313ae53e1dc4490e361d9ff2fb304e722dd9c37ead6a64736f6c63430008070033",
					"opcodes": "PUSH1 0x80 PUSH1 0x40 MSTORE CALLVALUE DUP1 ISZERO PUSH2 0x10 JUMPI PUSH1 0x0 DUP1 REVERT JUMPDEST POP PUSH2 0x2D PUSH2 0x22 PUSH2 0x32 PUSH1 0x20 SHL PUSH1 0x20 SHR JUMP JUMPDEST PUSH2 0x3A PUSH1 0x20 SHL PUSH1 0x20 SHR JUMP JUMPDEST PUSH2 0xFE JUMP JUMPDEST PUSH1 0x0 CALLER SWAP1 POP SWAP1 JUMP JUMPDEST PUSH1 0x0 DUP1 PUSH1 0x0 SWAP1 SLOAD SWAP1 PUSH2 0x100 EXP SWAP1 DIV PUSH20 0xFFFFFFFFFFFFFFFFFFFFFFFFFFFFFFFFFFFFFFFF AND SWAP1 POP DUP2 PUSH1 0x0 DUP1 PUSH2 0x100 EXP DUP2 SLOAD DUP2 PUSH20 0xFFFFFFFFFFFFFFFFFFFFFFFFFFFFFFFFFFFFFFFF MUL NOT AND SWAP1 DUP4 PUSH20 0xFFFFFFFFFFFFFFFFFFFFFFFFFFFFFFFFFFFFFFFF AND MUL OR SWAP1 SSTORE POP DUP2 PUSH20 0xFFFFFFFFFFFFFFFFFFFFFFFFFFFFFFFFFFFFFFFF AND DUP2 PUSH20 0xFFFFFFFFFFFFFFFFFFFFFFFFFFFFFFFFFFFFFFFF AND PUSH32 0x8BE0079C531659141344CD1FD0A4F28419497F9722A3DAAFE3B4186F6B6457E0 PUSH1 0x40 MLOAD PUSH1 0x40 MLOAD DUP1 SWAP2 SUB SWAP1 LOG3 POP POP JUMP JUMPDEST PUSH2 0xF57 DUP1 PUSH2 0x10D PUSH1 0x0 CODECOPY PUSH1 0x0 RETURN INVALID PUSH1 0x80 PUSH1 0x40 MSTORE CALLVALUE DUP1 ISZERO PUSH2 0x10 JUMPI PUSH1 0x0 DUP1 REVERT JUMPDEST POP PUSH1 0x4 CALLDATASIZE LT PUSH2 0x9E JUMPI PUSH1 0x0 CALLDATALOAD PUSH1 0xE0 SHR DUP1 PUSH4 0x8F180305 GT PUSH2 0x66 JUMPI DUP1 PUSH4 0x8F180305 EQ PUSH2 0x147 JUMPI DUP1 PUSH4 0xE10EFF9B EQ PUSH2 0x165 JUMPI DUP1 PUSH4 0xEFEB5F1F EQ PUSH2 0x181 JUMPI DUP1 PUSH4 0xF2FDE38B EQ PUSH2 0x19D JUMPI DUP1 PUSH4 0xF47D2A30 EQ PUSH2 0x1B9 JUMPI PUSH2 0x9E JUMP JUMPDEST DUP1 PUSH4 0x65C24DC EQ PUSH2 0xA3 JUMPI DUP1 PUSH4 0x2ADA2596 EQ PUSH2 0xD3 JUMPI DUP1 PUSH4 0x5918BA79 EQ PUSH2 0x103 JUMPI DUP1 PUSH4 0x715018A6 EQ PUSH2 0x11F JUMPI DUP1 PUSH4 0x8DA5CB5B EQ PUSH2 0x129 JUMPI JUMPDEST PUSH1 0x0 DUP1 REVERT JUMPDEST PUSH2 0xBD PUSH1 0x4 DUP1 CALLDATASIZE SUB DUP2 ADD SWAP1 PUSH2 0xB8 SWAP2 SWAP1 PUSH2 0xA86 JUMP JUMPDEST PUSH2 0x1D5 JUMP JUMPDEST PUSH1 0x40 MLOAD PUSH2 0xCA SWAP2 SWAP1 PUSH2 0xC36 JUMP JUMPDEST PUSH1 0x40 MLOAD DUP1 SWAP2 SUB SWAP1 RETURN JUMPDEST PUSH2 0xED PUSH1 0x4 DUP1 CALLDATASIZE SUB DUP2 ADD SWAP1 PUSH2 0xE8 SWAP2 SWAP1 PUSH2 0xA86 JUMP JUMPDEST PUSH2 0x22E JUMP JUMPDEST PUSH1 0x40 MLOAD PUSH2 0xFA SWAP2 SWAP1 PUSH2 0xCD1 JUMP JUMPDEST PUSH1 0x40 MLOAD DUP1 SWAP2 SUB SWAP1 RETURN JUMPDEST PUSH2 0x11D PUSH1 0x4 DUP1 CALLDATASIZE SUB DUP2 ADD SWAP1 PUSH2 0x118 SWAP2 SWAP1 PUSH2 0xA86 JUMP JUMPDEST PUSH2 0x302 JUMP JUMPDEST STOP JUMPDEST PUSH2 0x127 PUSH2 0x42E JUMP JUMPDEST STOP JUMPDEST PUSH2 0x131 PUSH2 0x442 JUMP JUMPDEST PUSH1 0x40 MLOAD PUSH2 0x13E SWAP2 SWAP1 PUSH2 0xC1B JUMP JUMPDEST PUSH1 0x40 MLOAD DUP1 SWAP2 SUB SWAP1 RETURN JUMPDEST PUSH2 0x14F PUSH2 0x46B JUMP JUMPDEST PUSH1 0x40 MLOAD PUSH2 0x15C SWAP2 SWAP1 PUSH2 0xCEC JUMP JUMPDEST PUSH1 0x40 MLOAD DUP1 SWAP2 SUB SWAP1 RETURN JUMPDEST PUSH2 0x17F PUSH1 0x4 DUP1 CALLDATASIZE SUB DUP2 ADD SWAP1 PUSH2 0x17A SWAP2 SWAP1 PUSH2 0xAB3 JUMP JUMPDEST PUSH2 0x475 JUMP JUMPDEST STOP JUMPDEST PUSH2 0x19B PUSH1 0x4 DUP1 CALLDATASIZE SUB DUP2 ADD SWAP1 PUSH2 0x196 SWAP2 SWAP1 PUSH2 0xA86 JUMP JUMPDEST PUSH2 0x557 JUMP JUMPDEST STOP JUMPDEST PUSH2 0x1B7 PUSH1 0x4 DUP1 CALLDATASIZE SUB DUP2 ADD SWAP1 PUSH2 0x1B2 SWAP2 SWAP1 PUSH2 0xA86 JUMP JUMPDEST PUSH2 0x729 JUMP JUMPDEST STOP JUMPDEST PUSH2 0x1D3 PUSH1 0x4 DUP1 CALLDATASIZE SUB DUP2 ADD SWAP1 PUSH2 0x1CE SWAP2 SWAP1 PUSH2 0xA86 JUMP JUMPDEST PUSH2 0x7AD JUMP JUMPDEST STOP JUMPDEST PUSH1 0x0 PUSH1 0x2 PUSH1 0x0 DUP4 PUSH20 0xFFFFFFFFFFFFFFFFFFFFFFFFFFFFFFFFFFFFFFFF AND PUSH20 0xFFFFFFFFFFFFFFFFFFFFFFFFFFFFFFFFFFFFFFFF AND DUP2 MSTORE PUSH1 0x20 ADD SWAP1 DUP2 MSTORE PUSH1 0x20 ADD PUSH1 0x0 KECCAK256 PUSH1 0x0 ADD PUSH1 0x0 SWAP1 SLOAD SWAP1 PUSH2 0x100 EXP SWAP1 DIV PUSH1 0xFF AND SWAP1 POP SWAP2 SWAP1 POP JUMP JUMPDEST PUSH2 0x236 PUSH2 0xA23 JUMP JUMPDEST PUSH1 0x2 PUSH1 0x0 DUP4 PUSH20 0xFFFFFFFFFFFFFFFFFFFFFFFFFFFFFFFFFFFFFFFF AND PUSH20 0xFFFFFFFFFFFFFFFFFFFFFFFFFFFFFFFFFFFFFFFF AND DUP2 MSTORE PUSH1 0x20 ADD SWAP1 DUP2 MSTORE PUSH1 0x20 ADD PUSH1 0x0 KECCAK256 PUSH1 0x40 MLOAD DUP1 PUSH1 0x60 ADD PUSH1 0x40 MSTORE SWAP1 DUP2 PUSH1 0x0 DUP3 ADD PUSH1 0x0 SWAP1 SLOAD SWAP1 PUSH2 0x100 EXP SWAP1 DIV PUSH1 0xFF AND ISZERO ISZERO ISZERO ISZERO DUP2 MSTORE PUSH1 0x20 ADD PUSH1 0x0 DUP3 ADD PUSH1 0x1 SWAP1 SLOAD SWAP1 PUSH2 0x100 EXP SWAP1 DIV PUSH20 0xFFFFFFFFFFFFFFFFFFFFFFFFFFFFFFFFFFFFFFFF AND PUSH20 0xFFFFFFFFFFFFFFFFFFFFFFFFFFFFFFFFFFFFFFFF AND PUSH20 0xFFFFFFFFFFFFFFFFFFFFFFFFFFFFFFFFFFFFFFFF AND DUP2 MSTORE PUSH1 0x20 ADD PUSH1 0x1 DUP3 ADD SLOAD DUP2 MSTORE POP POP SWAP1 POP SWAP2 SWAP1 POP JUMP JUMPDEST PUSH2 0x30A PUSH2 0x8D9 JUMP JUMPDEST PUSH1 0x2 PUSH1 0x0 DUP3 PUSH20 0xFFFFFFFFFFFFFFFFFFFFFFFFFFFFFFFFFFFFFFFF AND PUSH20 0xFFFFFFFFFFFFFFFFFFFFFFFFFFFFFFFFFFFFFFFF AND DUP2 MSTORE PUSH1 0x20 ADD SWAP1 DUP2 MSTORE PUSH1 0x20 ADD PUSH1 0x0 KECCAK256 PUSH1 0x0 ADD PUSH1 0x0 SWAP1 SLOAD SWAP1 PUSH2 0x100 EXP SWAP1 DIV PUSH1 0xFF AND PUSH2 0x399 JUMPI PUSH1 0x40 MLOAD PUSH32 0x8C379A000000000000000000000000000000000000000000000000000000000 DUP2 MSTORE PUSH1 0x4 ADD PUSH2 0x390 SWAP1 PUSH2 0xCB1 JUMP JUMPDEST PUSH1 0x40 MLOAD DUP1 SWAP2 SUB SWAP1 REVERT JUMPDEST PUSH1 0x0 PUSH1 0x2 PUSH1 0x0 DUP4 PUSH20 0xFFFFFFFFFFFFFFFFFFFFFFFFFFFFFFFFFFFFFFFF AND PUSH20 0xFFFFFFFFFFFFFFFFFFFFFFFFFFFFFFFFFFFFFFFF AND DUP2 MSTORE PUSH1 0x20 ADD SWAP1 DUP2 MSTORE PUSH1 0x20 ADD PUSH1 0x0 KECCAK256 PUSH1 0x0 ADD PUSH1 0x0 PUSH2 0x100 EXP DUP2 SLOAD DUP2 PUSH1 0xFF MUL NOT AND SWAP1 DUP4 ISZERO ISZERO MUL OR SWAP1 SSTORE POP PUSH32 0x6E76FB4C77256006D9C38EC7D82B45A8C8F3C27B1D6766FFFC42DFB8DE684492 DUP2 PUSH1 0x40 MLOAD PUSH2 0x423 SWAP2 SWAP1 PUSH2 0xC1B JUMP JUMPDEST PUSH1 0x40 MLOAD DUP1 SWAP2 SUB SWAP1 LOG1 POP JUMP JUMPDEST PUSH2 0x436 PUSH2 0x8D9 JUMP JUMPDEST PUSH2 0x440 PUSH1 0x0 PUSH2 0x957 JUMP JUMPDEST JUMP JUMPDEST PUSH1 0x0 DUP1 PUSH1 0x0 SWAP1 SLOAD SWAP1 PUSH2 0x100 EXP SWAP1 DIV PUSH20 0xFFFFFFFFFFFFFFFFFFFFFFFFFFFFFFFFFFFFFFFF AND SWAP1 POP SWAP1 JUMP JUMPDEST PUSH1 0x0 PUSH1 0x1 SLOAD SWAP1 POP SWAP1 JUMP JUMPDEST PUSH2 0x47D PUSH2 0x8D9 JUMP JUMPDEST PUSH1 0x2 PUSH1 0x0 DUP4 PUSH20 0xFFFFFFFFFFFFFFFFFFFFFFFFFFFFFFFFFFFFFFFF AND PUSH20 0xFFFFFFFFFFFFFFFFFFFFFFFFFFFFFFFFFFFFFFFF AND DUP2 MSTORE PUSH1 0x20 ADD SWAP1 DUP2 MSTORE PUSH1 0x20 ADD PUSH1 0x0 KECCAK256 PUSH1 0x0 ADD PUSH1 0x0 SWAP1 SLOAD SWAP1 PUSH2 0x100 EXP SWAP1 DIV PUSH1 0xFF AND PUSH2 0x50C JUMPI PUSH1 0x40 MLOAD PUSH32 0x8C379A000000000000000000000000000000000000000000000000000000000 DUP2 MSTORE PUSH1 0x4 ADD PUSH2 0x503 SWAP1 PUSH2 0xCB1 JUMP JUMPDEST PUSH1 0x40 MLOAD DUP1 SWAP2 SUB SWAP1 REVERT JUMPDEST DUP1 PUSH1 0x2 PUSH1 0x0 DUP5 PUSH20 0xFFFFFFFFFFFFFFFFFFFFFFFFFFFFFFFFFFFFFFFF AND PUSH20 0xFFFFFFFFFFFFFFFFFFFFFFFFFFFFFFFFFFFFFFFF AND DUP2 MSTORE PUSH1 0x20 ADD SWAP1 DUP2 MSTORE PUSH1 0x20 ADD PUSH1 0x0 KECCAK256 PUSH1 0x1 ADD DUP2 SWAP1 SSTORE POP POP POP JUMP JUMPDEST PUSH2 0x55F PUSH2 0x8D9 JUMP JUMPDEST PUSH1 0x2 PUSH1 0x0 DUP3 PUSH20 0xFFFFFFFFFFFFFFFFFFFFFFFFFFFFFFFFFFFFFFFF AND PUSH20 0xFFFFFFFFFFFFFFFFFFFFFFFFFFFFFFFFFFFFFFFF AND DUP2 MSTORE PUSH1 0x20 ADD SWAP1 DUP2 MSTORE PUSH1 0x20 ADD PUSH1 0x0 KECCAK256 PUSH1 0x0 ADD PUSH1 0x0 SWAP1 SLOAD SWAP1 PUSH2 0x100 EXP SWAP1 DIV PUSH1 0xFF AND ISZERO PUSH2 0x5EF JUMPI PUSH1 0x40 MLOAD PUSH32 0x8C379A000000000000000000000000000000000000000000000000000000000 DUP2 MSTORE PUSH1 0x4 ADD PUSH2 0x5E6 SWAP1 PUSH2 0xC51 JUMP JUMPDEST PUSH1 0x40 MLOAD DUP1 SWAP2 SUB SWAP1 REVERT JUMPDEST PUSH1 0x1 PUSH1 0x0 DUP2 SLOAD DUP1 SWAP3 SWAP2 SWAP1 PUSH2 0x602 SWAP1 PUSH2 0xD60 JUMP JUMPDEST SWAP2 SWAP1 POP SSTORE POP PUSH1 0x40 MLOAD DUP1 PUSH1 0x60 ADD PUSH1 0x40 MSTORE DUP1 PUSH1 0x1 ISZERO ISZERO DUP2 MSTORE PUSH1 0x20 ADD DUP3 PUSH20 0xFFFFFFFFFFFFFFFFFFFFFFFFFFFFFFFFFFFFFFFF AND DUP2 MSTORE PUSH1 0x20 ADD PUSH1 0x0 DUP2 MSTORE POP PUSH1 0x2 PUSH1 0x0 DUP4 PUSH20 0xFFFFFFFFFFFFFFFFFFFFFFFFFFFFFFFFFFFFFFFF AND PUSH20 0xFFFFFFFFFFFFFFFFFFFFFFFFFFFFFFFFFFFFFFFF AND DUP2 MSTORE PUSH1 0x20 ADD SWAP1 DUP2 MSTORE PUSH1 0x20 ADD PUSH1 0x0 KECCAK256 PUSH1 0x0 DUP3 ADD MLOAD DUP2 PUSH1 0x0 ADD PUSH1 0x0 PUSH2 0x100 EXP DUP2 SLOAD DUP2 PUSH1 0xFF MUL NOT AND SWAP1 DUP4 ISZERO ISZERO MUL OR SWAP1 SSTORE POP PUSH1 0x20 DUP3 ADD MLOAD DUP2 PUSH1 0x0 ADD PUSH1 0x1 PUSH2 0x100 EXP DUP2 SLOAD DUP2 PUSH20 0xFFFFFFFFFFFFFFFFFFFFFFFFFFFFFFFFFFFFFFFF MUL NOT AND SWAP1 DUP4 PUSH20 0xFFFFFFFFFFFFFFFFFFFFFFFFFFFFFFFFFFFFFFFF AND MUL OR SWAP1 SSTORE POP PUSH1 0x40 DUP3 ADD MLOAD DUP2 PUSH1 0x1 ADD SSTORE SWAP1 POP POP PUSH32 0xB251EB052AFC73FFD02FFE85AD79990A8B3FED60D76DBC2FA2FDD7123DFFD914 DUP2 PUSH1 0x40 MLOAD PUSH2 0x71E SWAP2 SWAP1 PUSH2 0xC1B JUMP JUMPDEST PUSH1 0x40 MLOAD DUP1 SWAP2 SUB SWAP1 LOG1 POP JUMP JUMPDEST PUSH2 0x731 PUSH2 0x8D9 JUMP JUMPDEST PUSH1 0x0 PUSH20 0xFFFFFFFFFFFFFFFFFFFFFFFFFFFFFFFFFFFFFFFF AND DUP2 PUSH20 0xFFFFFFFFFFFFFFFFFFFFFFFFFFFFFFFFFFFFFFFF AND EQ ISZERO PUSH2 0x7A1 JUMPI PUSH1 0x40 MLOAD PUSH32 0x8C379A000000000000000000000000000000000000000000000000000000000 DUP2 MSTORE PUSH1 0x4 ADD PUSH2 0x798 SWAP1 PUSH2 0xC71 JUMP JUMPDEST PUSH1 0x40 MLOAD DUP1 SWAP2 SUB SWAP1 REVERT JUMPDEST PUSH2 0x7AA DUP2 PUSH2 0x957 JUMP JUMPDEST POP JUMP JUMPDEST PUSH2 0x7B5 PUSH2 0x8D9 JUMP JUMPDEST PUSH1 0x2 PUSH1 0x0 DUP3 PUSH20 0xFFFFFFFFFFFFFFFFFFFFFFFFFFFFFFFFFFFFFFFF AND PUSH20 0xFFFFFFFFFFFFFFFFFFFFFFFFFFFFFFFFFFFFFFFF AND DUP2 MSTORE PUSH1 0x20 ADD SWAP1 DUP2 MSTORE PUSH1 0x20 ADD PUSH1 0x0 KECCAK256 PUSH1 0x0 ADD PUSH1 0x0 SWAP1 SLOAD SWAP1 PUSH2 0x100 EXP SWAP1 DIV PUSH1 0xFF AND PUSH2 0x844 JUMPI PUSH1 0x40 MLOAD PUSH32 0x8C379A000000000000000000000000000000000000000000000000000000000 DUP2 MSTORE PUSH1 0x4 ADD PUSH2 0x83B SWAP1 PUSH2 0xCB1 JUMP JUMPDEST PUSH1 0x40 MLOAD DUP1 SWAP2 SUB SWAP1 REVERT JUMPDEST PUSH1 0x1 PUSH1 0x2 PUSH1 0x0 DUP4 PUSH20 0xFFFFFFFFFFFFFFFFFFFFFFFFFFFFFFFFFFFFFFFF AND PUSH20 0xFFFFFFFFFFFFFFFFFFFFFFFFFFFFFFFFFFFFFFFF AND DUP2 MSTORE PUSH1 0x20 ADD SWAP1 DUP2 MSTORE PUSH1 0x20 ADD PUSH1 0x0 KECCAK256 PUSH1 0x0 ADD PUSH1 0x0 PUSH2 0x100 EXP DUP2 SLOAD DUP2 PUSH1 0xFF MUL NOT AND SWAP1 DUP4 ISZERO ISZERO MUL OR SWAP1 SSTORE POP PUSH32 0xB251EB052AFC73FFD02FFE85AD79990A8B3FED60D76DBC2FA2FDD7123DFFD914 DUP2 PUSH1 0x40 MLOAD PUSH2 0x8CE SWAP2 SWAP1 PUSH2 0xC1B JUMP JUMPDEST PUSH1 0x40 MLOAD DUP1 SWAP2 SUB SWAP1 LOG1 POP JUMP JUMPDEST PUSH2 0x8E1 PUSH2 0xA1B JUMP JUMPDEST PUSH20 0xFFFFFFFFFFFFFFFFFFFFFFFFFFFFFFFFFFFFFFFF AND PUSH2 0x8FF PUSH2 0x442 JUMP JUMPDEST PUSH20 0xFFFFFFFFFFFFFFFFFFFFFFFFFFFFFFFFFFFFFFFF AND EQ PUSH2 0x955 JUMPI PUSH1 0x40 MLOAD PUSH32 0x8C379A000000000000000000000000000000000000000000000000000000000 DUP2 MSTORE PUSH1 0x4 ADD PUSH2 0x94C SWAP1 PUSH2 0xC91 JUMP JUMPDEST PUSH1 0x40 MLOAD DUP1 SWAP2 SUB SWAP1 REVERT JUMPDEST JUMP JUMPDEST PUSH1 0x0 DUP1 PUSH1 0x0 SWAP1 SLOAD SWAP1 PUSH2 0x100 EXP SWAP1 DIV PUSH20 0xFFFFFFFFFFFFFFFFFFFFFFFFFFFFFFFFFFFFFFFF AND SWAP1 POP DUP2 PUSH1 0x0 DUP1 PUSH2 0x100 EXP DUP2 SLOAD DUP2 PUSH20 0xFFFFFFFFFFFFFFFFFFFFFFFFFFFFFFFFFFFFFFFF MUL NOT AND SWAP1 DUP4 PUSH20 0xFFFFFFFFFFFFFFFFFFFFFFFFFFFFFFFFFFFFFFFF AND MUL OR SWAP1 SSTORE POP DUP2 PUSH20 0xFFFFFFFFFFFFFFFFFFFFFFFFFFFFFFFFFFFFFFFF AND DUP2 PUSH20 0xFFFFFFFFFFFFFFFFFFFFFFFFFFFFFFFFFFFFFFFF AND PUSH32 0x8BE0079C531659141344CD1FD0A4F28419497F9722A3DAAFE3B4186F6B6457E0 PUSH1 0x40 MLOAD PUSH1 0x40 MLOAD DUP1 SWAP2 SUB SWAP1 LOG3 POP POP JUMP JUMPDEST PUSH1 0x0 CALLER SWAP1 POP SWAP1 JUMP JUMPDEST PUSH1 0x40 MLOAD DUP1 PUSH1 0x60 ADD PUSH1 0x40 MSTORE DUP1 PUSH1 0x0 ISZERO ISZERO DUP2 MSTORE PUSH1 0x20 ADD PUSH1 0x0 PUSH20 0xFFFFFFFFFFFFFFFFFFFFFFFFFFFFFFFFFFFFFFFF AND DUP2 MSTORE PUSH1 0x20 ADD PUSH1 0x0 DUP2 MSTORE POP SWAP1 JUMP JUMPDEST PUSH1 0x0 DUP2 CALLDATALOAD SWAP1 POP PUSH2 0xA6B DUP2 PUSH2 0xEF3 JUMP JUMPDEST SWAP3 SWAP2 POP POP JUMP JUMPDEST PUSH1 0x0 DUP2 CALLDATALOAD SWAP1 POP PUSH2 0xA80 DUP2 PUSH2 0xF0A JUMP JUMPDEST SWAP3 SWAP2 POP POP JUMP JUMPDEST PUSH1 0x0 PUSH1 0x20 DUP3 DUP5 SUB SLT ISZERO PUSH2 0xA9C JUMPI PUSH2 0xA9B PUSH2 0xDD8 JUMP JUMPDEST JUMPDEST PUSH1 0x0 PUSH2 0xAAA DUP5 DUP3 DUP6 ADD PUSH2 0xA5C JUMP JUMPDEST SWAP2 POP POP SWAP3 SWAP2 POP POP JUMP JUMPDEST PUSH1 0x0 DUP1 PUSH1 0x40 DUP4 DUP6 SUB SLT ISZERO PUSH2 0xACA JUMPI PUSH2 0xAC9 PUSH2 0xDD8 JUMP JUMPDEST JUMPDEST PUSH1 0x0 PUSH2 0xAD8 DUP6 DUP3 DUP7 ADD PUSH2 0xA5C JUMP JUMPDEST SWAP3 POP POP PUSH1 0x20 PUSH2 0xAE9 DUP6 DUP3 DUP7 ADD PUSH2 0xA71 JUMP JUMPDEST SWAP2 POP POP SWAP3 POP SWAP3 SWAP1 POP JUMP JUMPDEST PUSH2 0xAFC DUP2 PUSH2 0xD18 JUMP JUMPDEST DUP3 MSTORE POP POP JUMP JUMPDEST PUSH2 0xB0B DUP2 PUSH2 0xD18 JUMP JUMPDEST DUP3 MSTORE POP POP JUMP JUMPDEST PUSH2 0xB1A DUP2 PUSH2 0xD2A JUMP JUMPDEST DUP3 MSTORE POP POP JUMP JUMPDEST PUSH2 0xB29 DUP2 PUSH2 0xD2A JUMP JUMPDEST DUP3 MSTORE POP POP JUMP JUMPDEST PUSH1 0x0 PUSH2 0xB3C PUSH1 0x2B DUP4 PUSH2 0xD07 JUMP JUMPDEST SWAP2 POP PUSH2 0xB47 DUP3 PUSH2 0xDDD JUMP JUMPDEST PUSH1 0x40 DUP3 ADD SWAP1 POP SWAP2 SWAP1 POP JUMP JUMPDEST PUSH1 0x0 PUSH2 0xB5F PUSH1 0x26 DUP4 PUSH2 0xD07 JUMP JUMPDEST SWAP2 POP PUSH2 0xB6A DUP3 PUSH2 0xE2C JUMP JUMPDEST PUSH1 0x40 DUP3 ADD SWAP1 POP SWAP2 SWAP1 POP JUMP JUMPDEST PUSH1 0x0 PUSH2 0xB82 PUSH1 0x20 DUP4 PUSH2 0xD07 JUMP JUMPDEST SWAP2 POP PUSH2 0xB8D DUP3 PUSH2 0xE7B JUMP JUMPDEST PUSH1 0x20 DUP3 ADD SWAP1 POP SWAP2 SWAP1 POP JUMP JUMPDEST PUSH1 0x0 PUSH2 0xBA5 PUSH1 0x2A DUP4 PUSH2 0xD07 JUMP JUMPDEST SWAP2 POP PUSH2 0xBB0 DUP3 PUSH2 0xEA4 JUMP JUMPDEST PUSH1 0x40 DUP3 ADD SWAP1 POP SWAP2 SWAP1 POP JUMP JUMPDEST PUSH1 0x60 DUP3 ADD PUSH1 0x0 DUP3 ADD MLOAD PUSH2 0xBD1 PUSH1 0x0 DUP6 ADD DUP3 PUSH2 0xB11 JUMP JUMPDEST POP PUSH1 0x20 DUP3 ADD MLOAD PUSH2 0xBE4 PUSH1 0x20 DUP6 ADD DUP3 PUSH2 0xAF3 JUMP JUMPDEST POP PUSH1 0x40 DUP3 ADD MLOAD PUSH2 0xBF7 PUSH1 0x40 DUP6 ADD DUP3 PUSH2 0xBFD JUMP JUMPDEST POP POP POP POP JUMP JUMPDEST PUSH2 0xC06 DUP2 PUSH2 0xD56 JUMP JUMPDEST DUP3 MSTORE POP POP JUMP JUMPDEST PUSH2 0xC15 DUP2 PUSH2 0xD56 JUMP JUMPDEST DUP3 MSTORE POP POP JUMP JUMPDEST PUSH1 0x0 PUSH1 0x20 DUP3 ADD SWAP1 POP PUSH2 0xC30 PUSH1 0x0 DUP4 ADD DUP5 PUSH2 0xB02 JUMP JUMPDEST SWAP3 SWAP2 POP POP JUMP JUMPDEST PUSH1 0x0 PUSH1 0x20 DUP3 ADD SWAP1 POP PUSH2 0xC4B PUSH1 0x0 DUP4 ADD DUP5 PUSH2 0xB20 JUMP JUMPDEST SWAP3 SWAP2 POP POP JUMP JUMPDEST PUSH1 0x0 PUSH1 0x20 DUP3 ADD SWAP1 POP DUP2 DUP2 SUB PUSH1 0x0 DUP4 ADD MSTORE PUSH2 0xC6A DUP2 PUSH2 0xB2F JUMP JUMPDEST SWAP1 POP SWAP2 SWAP1 POP JUMP JUMPDEST PUSH1 0x0 PUSH1 0x20 DUP3 ADD SWAP1 POP DUP2 DUP2 SUB PUSH1 0x0 DUP4 ADD MSTORE PUSH2 0xC8A DUP2 PUSH2 0xB52 JUMP JUMPDEST SWAP1 POP SWAP2 SWAP1 POP JUMP JUMPDEST PUSH1 0x0 PUSH1 0x20 DUP3 ADD SWAP1 POP DUP2 DUP2 SUB PUSH1 0x0 DUP4 ADD MSTORE PUSH2 0xCAA DUP2 PUSH2 0xB75 JUMP JUMPDEST SWAP1 POP SWAP2 SWAP1 POP JUMP JUMPDEST PUSH1 0x0 PUSH1 0x20 DUP3 ADD SWAP1 POP DUP2 DUP2 SUB PUSH1 0x0 DUP4 ADD MSTORE PUSH2 0xCCA DUP2 PUSH2 0xB98 JUMP JUMPDEST SWAP1 POP SWAP2 SWAP1 POP JUMP JUMPDEST PUSH1 0x0 PUSH1 0x60 DUP3 ADD SWAP1 POP PUSH2 0xCE6 PUSH1 0x0 DUP4 ADD DUP5 PUSH2 0xBBB JUMP JUMPDEST SWAP3 SWAP2 POP POP JUMP JUMPDEST PUSH1 0x0 PUSH1 0x20 DUP3 ADD SWAP1 POP PUSH2 0xD01 PUSH1 0x0 DUP4 ADD DUP5 PUSH2 0xC0C JUMP JUMPDEST SWAP3 SWAP2 POP POP JUMP JUMPDEST PUSH1 0x0 DUP3 DUP3 MSTORE PUSH1 0x20 DUP3 ADD SWAP1 POP SWAP3 SWAP2 POP POP JUMP JUMPDEST PUSH1 0x0 PUSH2 0xD23 DUP3 PUSH2 0xD36 JUMP JUMPDEST SWAP1 POP SWAP2 SWAP1 POP JUMP JUMPDEST PUSH1 0x0 DUP2 ISZERO ISZERO SWAP1 POP SWAP2 SWAP1 POP JUMP JUMPDEST PUSH1 0x0 PUSH20 0xFFFFFFFFFFFFFFFFFFFFFFFFFFFFFFFFFFFFFFFF DUP3 AND SWAP1 POP SWAP2 SWAP1 POP JUMP JUMPDEST PUSH1 0x0 DUP2 SWAP1 POP SWAP2 SWAP1 POP JUMP JUMPDEST PUSH1 0x0 PUSH2 0xD6B DUP3 PUSH2 0xD56 JUMP JUMPDEST SWAP2 POP PUSH32 0xFFFFFFFFFFFFFFFFFFFFFFFFFFFFFFFFFFFFFFFFFFFFFFFFFFFFFFFFFFFFFFFF DUP3 EQ ISZERO PUSH2 0xD9E JUMPI PUSH2 0xD9D PUSH2 0xDA9 JUMP JUMPDEST JUMPDEST PUSH1 0x1 DUP3 ADD SWAP1 POP SWAP2 SWAP1 POP JUMP JUMPDEST PUSH32 0x4E487B7100000000000000000000000000000000000000000000000000000000 PUSH1 0x0 MSTORE PUSH1 0x11 PUSH1 0x4 MSTORE PUSH1 0x24 PUSH1 0x0 REVERT JUMPDEST PUSH1 0x0 DUP1 REVERT JUMPDEST PUSH32 0x546869732077616C6C657420616C72656164792073746F72656420696E207468 PUSH1 0x0 DUP3 ADD MSTORE PUSH32 0x652077686974656C697374000000000000000000000000000000000000000000 PUSH1 0x20 DUP3 ADD MSTORE POP JUMP JUMPDEST PUSH32 0x4F776E61626C653A206E6577206F776E657220697320746865207A65726F2061 PUSH1 0x0 DUP3 ADD MSTORE PUSH32 0x6464726573730000000000000000000000000000000000000000000000000000 PUSH1 0x20 DUP3 ADD MSTORE POP JUMP JUMPDEST PUSH32 0x4F776E61626C653A2063616C6C6572206973206E6F7420746865206F776E6572 PUSH1 0x0 DUP3 ADD MSTORE POP JUMP JUMPDEST PUSH32 0x546869732077616C6C6574206973206E6F742073746F72656420696E20746865 PUSH1 0x0 DUP3 ADD MSTORE PUSH32 0x2077686974656C69737400000000000000000000000000000000000000000000 PUSH1 0x20 DUP3 ADD MSTORE POP JUMP JUMPDEST PUSH2 0xEFC DUP2 PUSH2 0xD18 JUMP JUMPDEST DUP2 EQ PUSH2 0xF07 JUMPI PUSH1 0x0 DUP1 REVERT JUMPDEST POP JUMP JUMPDEST PUSH2 0xF13 DUP2 PUSH2 0xD56 JUMP JUMPDEST DUP2 EQ PUSH2 0xF1E JUMPI PUSH1 0x0 DUP1 REVERT JUMPDEST POP JUMP INVALID LOG2 PUSH5 0x6970667358 0x22 SLT KECCAK256 DUP16 PUSH28 0xD8567A24AC5CE0F8313AE53E1DC4490E361D9FF2FB304E722DD9C37E 0xAD PUSH11 0x64736F6C63430008070033 "
				},
				"gasEstimates": {
					"creation": {
						"codeDepositCost": "785400",
						"executionCost": "infinite",
						"totalCost": "infinite"
					},
					"external": {
						"addWallet(address)": "infinite",
						"disableMember(address)": "infinite",
						"enableMember(address)": "infinite",
						"getMember(address)": "infinite",
						"getTotalMembers()": "2437",
						"owner()": "2611",
						"renounceOwnership()": "30465",
						"transferOwnership(address)": "30813",
						"updateMemberMint(address,uint256)": "27373",
						"validateMember(address)": "2890"
					}
				},
				"methodIdentifiers": {
					"addWallet(address)": "efeb5f1f",
					"disableMember(address)": "5918ba79",
					"enableMember(address)": "f47d2a30",
					"getMember(address)": "2ada2596",
					"getTotalMembers()": "8f180305",
					"owner()": "8da5cb5b",
					"renounceOwnership()": "715018a6",
					"transferOwnership(address)": "f2fde38b",
					"updateMemberMint(address,uint256)": "e10eff9b",
					"validateMember(address)": "065c24dc"
				}
			},
			"storageLayout": {
				"storage": [
					{
						"astId": 7,
						"contract": "contracts/ObzidianWhitelist.sol:ObzidianWhitelist",
						"label": "_owner",
						"offset": 0,
						"slot": "0",
						"type": "t_address"
					},
					{
						"astId": 156,
						"contract": "contracts/ObzidianWhitelist.sol:ObzidianWhitelist",
						"label": "membersCount",
						"offset": 0,
						"slot": "1",
						"type": "t_uint256"
					},
					{
						"astId": 161,
						"contract": "contracts/ObzidianWhitelist.sol:ObzidianWhitelist",
						"label": "members",
						"offset": 0,
						"slot": "2",
						"type": "t_mapping(t_address,t_struct(Member)154_storage)"
					}
				],
				"types": {
					"t_address": {
						"encoding": "inplace",
						"label": "address",
						"numberOfBytes": "20"
					},
					"t_bool": {
						"encoding": "inplace",
						"label": "bool",
						"numberOfBytes": "1"
					},
					"t_mapping(t_address,t_struct(Member)154_storage)": {
						"encoding": "mapping",
						"key": "t_address",
						"label": "mapping(address => struct ObzidianWhitelist.Member)",
						"numberOfBytes": "32",
						"value": "t_struct(Member)154_storage"
					},
					"t_struct(Member)154_storage": {
						"encoding": "inplace",
						"label": "struct ObzidianWhitelist.Member",
						"members": [
							{
								"astId": 149,
								"contract": "contracts/ObzidianWhitelist.sol:ObzidianWhitelist",
								"label": "active",
								"offset": 0,
								"slot": "0",
								"type": "t_bool"
							},
							{
								"astId": 151,
								"contract": "contracts/ObzidianWhitelist.sol:ObzidianWhitelist",
								"label": "wallet",
								"offset": 1,
								"slot": "0",
								"type": "t_address"
							},
							{
								"astId": 153,
								"contract": "contracts/ObzidianWhitelist.sol:ObzidianWhitelist",
								"label": "mintCount",
								"offset": 0,
								"slot": "1",
								"type": "t_uint256"
							}
						],
						"numberOfBytes": "64"
					},
					"t_uint256": {
						"encoding": "inplace",
						"label": "uint256",
						"numberOfBytes": "32"
					}
				}
			},
			"userdoc": {
				"kind": "user",
				"methods": {},
				"version": 1
			}
		}
	}
}