{
	"contracts/ObzidianWhitelist.sol": {
		"ObzidianWhitelist": {
			"abi": [
				{
					"anonymous": false,
					"inputs": [
						{
							"indexed": false,
							"internalType": "address",
							"name": "member",
							"type": "address"
						}
					],
					"name": "MemberAdded",
					"type": "event"
				},
				{
					"anonymous": false,
					"inputs": [
						{
							"indexed": false,
							"internalType": "address",
							"name": "member",
							"type": "address"
						}
					],
					"name": "MemberRemoved",
					"type": "event"
				},
				{
					"anonymous": false,
					"inputs": [
						{
							"indexed": true,
							"internalType": "address",
							"name": "previousOwner",
							"type": "address"
						},
						{
							"indexed": true,
							"internalType": "address",
							"name": "newOwner",
							"type": "address"
						}
					],
					"name": "OwnershipTransferred",
					"type": "event"
				},
				{
					"inputs": [
						{
							"internalType": "address",
							"name": "wallet",
							"type": "address"
						}
					],
					"name": "addMember",
					"outputs": [],
					"stateMutability": "nonpayable",
					"type": "function"
				},
				{
					"inputs": [
						{
							"internalType": "address",
							"name": "wallet",
							"type": "address"
						}
					],
					"name": "disableMember",
					"outputs": [],
					"stateMutability": "nonpayable",
					"type": "function"
				},
				{
					"inputs": [
						{
							"internalType": "address",
							"name": "wallet",
							"type": "address"
						}
					],
					"name": "enableMember",
					"outputs": [],
					"stateMutability": "nonpayable",
					"type": "function"
				},
				{
					"inputs": [
						{
							"internalType": "address",
							"name": "wallet",
							"type": "address"
						}
					],
					"name": "getMember",
					"outputs": [
						{
							"components": [
								{
									"internalType": "bool",
									"name": "active",
									"type": "bool"
								},
								{
									"internalType": "address",
									"name": "wallet",
									"type": "address"
								},
								{
									"internalType": "uint256",
									"name": "mintCount",
									"type": "uint256"
								}
							],
							"internalType": "struct ObzidianWhitelist.Member",
							"name": "member",
							"type": "tuple"
						}
					],
					"stateMutability": "view",
					"type": "function"
				},
				{
					"inputs": [],
					"name": "getTotalMembers",
					"outputs": [
						{
							"internalType": "uint256",
							"name": "",
							"type": "uint256"
						}
					],
					"stateMutability": "view",
					"type": "function"
				},
				{
					"inputs": [],
					"name": "owner",
					"outputs": [
						{
							"internalType": "address",
							"name": "",
							"type": "address"
						}
					],
					"stateMutability": "view",
					"type": "function"
				},
				{
					"inputs": [],
					"name": "renounceOwnership",
					"outputs": [],
					"stateMutability": "nonpayable",
					"type": "function"
				},
				{
					"inputs": [
						{
							"internalType": "address",
							"name": "newOwner",
							"type": "address"
						}
					],
					"name": "transferOwnership",
					"outputs": [],
					"stateMutability": "nonpayable",
					"type": "function"
				},
				{
					"inputs": [
						{
							"internalType": "address",
							"name": "wallet",
							"type": "address"
						},
						{
							"internalType": "uint256",
							"name": "size",
							"type": "uint256"
						}
					],
					"name": "updateMemberMint",
					"outputs": [],
					"stateMutability": "nonpayable",
					"type": "function"
				},
				{
					"inputs": [
						{
							"internalType": "address",
							"name": "wallet",
							"type": "address"
						}
					],
					"name": "validateMember",
					"outputs": [
						{
							"internalType": "bool",
							"name": "",
							"type": "bool"
						}
					],
					"stateMutability": "view",
					"type": "function"
				}
			],
			"devdoc": {
				"kind": "dev",
				"methods": {
					"owner()": {
						"details": "Returns the address of the current owner."
					},
					"renounceOwnership()": {
						"details": "Leaves the contract without owner. It will not be possible to call `onlyOwner` functions anymore. Can only be called by the current owner. NOTE: Renouncing ownership will leave the contract without an owner, thereby removing any functionality that is only available to the owner."
					},
					"transferOwnership(address)": {
						"details": "Transfers ownership of the contract to a new account (`newOwner`). Can only be called by the current owner."
					}
				},
				"version": 1
			},
			"evm": {
				"assembly": "    /* \"contracts/ObzidianWhitelist.sol\":123:1903  contract ObzidianWhitelist is Ownable {... */\n  mstore(0x40, 0x80)\n  callvalue\n  dup1\n  iszero\n  tag_1\n  jumpi\n  0x00\n  dup1\n  revert\ntag_1:\n  pop\n    /* \"@openzeppelin/contracts/access/Ownable.sol\":936:968  _transferOwnership(_msgSender()) */\n  tag_4\n    /* \"@openzeppelin/contracts/access/Ownable.sol\":955:967  _msgSender() */\n  tag_5\n    /* \"@openzeppelin/contracts/access/Ownable.sol\":955:965  _msgSender */\n  shl(0x20, tag_6)\n    /* \"@openzeppelin/contracts/access/Ownable.sol\":955:967  _msgSender() */\n  0x20\n  shr\n  jump\t// in\ntag_5:\n    /* \"@openzeppelin/contracts/access/Ownable.sol\":936:954  _transferOwnership */\n  shl(0x20, tag_7)\n    /* \"@openzeppelin/contracts/access/Ownable.sol\":936:968  _transferOwnership(_msgSender()) */\n  0x20\n  shr\n  jump\t// in\ntag_4:\n    /* \"contracts/ObzidianWhitelist.sol\":123:1903  contract ObzidianWhitelist is Ownable {... */\n  jump(tag_8)\n    /* \"@openzeppelin/contracts/utils/Context.sol\":640:736  function _msgSender() internal view virtual returns (address) {... */\ntag_6:\n    /* \"@openzeppelin/contracts/utils/Context.sol\":693:700  address */\n  0x00\n    /* \"@openzeppelin/contracts/utils/Context.sol\":719:729  msg.sender */\n  caller\n    /* \"@openzeppelin/contracts/utils/Context.sol\":712:729  return msg.sender */\n  swap1\n  pop\n    /* \"@openzeppelin/contracts/utils/Context.sol\":640:736  function _msgSender() internal view virtual returns (address) {... */\n  swap1\n  jump\t// out\n    /* \"@openzeppelin/contracts/access/Ownable.sol\":2433:2620  function _transferOwnership(address newOwner) internal virtual {... */\ntag_7:\n    /* \"@openzeppelin/contracts/access/Ownable.sol\":2506:2522  address oldOwner */\n  0x00\n    /* \"@openzeppelin/contracts/access/Ownable.sol\":2525:2531  _owner */\n  dup1\n  0x00\n  swap1\n  sload\n  swap1\n  0x0100\n  exp\n  swap1\n  div\n  0xffffffffffffffffffffffffffffffffffffffff\n  and\n    /* \"@openzeppelin/contracts/access/Ownable.sol\":2506:2531  address oldOwner = _owner */\n  swap1\n  pop\n    /* \"@openzeppelin/contracts/access/Ownable.sol\":2550:2558  newOwner */\n  dup2\n    /* \"@openzeppelin/contracts/access/Ownable.sol\":2541:2547  _owner */\n  0x00\n  dup1\n    /* \"@openzeppelin/contracts/access/Ownable.sol\":2541:2558  _owner = newOwner */\n  0x0100\n  exp\n  dup2\n  sload\n  dup2\n  0xffffffffffffffffffffffffffffffffffffffff\n  mul\n  not\n  and\n  swap1\n  dup4\n  0xffffffffffffffffffffffffffffffffffffffff\n  and\n  mul\n  or\n  swap1\n  sstore\n  pop\n    /* \"@openzeppelin/contracts/access/Ownable.sol\":2604:2612  newOwner */\n  dup2\n    /* \"@openzeppelin/contracts/access/Ownable.sol\":2573:2613  OwnershipTransferred(oldOwner, newOwner) */\n  0xffffffffffffffffffffffffffffffffffffffff\n  and\n    /* \"@openzeppelin/contracts/access/Ownable.sol\":2594:2602  oldOwner */\n  dup2\n    /* \"@openzeppelin/contracts/access/Ownable.sol\":2573:2613  OwnershipTransferred(oldOwner, newOwner) */\n  0xffffffffffffffffffffffffffffffffffffffff\n  and\n  0x8be0079c531659141344cd1fd0a4f28419497f9722a3daafe3b4186f6b6457e0\n  mload(0x40)\n  mload(0x40)\n  dup1\n  swap2\n  sub\n  swap1\n  log3\n    /* \"@openzeppelin/contracts/access/Ownable.sol\":2496:2620  {... */\n  pop\n    /* \"@openzeppelin/contracts/access/Ownable.sol\":2433:2620  function _transferOwnership(address newOwner) internal virtual {... */\n  pop\n  jump\t// out\n    /* \"contracts/ObzidianWhitelist.sol\":123:1903  contract ObzidianWhitelist is Ownable {... */\ntag_8:\n  dataSize(sub_0)\n  dup1\n  dataOffset(sub_0)\n  0x00\n  codecopy\n  0x00\n  return\nstop\n\nsub_0: assembly {\n        /* \"contracts/ObzidianWhitelist.sol\":123:1903  contract ObzidianWhitelist is Ownable {... */\n      mstore(0x40, 0x80)\n      callvalue\n      dup1\n      iszero\n      tag_1\n      jumpi\n      0x00\n      dup1\n      revert\n    tag_1:\n      pop\n      jumpi(tag_2, lt(calldatasize, 0x04))\n      shr(0xe0, calldataload(0x00))\n      dup1\n      0x8f180305\n      gt\n      tag_13\n      jumpi\n      dup1\n      0x8f180305\n      eq\n      tag_8\n      jumpi\n      dup1\n      0xca6d56dc\n      eq\n      tag_9\n      jumpi\n      dup1\n      0xe10eff9b\n      eq\n      tag_10\n      jumpi\n      dup1\n      0xf2fde38b\n      eq\n      tag_11\n      jumpi\n      dup1\n      0xf47d2a30\n      eq\n      tag_12\n      jumpi\n      jump(tag_2)\n    tag_13:\n      dup1\n      0x065c24dc\n      eq\n      tag_3\n      jumpi\n      dup1\n      0x2ada2596\n      eq\n      tag_4\n      jumpi\n      dup1\n      0x5918ba79\n      eq\n      tag_5\n      jumpi\n      dup1\n      0x715018a6\n      eq\n      tag_6\n      jumpi\n      dup1\n      0x8da5cb5b\n      eq\n      tag_7\n      jumpi\n    tag_2:\n      0x00\n      dup1\n      revert\n        /* \"contracts/ObzidianWhitelist.sol\":764:876  function validateMember(address wallet) public view returns(bool) {... */\n    tag_3:\n      tag_14\n      0x04\n      dup1\n      calldatasize\n      sub\n      dup2\n      add\n      swap1\n      tag_15\n      swap2\n      swap1\n      tag_16\n      jump\t// in\n    tag_15:\n      tag_17\n      jump\t// in\n    tag_14:\n      mload(0x40)\n      tag_18\n      swap2\n      swap1\n      tag_19\n      jump\t// in\n    tag_18:\n      mload(0x40)\n      dup1\n      swap2\n      sub\n      swap1\n      return\n        /* \"contracts/ObzidianWhitelist.sol\":618:735  function getMember(address wallet) public  view returns(Member memory member) {... */\n    tag_4:\n      tag_20\n      0x04\n      dup1\n      calldatasize\n      sub\n      dup2\n      add\n      swap1\n      tag_21\n      swap2\n      swap1\n      tag_16\n      jump\t// in\n    tag_21:\n      tag_22\n      jump\t// in\n    tag_20:\n      mload(0x40)\n      tag_23\n      swap2\n      swap1\n      tag_24\n      jump\t// in\n    tag_23:\n      mload(0x40)\n      dup1\n      swap2\n      sub\n      swap1\n      return\n        /* \"contracts/ObzidianWhitelist.sol\":1421:1647  function disableMember(address wallet) public onlyOwner {... */\n    tag_5:\n      tag_25\n      0x04\n      dup1\n      calldatasize\n      sub\n      dup2\n      add\n      swap1\n      tag_26\n      swap2\n      swap1\n      tag_16\n      jump\t// in\n    tag_26:\n      tag_27\n      jump\t// in\n    tag_25:\n      stop\n        /* \"@openzeppelin/contracts/access/Ownable.sol\":1831:1932  function renounceOwnership() public virtual onlyOwner {... */\n    tag_6:\n      tag_28\n      tag_29\n      jump\t// in\n    tag_28:\n      stop\n        /* \"@openzeppelin/contracts/access/Ownable.sol\":1201:1286  function owner() public view virtual returns (address) {... */\n    tag_7:\n      tag_30\n      tag_31\n      jump\t// in\n    tag_30:\n      mload(0x40)\n      tag_32\n      swap2\n      swap1\n      tag_33\n      jump\t// in\n    tag_32:\n      mload(0x40)\n      dup1\n      swap2\n      sub\n      swap1\n      return\n        /* \"contracts/ObzidianWhitelist.sol\":502:594  function getTotalMembers() public view returns(uint256) {... */\n    tag_8:\n      tag_34\n      tag_35\n      jump\t// in\n    tag_34:\n      mload(0x40)\n      tag_36\n      swap2\n      swap1\n      tag_37\n      jump\t// in\n    tag_36:\n      mload(0x40)\n      dup1\n      swap2\n      sub\n      swap1\n      return\n        /* \"contracts/ObzidianWhitelist.sol\":900:1157  function addMember(address wallet) public onlyOwner {... */\n    tag_9:\n      tag_38\n      0x04\n      dup1\n      calldatasize\n      sub\n      dup2\n      add\n      swap1\n      tag_39\n      swap2\n      swap1\n      tag_16\n      jump\t// in\n    tag_39:\n      tag_40\n      jump\t// in\n    tag_38:\n      stop\n        /* \"contracts/ObzidianWhitelist.sol\":1184:1393  function updateMemberMint(address wallet, uint256 size) public onlyOwner {... */\n    tag_10:\n      tag_41\n      0x04\n      dup1\n      calldatasize\n      sub\n      dup2\n      add\n      swap1\n      tag_42\n      swap2\n      swap1\n      tag_43\n      jump\t// in\n    tag_42:\n      tag_44\n      jump\t// in\n    tag_41:\n      stop\n        /* \"@openzeppelin/contracts/access/Ownable.sol\":2081:2279  function transferOwnership(address newOwner) public virtual onlyOwner {... */\n    tag_11:\n      tag_45\n      0x04\n      dup1\n      calldatasize\n      sub\n      dup2\n      add\n      swap1\n      tag_46\n      swap2\n      swap1\n      tag_16\n      jump\t// in\n    tag_46:\n      tag_47\n      jump\t// in\n    tag_45:\n      stop\n        /* \"contracts/ObzidianWhitelist.sol\":1675:1900  function enableMember(address wallet) public onlyOwner {... */\n    tag_12:\n      tag_48\n      0x04\n      dup1\n      calldatasize\n      sub\n      dup2\n      add\n      swap1\n      tag_49\n      swap2\n      swap1\n      tag_16\n      jump\t// in\n    tag_49:\n      tag_50\n      jump\t// in\n    tag_48:\n      stop\n        /* \"contracts/ObzidianWhitelist.sol\":764:876  function validateMember(address wallet) public view returns(bool) {... */\n    tag_17:\n        /* \"contracts/ObzidianWhitelist.sol\":824:828  bool */\n      0x00\n        /* \"contracts/ObzidianWhitelist.sol\":847:854  members */\n      0x02\n        /* \"contracts/ObzidianWhitelist.sol\":847:862  members[wallet] */\n      0x00\n        /* \"contracts/ObzidianWhitelist.sol\":855:861  wallet */\n      dup4\n        /* \"contracts/ObzidianWhitelist.sol\":847:862  members[wallet] */\n      0xffffffffffffffffffffffffffffffffffffffff\n      and\n      0xffffffffffffffffffffffffffffffffffffffff\n      and\n      dup2\n      mstore\n      0x20\n      add\n      swap1\n      dup2\n      mstore\n      0x20\n      add\n      0x00\n      keccak256\n        /* \"contracts/ObzidianWhitelist.sol\":847:869  members[wallet].active */\n      0x00\n      add\n      0x00\n      swap1\n      sload\n      swap1\n      0x0100\n      exp\n      swap1\n      div\n      0xff\n      and\n        /* \"contracts/ObzidianWhitelist.sol\":840:869  return members[wallet].active */\n      swap1\n      pop\n        /* \"contracts/ObzidianWhitelist.sol\":764:876  function validateMember(address wallet) public view returns(bool) {... */\n      swap2\n      swap1\n      pop\n      jump\t// out\n        /* \"contracts/ObzidianWhitelist.sol\":618:735  function getMember(address wallet) public  view returns(Member memory member) {... */\n    tag_22:\n        /* \"contracts/ObzidianWhitelist.sol\":674:694  Member memory member */\n      tag_52\n      tag_53\n      jump\t// in\n    tag_52:\n        /* \"contracts/ObzidianWhitelist.sol\":713:720  members */\n      0x02\n        /* \"contracts/ObzidianWhitelist.sol\":713:728  members[wallet] */\n      0x00\n        /* \"contracts/ObzidianWhitelist.sol\":721:727  wallet */\n      dup4\n        /* \"contracts/ObzidianWhitelist.sol\":713:728  members[wallet] */\n      0xffffffffffffffffffffffffffffffffffffffff\n      and\n      0xffffffffffffffffffffffffffffffffffffffff\n      and\n      dup2\n      mstore\n      0x20\n      add\n      swap1\n      dup2\n      mstore\n      0x20\n      add\n      0x00\n      keccak256\n        /* \"contracts/ObzidianWhitelist.sol\":706:728  return members[wallet] */\n      mload(0x40)\n      dup1\n      0x60\n      add\n      0x40\n      mstore\n      swap1\n      dup2\n      0x00\n      dup3\n      add\n      0x00\n      swap1\n      sload\n      swap1\n      0x0100\n      exp\n      swap1\n      div\n      0xff\n      and\n      iszero\n      iszero\n      iszero\n      iszero\n      dup2\n      mstore\n      0x20\n      add\n      0x00\n      dup3\n      add\n      0x01\n      swap1\n      sload\n      swap1\n      0x0100\n      exp\n      swap1\n      div\n      0xffffffffffffffffffffffffffffffffffffffff\n      and\n      0xffffffffffffffffffffffffffffffffffffffff\n      and\n      0xffffffffffffffffffffffffffffffffffffffff\n      and\n      dup2\n      mstore\n      0x20\n      add\n      0x01\n      dup3\n      add\n      sload\n      dup2\n      mstore\n      pop\n      pop\n      swap1\n      pop\n        /* \"contracts/ObzidianWhitelist.sol\":618:735  function getMember(address wallet) public  view returns(Member memory member) {... */\n      swap2\n      swap1\n      pop\n      jump\t// out\n        /* \"contracts/ObzidianWhitelist.sol\":1421:1647  function disableMember(address wallet) public onlyOwner {... */\n    tag_27:\n        /* \"@openzeppelin/contracts/access/Ownable.sol\":1094:1107  _checkOwner() */\n      tag_56\n        /* \"@openzeppelin/contracts/access/Ownable.sol\":1094:1105  _checkOwner */\n      tag_57\n        /* \"@openzeppelin/contracts/access/Ownable.sol\":1094:1107  _checkOwner() */\n      jump\t// in\n    tag_56:\n        /* \"contracts/ObzidianWhitelist.sol\":1495:1502  members */\n      0x02\n        /* \"contracts/ObzidianWhitelist.sol\":1495:1510  members[wallet] */\n      0x00\n        /* \"contracts/ObzidianWhitelist.sol\":1503:1509  wallet */\n      dup3\n        /* \"contracts/ObzidianWhitelist.sol\":1495:1510  members[wallet] */\n      0xffffffffffffffffffffffffffffffffffffffff\n      and\n      0xffffffffffffffffffffffffffffffffffffffff\n      and\n      dup2\n      mstore\n      0x20\n      add\n      swap1\n      dup2\n      mstore\n      0x20\n      add\n      0x00\n      keccak256\n        /* \"contracts/ObzidianWhitelist.sol\":1495:1517  members[wallet].active */\n      0x00\n      add\n      0x00\n      swap1\n      sload\n      swap1\n      0x0100\n      exp\n      swap1\n      div\n      0xff\n      and\n        /* \"contracts/ObzidianWhitelist.sol\":1487:1564  require(members[wallet].active, \"This wallet is not stored in the whitelist\") */\n      tag_59\n      jumpi\n      mload(0x40)\n      0x08c379a000000000000000000000000000000000000000000000000000000000\n      dup2\n      mstore\n      0x04\n      add\n      tag_60\n      swap1\n      tag_61\n      jump\t// in\n    tag_60:\n      mload(0x40)\n      dup1\n      swap2\n      sub\n      swap1\n      revert\n    tag_59:\n        /* \"contracts/ObzidianWhitelist.sol\":1599:1604  false */\n      0x00\n        /* \"contracts/ObzidianWhitelist.sol\":1574:1581  members */\n      0x02\n        /* \"contracts/ObzidianWhitelist.sol\":1574:1589  members[wallet] */\n      0x00\n        /* \"contracts/ObzidianWhitelist.sol\":1582:1588  wallet */\n      dup4\n        /* \"contracts/ObzidianWhitelist.sol\":1574:1589  members[wallet] */\n      0xffffffffffffffffffffffffffffffffffffffff\n      and\n      0xffffffffffffffffffffffffffffffffffffffff\n      and\n      dup2\n      mstore\n      0x20\n      add\n      swap1\n      dup2\n      mstore\n      0x20\n      add\n      0x00\n      keccak256\n        /* \"contracts/ObzidianWhitelist.sol\":1574:1596  members[wallet].active */\n      0x00\n      add\n      0x00\n        /* \"contracts/ObzidianWhitelist.sol\":1574:1604  members[wallet].active = false */\n      0x0100\n      exp\n      dup2\n      sload\n      dup2\n      0xff\n      mul\n      not\n      and\n      swap1\n      dup4\n      iszero\n      iszero\n      mul\n      or\n      swap1\n      sstore\n      pop\n        /* \"contracts/ObzidianWhitelist.sol\":1619:1640  MemberRemoved(wallet) */\n      0x6e76fb4c77256006d9c38ec7d82b45a8c8f3c27b1d6766fffc42dfb8de684492\n        /* \"contracts/ObzidianWhitelist.sol\":1633:1639  wallet */\n      dup2\n        /* \"contracts/ObzidianWhitelist.sol\":1619:1640  MemberRemoved(wallet) */\n      mload(0x40)\n      tag_62\n      swap2\n      swap1\n      tag_33\n      jump\t// in\n    tag_62:\n      mload(0x40)\n      dup1\n      swap2\n      sub\n      swap1\n      log1\n        /* \"contracts/ObzidianWhitelist.sol\":1421:1647  function disableMember(address wallet) public onlyOwner {... */\n      pop\n      jump\t// out\n        /* \"@openzeppelin/contracts/access/Ownable.sol\":1831:1932  function renounceOwnership() public virtual onlyOwner {... */\n    tag_29:\n        /* \"@openzeppelin/contracts/access/Ownable.sol\":1094:1107  _checkOwner() */\n      tag_64\n        /* \"@openzeppelin/contracts/access/Ownable.sol\":1094:1105  _checkOwner */\n      tag_57\n        /* \"@openzeppelin/contracts/access/Ownable.sol\":1094:1107  _checkOwner() */\n      jump\t// in\n    tag_64:\n        /* \"@openzeppelin/contracts/access/Ownable.sol\":1895:1925  _transferOwnership(address(0)) */\n      tag_66\n        /* \"@openzeppelin/contracts/access/Ownable.sol\":1922:1923  0 */\n      0x00\n        /* \"@openzeppelin/contracts/access/Ownable.sol\":1895:1913  _transferOwnership */\n      tag_67\n        /* \"@openzeppelin/contracts/access/Ownable.sol\":1895:1925  _transferOwnership(address(0)) */\n      jump\t// in\n    tag_66:\n        /* \"@openzeppelin/contracts/access/Ownable.sol\":1831:1932  function renounceOwnership() public virtual onlyOwner {... */\n      jump\t// out\n        /* \"@openzeppelin/contracts/access/Ownable.sol\":1201:1286  function owner() public view virtual returns (address) {... */\n    tag_31:\n        /* \"@openzeppelin/contracts/access/Ownable.sol\":1247:1254  address */\n      0x00\n        /* \"@openzeppelin/contracts/access/Ownable.sol\":1273:1279  _owner */\n      dup1\n      0x00\n      swap1\n      sload\n      swap1\n      0x0100\n      exp\n      swap1\n      div\n      0xffffffffffffffffffffffffffffffffffffffff\n      and\n        /* \"@openzeppelin/contracts/access/Ownable.sol\":1266:1279  return _owner */\n      swap1\n      pop\n        /* \"@openzeppelin/contracts/access/Ownable.sol\":1201:1286  function owner() public view virtual returns (address) {... */\n      swap1\n      jump\t// out\n        /* \"contracts/ObzidianWhitelist.sol\":502:594  function getTotalMembers() public view returns(uint256) {... */\n    tag_35:\n        /* \"contracts/ObzidianWhitelist.sol\":549:556  uint256 */\n      0x00\n        /* \"contracts/ObzidianWhitelist.sol\":575:587  membersCount */\n      sload(0x01)\n        /* \"contracts/ObzidianWhitelist.sol\":568:587  return membersCount */\n      swap1\n      pop\n        /* \"contracts/ObzidianWhitelist.sol\":502:594  function getTotalMembers() public view returns(uint256) {... */\n      swap1\n      jump\t// out\n        /* \"contracts/ObzidianWhitelist.sol\":900:1157  function addMember(address wallet) public onlyOwner {... */\n    tag_40:\n        /* \"@openzeppelin/contracts/access/Ownable.sol\":1094:1107  _checkOwner() */\n      tag_71\n        /* \"@openzeppelin/contracts/access/Ownable.sol\":1094:1105  _checkOwner */\n      tag_57\n        /* \"@openzeppelin/contracts/access/Ownable.sol\":1094:1107  _checkOwner() */\n      jump\t// in\n    tag_71:\n        /* \"contracts/ObzidianWhitelist.sol\":971:978  members */\n      0x02\n        /* \"contracts/ObzidianWhitelist.sol\":971:986  members[wallet] */\n      0x00\n        /* \"contracts/ObzidianWhitelist.sol\":979:985  wallet */\n      dup3\n        /* \"contracts/ObzidianWhitelist.sol\":971:986  members[wallet] */\n      0xffffffffffffffffffffffffffffffffffffffff\n      and\n      0xffffffffffffffffffffffffffffffffffffffff\n      and\n      dup2\n      mstore\n      0x20\n      add\n      swap1\n      dup2\n      mstore\n      0x20\n      add\n      0x00\n      keccak256\n        /* \"contracts/ObzidianWhitelist.sol\":971:993  members[wallet].active */\n      0x00\n      add\n      0x00\n      swap1\n      sload\n      swap1\n      0x0100\n      exp\n      swap1\n      div\n      0xff\n      and\n        /* \"contracts/ObzidianWhitelist.sol\":970:993  !members[wallet].active */\n      iszero\n        /* \"contracts/ObzidianWhitelist.sol\":962:1041  require(!members[wallet].active, \"This wallet already stored in the whitelist\") */\n      tag_73\n      jumpi\n      mload(0x40)\n      0x08c379a000000000000000000000000000000000000000000000000000000000\n      dup2\n      mstore\n      0x04\n      add\n      tag_74\n      swap1\n      tag_75\n      jump\t// in\n    tag_74:\n      mload(0x40)\n      dup1\n      swap2\n      sub\n      swap1\n      revert\n    tag_73:\n        /* \"contracts/ObzidianWhitelist.sol\":1051:1063  membersCount */\n      0x01\n      0x00\n        /* \"contracts/ObzidianWhitelist.sol\":1051:1065  membersCount++ */\n      dup2\n      sload\n      dup1\n      swap3\n      swap2\n      swap1\n      tag_76\n      swap1\n      tag_77\n      jump\t// in\n    tag_76:\n      swap2\n      swap1\n      pop\n      sstore\n      pop\n        /* \"contracts/ObzidianWhitelist.sol\":1093:1116  Member(true, wallet, 0) */\n      mload(0x40)\n      dup1\n      0x60\n      add\n      0x40\n      mstore\n      dup1\n        /* \"contracts/ObzidianWhitelist.sol\":1100:1104  true */\n      0x01\n        /* \"contracts/ObzidianWhitelist.sol\":1093:1116  Member(true, wallet, 0) */\n      iszero\n      iszero\n      dup2\n      mstore\n      0x20\n      add\n        /* \"contracts/ObzidianWhitelist.sol\":1106:1112  wallet */\n      dup3\n        /* \"contracts/ObzidianWhitelist.sol\":1093:1116  Member(true, wallet, 0) */\n      0xffffffffffffffffffffffffffffffffffffffff\n      and\n      dup2\n      mstore\n      0x20\n      add\n        /* \"contracts/ObzidianWhitelist.sol\":1114:1115  0 */\n      0x00\n        /* \"contracts/ObzidianWhitelist.sol\":1093:1116  Member(true, wallet, 0) */\n      dup2\n      mstore\n      pop\n        /* \"contracts/ObzidianWhitelist.sol\":1075:1082  members */\n      0x02\n        /* \"contracts/ObzidianWhitelist.sol\":1075:1090  members[wallet] */\n      0x00\n        /* \"contracts/ObzidianWhitelist.sol\":1083:1089  wallet */\n      dup4\n        /* \"contracts/ObzidianWhitelist.sol\":1075:1090  members[wallet] */\n      0xffffffffffffffffffffffffffffffffffffffff\n      and\n      0xffffffffffffffffffffffffffffffffffffffff\n      and\n      dup2\n      mstore\n      0x20\n      add\n      swap1\n      dup2\n      mstore\n      0x20\n      add\n      0x00\n      keccak256\n        /* \"contracts/ObzidianWhitelist.sol\":1075:1116  members[wallet] = Member(true, wallet, 0) */\n      0x00\n      dup3\n      add\n      mload\n      dup2\n      0x00\n      add\n      exp(0x0100, 0x00)\n      dup2\n      sload\n      dup2\n      0xff\n      mul\n      not\n      and\n      swap1\n      dup4\n      iszero\n      iszero\n      mul\n      or\n      swap1\n      sstore\n      pop\n      0x20\n      dup3\n      add\n      mload\n      dup2\n      0x00\n      add\n      exp(0x0100, 0x01)\n      dup2\n      sload\n      dup2\n      0xffffffffffffffffffffffffffffffffffffffff\n      mul\n      not\n      and\n      swap1\n      dup4\n      0xffffffffffffffffffffffffffffffffffffffff\n      and\n      mul\n      or\n      swap1\n      sstore\n      pop\n      0x40\n      dup3\n      add\n      mload\n      dup2\n      0x01\n      add\n      sstore\n      swap1\n      pop\n      pop\n        /* \"contracts/ObzidianWhitelist.sol\":1131:1150  MemberAdded(wallet) */\n      0xb251eb052afc73ffd02ffe85ad79990a8b3fed60d76dbc2fa2fdd7123dffd914\n        /* \"contracts/ObzidianWhitelist.sol\":1143:1149  wallet */\n      dup2\n        /* \"contracts/ObzidianWhitelist.sol\":1131:1150  MemberAdded(wallet) */\n      mload(0x40)\n      tag_78\n      swap2\n      swap1\n      tag_33\n      jump\t// in\n    tag_78:\n      mload(0x40)\n      dup1\n      swap2\n      sub\n      swap1\n      log1\n        /* \"contracts/ObzidianWhitelist.sol\":900:1157  function addMember(address wallet) public onlyOwner {... */\n      pop\n      jump\t// out\n        /* \"contracts/ObzidianWhitelist.sol\":1184:1393  function updateMemberMint(address wallet, uint256 size) public onlyOwner {... */\n    tag_44:\n        /* \"@openzeppelin/contracts/access/Ownable.sol\":1094:1107  _checkOwner() */\n      tag_80\n        /* \"@openzeppelin/contracts/access/Ownable.sol\":1094:1105  _checkOwner */\n      tag_57\n        /* \"@openzeppelin/contracts/access/Ownable.sol\":1094:1107  _checkOwner() */\n      jump\t// in\n    tag_80:\n        /* \"contracts/ObzidianWhitelist.sol\":1275:1282  members */\n      0x02\n        /* \"contracts/ObzidianWhitelist.sol\":1275:1290  members[wallet] */\n      0x00\n        /* \"contracts/ObzidianWhitelist.sol\":1283:1289  wallet */\n      dup4\n        /* \"contracts/ObzidianWhitelist.sol\":1275:1290  members[wallet] */\n      0xffffffffffffffffffffffffffffffffffffffff\n      and\n      0xffffffffffffffffffffffffffffffffffffffff\n      and\n      dup2\n      mstore\n      0x20\n      add\n      swap1\n      dup2\n      mstore\n      0x20\n      add\n      0x00\n      keccak256\n        /* \"contracts/ObzidianWhitelist.sol\":1275:1297  members[wallet].active */\n      0x00\n      add\n      0x00\n      swap1\n      sload\n      swap1\n      0x0100\n      exp\n      swap1\n      div\n      0xff\n      and\n        /* \"contracts/ObzidianWhitelist.sol\":1267:1344  require(members[wallet].active, \"This wallet is not stored in the whitelist\") */\n      tag_82\n      jumpi\n      mload(0x40)\n      0x08c379a000000000000000000000000000000000000000000000000000000000\n      dup2\n      mstore\n      0x04\n      add\n      tag_83\n      swap1\n      tag_61\n      jump\t// in\n    tag_83:\n      mload(0x40)\n      dup1\n      swap2\n      sub\n      swap1\n      revert\n    tag_82:\n        /* \"contracts/ObzidianWhitelist.sol\":1382:1386  size */\n      dup1\n        /* \"contracts/ObzidianWhitelist.sol\":1354:1361  members */\n      0x02\n        /* \"contracts/ObzidianWhitelist.sol\":1354:1369  members[wallet] */\n      0x00\n        /* \"contracts/ObzidianWhitelist.sol\":1362:1368  wallet */\n      dup5\n        /* \"contracts/ObzidianWhitelist.sol\":1354:1369  members[wallet] */\n      0xffffffffffffffffffffffffffffffffffffffff\n      and\n      0xffffffffffffffffffffffffffffffffffffffff\n      and\n      dup2\n      mstore\n      0x20\n      add\n      swap1\n      dup2\n      mstore\n      0x20\n      add\n      0x00\n      keccak256\n        /* \"contracts/ObzidianWhitelist.sol\":1354:1379  members[wallet].mintCount */\n      0x01\n      add\n        /* \"contracts/ObzidianWhitelist.sol\":1354:1386  members[wallet].mintCount = size */\n      dup2\n      swap1\n      sstore\n      pop\n        /* \"contracts/ObzidianWhitelist.sol\":1184:1393  function updateMemberMint(address wallet, uint256 size) public onlyOwner {... */\n      pop\n      pop\n      jump\t// out\n        /* \"@openzeppelin/contracts/access/Ownable.sol\":2081:2279  function transferOwnership(address newOwner) public virtual onlyOwner {... */\n    tag_47:\n        /* \"@openzeppelin/contracts/access/Ownable.sol\":1094:1107  _checkOwner() */\n      tag_85\n        /* \"@openzeppelin/contracts/access/Ownable.sol\":1094:1105  _checkOwner */\n      tag_57\n        /* \"@openzeppelin/contracts/access/Ownable.sol\":1094:1107  _checkOwner() */\n      jump\t// in\n    tag_85:\n        /* \"@openzeppelin/contracts/access/Ownable.sol\":2189:2190  0 */\n      0x00\n        /* \"@openzeppelin/contracts/access/Ownable.sol\":2169:2191  newOwner != address(0) */\n      0xffffffffffffffffffffffffffffffffffffffff\n      and\n        /* \"@openzeppelin/contracts/access/Ownable.sol\":2169:2177  newOwner */\n      dup2\n        /* \"@openzeppelin/contracts/access/Ownable.sol\":2169:2191  newOwner != address(0) */\n      0xffffffffffffffffffffffffffffffffffffffff\n      and\n      eq\n      iszero\n        /* \"@openzeppelin/contracts/access/Ownable.sol\":2161:2234  require(newOwner != address(0), \"Ownable: new owner is the zero address\") */\n      tag_87\n      jumpi\n      mload(0x40)\n      0x08c379a000000000000000000000000000000000000000000000000000000000\n      dup2\n      mstore\n      0x04\n      add\n      tag_88\n      swap1\n      tag_89\n      jump\t// in\n    tag_88:\n      mload(0x40)\n      dup1\n      swap2\n      sub\n      swap1\n      revert\n    tag_87:\n        /* \"@openzeppelin/contracts/access/Ownable.sol\":2244:2272  _transferOwnership(newOwner) */\n      tag_90\n        /* \"@openzeppelin/contracts/access/Ownable.sol\":2263:2271  newOwner */\n      dup2\n        /* \"@openzeppelin/contracts/access/Ownable.sol\":2244:2262  _transferOwnership */\n      tag_67\n        /* \"@openzeppelin/contracts/access/Ownable.sol\":2244:2272  _transferOwnership(newOwner) */\n      jump\t// in\n    tag_90:\n        /* \"@openzeppelin/contracts/access/Ownable.sol\":2081:2279  function transferOwnership(address newOwner) public virtual onlyOwner {... */\n      pop\n      jump\t// out\n        /* \"contracts/ObzidianWhitelist.sol\":1675:1900  function enableMember(address wallet) public onlyOwner {... */\n    tag_50:\n        /* \"@openzeppelin/contracts/access/Ownable.sol\":1094:1107  _checkOwner() */\n      tag_92\n        /* \"@openzeppelin/contracts/access/Ownable.sol\":1094:1105  _checkOwner */\n      tag_57\n        /* \"@openzeppelin/contracts/access/Ownable.sol\":1094:1107  _checkOwner() */\n      jump\t// in\n    tag_92:\n        /* \"contracts/ObzidianWhitelist.sol\":1749:1756  members */\n      0x02\n        /* \"contracts/ObzidianWhitelist.sol\":1749:1764  members[wallet] */\n      0x00\n        /* \"contracts/ObzidianWhitelist.sol\":1757:1763  wallet */\n      dup3\n        /* \"contracts/ObzidianWhitelist.sol\":1749:1764  members[wallet] */\n      0xffffffffffffffffffffffffffffffffffffffff\n      and\n      0xffffffffffffffffffffffffffffffffffffffff\n      and\n      dup2\n      mstore\n      0x20\n      add\n      swap1\n      dup2\n      mstore\n      0x20\n      add\n      0x00\n      keccak256\n        /* \"contracts/ObzidianWhitelist.sol\":1749:1771  members[wallet].active */\n      0x00\n      add\n      0x00\n      swap1\n      sload\n      swap1\n      0x0100\n      exp\n      swap1\n      div\n      0xff\n      and\n        /* \"contracts/ObzidianWhitelist.sol\":1748:1771  !members[wallet].active */\n      iszero\n        /* \"contracts/ObzidianWhitelist.sol\":1740:1820  require(!members[wallet].active, \"This wallet is not disabled in the whitelist\") */\n      tag_94\n      jumpi\n      mload(0x40)\n      0x08c379a000000000000000000000000000000000000000000000000000000000\n      dup2\n      mstore\n      0x04\n      add\n      tag_95\n      swap1\n      tag_96\n      jump\t// in\n    tag_95:\n      mload(0x40)\n      dup1\n      swap2\n      sub\n      swap1\n      revert\n    tag_94:\n        /* \"contracts/ObzidianWhitelist.sol\":1855:1859  true */\n      0x01\n        /* \"contracts/ObzidianWhitelist.sol\":1830:1837  members */\n      0x02\n        /* \"contracts/ObzidianWhitelist.sol\":1830:1845  members[wallet] */\n      0x00\n        /* \"contracts/ObzidianWhitelist.sol\":1838:1844  wallet */\n      dup4\n        /* \"contracts/ObzidianWhitelist.sol\":1830:1845  members[wallet] */\n      0xffffffffffffffffffffffffffffffffffffffff\n      and\n      0xffffffffffffffffffffffffffffffffffffffff\n      and\n      dup2\n      mstore\n      0x20\n      add\n      swap1\n      dup2\n      mstore\n      0x20\n      add\n      0x00\n      keccak256\n        /* \"contracts/ObzidianWhitelist.sol\":1830:1852  members[wallet].active */\n      0x00\n      add\n      0x00\n        /* \"contracts/ObzidianWhitelist.sol\":1830:1859  members[wallet].active = true */\n      0x0100\n      exp\n      dup2\n      sload\n      dup2\n      0xff\n      mul\n      not\n      and\n      swap1\n      dup4\n      iszero\n      iszero\n      mul\n      or\n      swap1\n      sstore\n      pop\n        /* \"contracts/ObzidianWhitelist.sol\":1874:1893  MemberAdded(wallet) */\n      0xb251eb052afc73ffd02ffe85ad79990a8b3fed60d76dbc2fa2fdd7123dffd914\n        /* \"contracts/ObzidianWhitelist.sol\":1886:1892  wallet */\n      dup2\n        /* \"contracts/ObzidianWhitelist.sol\":1874:1893  MemberAdded(wallet) */\n      mload(0x40)\n      tag_97\n      swap2\n      swap1\n      tag_33\n      jump\t// in\n    tag_97:\n      mload(0x40)\n      dup1\n      swap2\n      sub\n      swap1\n      log1\n        /* \"contracts/ObzidianWhitelist.sol\":1675:1900  function enableMember(address wallet) public onlyOwner {... */\n      pop\n      jump\t// out\n        /* \"@openzeppelin/contracts/access/Ownable.sol\":1359:1489  function _checkOwner() internal view virtual {... */\n    tag_57:\n        /* \"@openzeppelin/contracts/access/Ownable.sol\":1433:1445  _msgSender() */\n      tag_99\n        /* \"@openzeppelin/contracts/access/Ownable.sol\":1433:1443  _msgSender */\n      tag_100\n        /* \"@openzeppelin/contracts/access/Ownable.sol\":1433:1445  _msgSender() */\n      jump\t// in\n    tag_99:\n        /* \"@openzeppelin/contracts/access/Ownable.sol\":1422:1445  owner() == _msgSender() */\n      0xffffffffffffffffffffffffffffffffffffffff\n      and\n        /* \"@openzeppelin/contracts/access/Ownable.sol\":1422:1429  owner() */\n      tag_101\n        /* \"@openzeppelin/contracts/access/Ownable.sol\":1422:1427  owner */\n      tag_31\n        /* \"@openzeppelin/contracts/access/Ownable.sol\":1422:1429  owner() */\n      jump\t// in\n    tag_101:\n        /* \"@openzeppelin/contracts/access/Ownable.sol\":1422:1445  owner() == _msgSender() */\n      0xffffffffffffffffffffffffffffffffffffffff\n      and\n      eq\n        /* \"@openzeppelin/contracts/access/Ownable.sol\":1414:1482  require(owner() == _msgSender(), \"Ownable: caller is not the owner\") */\n      tag_102\n      jumpi\n      mload(0x40)\n      0x08c379a000000000000000000000000000000000000000000000000000000000\n      dup2\n      mstore\n      0x04\n      add\n      tag_103\n      swap1\n      tag_104\n      jump\t// in\n    tag_103:\n      mload(0x40)\n      dup1\n      swap2\n      sub\n      swap1\n      revert\n    tag_102:\n        /* \"@openzeppelin/contracts/access/Ownable.sol\":1359:1489  function _checkOwner() internal view virtual {... */\n      jump\t// out\n        /* \"@openzeppelin/contracts/access/Ownable.sol\":2433:2620  function _transferOwnership(address newOwner) internal virtual {... */\n    tag_67:\n        /* \"@openzeppelin/contracts/access/Ownable.sol\":2506:2522  address oldOwner */\n      0x00\n        /* \"@openzeppelin/contracts/access/Ownable.sol\":2525:2531  _owner */\n      dup1\n      0x00\n      swap1\n      sload\n      swap1\n      0x0100\n      exp\n      swap1\n      div\n      0xffffffffffffffffffffffffffffffffffffffff\n      and\n        /* \"@openzeppelin/contracts/access/Ownable.sol\":2506:2531  address oldOwner = _owner */\n      swap1\n      pop\n        /* \"@openzeppelin/contracts/access/Ownable.sol\":2550:2558  newOwner */\n      dup2\n        /* \"@openzeppelin/contracts/access/Ownable.sol\":2541:2547  _owner */\n      0x00\n      dup1\n        /* \"@openzeppelin/contracts/access/Ownable.sol\":2541:2558  _owner = newOwner */\n      0x0100\n      exp\n      dup2\n      sload\n      dup2\n      0xffffffffffffffffffffffffffffffffffffffff\n      mul\n      not\n      and\n      swap1\n      dup4\n      0xffffffffffffffffffffffffffffffffffffffff\n      and\n      mul\n      or\n      swap1\n      sstore\n      pop\n        /* \"@openzeppelin/contracts/access/Ownable.sol\":2604:2612  newOwner */\n      dup2\n        /* \"@openzeppelin/contracts/access/Ownable.sol\":2573:2613  OwnershipTransferred(oldOwner, newOwner) */\n      0xffffffffffffffffffffffffffffffffffffffff\n      and\n        /* \"@openzeppelin/contracts/access/Ownable.sol\":2594:2602  oldOwner */\n      dup2\n        /* \"@openzeppelin/contracts/access/Ownable.sol\":2573:2613  OwnershipTransferred(oldOwner, newOwner) */\n      0xffffffffffffffffffffffffffffffffffffffff\n      and\n      0x8be0079c531659141344cd1fd0a4f28419497f9722a3daafe3b4186f6b6457e0\n      mload(0x40)\n      mload(0x40)\n      dup1\n      swap2\n      sub\n      swap1\n      log3\n        /* \"@openzeppelin/contracts/access/Ownable.sol\":2496:2620  {... */\n      pop\n        /* \"@openzeppelin/contracts/access/Ownable.sol\":2433:2620  function _transferOwnership(address newOwner) internal virtual {... */\n      pop\n      jump\t// out\n        /* \"@openzeppelin/contracts/utils/Context.sol\":640:736  function _msgSender() internal view virtual returns (address) {... */\n    tag_100:\n        /* \"@openzeppelin/contracts/utils/Context.sol\":693:700  address */\n      0x00\n        /* \"@openzeppelin/contracts/utils/Context.sol\":719:729  msg.sender */\n      caller\n        /* \"@openzeppelin/contracts/utils/Context.sol\":712:729  return msg.sender */\n      swap1\n      pop\n        /* \"@openzeppelin/contracts/utils/Context.sol\":640:736  function _msgSender() internal view virtual returns (address) {... */\n      swap1\n      jump\t// out\n    tag_53:\n      mload(0x40)\n      dup1\n      0x60\n      add\n      0x40\n      mstore\n      dup1\n      iszero(iszero(0x00))\n      dup2\n      mstore\n      0x20\n      add\n      and(0xffffffffffffffffffffffffffffffffffffffff, 0x00)\n      dup2\n      mstore\n      0x20\n      add\n      0x00\n      dup2\n      mstore\n      pop\n      swap1\n      jump\t// out\n        /* \"#utility.yul\":7:146   */\n    tag_108:\n        /* \"#utility.yul\":53:58   */\n      0x00\n        /* \"#utility.yul\":91:97   */\n      dup2\n        /* \"#utility.yul\":78:98   */\n      calldataload\n        /* \"#utility.yul\":69:98   */\n      swap1\n      pop\n        /* \"#utility.yul\":107:140   */\n      tag_110\n        /* \"#utility.yul\":134:139   */\n      dup2\n        /* \"#utility.yul\":107:140   */\n      tag_111\n      jump\t// in\n    tag_110:\n        /* \"#utility.yul\":7:146   */\n      swap3\n      swap2\n      pop\n      pop\n      jump\t// out\n        /* \"#utility.yul\":152:291   */\n    tag_112:\n        /* \"#utility.yul\":198:203   */\n      0x00\n        /* \"#utility.yul\":236:242   */\n      dup2\n        /* \"#utility.yul\":223:243   */\n      calldataload\n        /* \"#utility.yul\":214:243   */\n      swap1\n      pop\n        /* \"#utility.yul\":252:285   */\n      tag_114\n        /* \"#utility.yul\":279:284   */\n      dup2\n        /* \"#utility.yul\":252:285   */\n      tag_115\n      jump\t// in\n    tag_114:\n        /* \"#utility.yul\":152:291   */\n      swap3\n      swap2\n      pop\n      pop\n      jump\t// out\n        /* \"#utility.yul\":297:626   */\n    tag_16:\n        /* \"#utility.yul\":356:362   */\n      0x00\n        /* \"#utility.yul\":405:407   */\n      0x20\n        /* \"#utility.yul\":393:402   */\n      dup3\n        /* \"#utility.yul\":384:391   */\n      dup5\n        /* \"#utility.yul\":380:403   */\n      sub\n        /* \"#utility.yul\":376:408   */\n      slt\n        /* \"#utility.yul\":373:492   */\n      iszero\n      tag_117\n      jumpi\n        /* \"#utility.yul\":411:490   */\n      tag_118\n      tag_119\n      jump\t// in\n    tag_118:\n        /* \"#utility.yul\":373:492   */\n    tag_117:\n        /* \"#utility.yul\":531:532   */\n      0x00\n        /* \"#utility.yul\":556:609   */\n      tag_120\n        /* \"#utility.yul\":601:608   */\n      dup5\n        /* \"#utility.yul\":592:598   */\n      dup3\n        /* \"#utility.yul\":581:590   */\n      dup6\n        /* \"#utility.yul\":577:599   */\n      add\n        /* \"#utility.yul\":556:609   */\n      tag_108\n      jump\t// in\n    tag_120:\n        /* \"#utility.yul\":546:609   */\n      swap2\n      pop\n        /* \"#utility.yul\":502:619   */\n      pop\n        /* \"#utility.yul\":297:626   */\n      swap3\n      swap2\n      pop\n      pop\n      jump\t// out\n        /* \"#utility.yul\":632:1106   */\n    tag_43:\n        /* \"#utility.yul\":700:706   */\n      0x00\n        /* \"#utility.yul\":708:714   */\n      dup1\n        /* \"#utility.yul\":757:759   */\n      0x40\n        /* \"#utility.yul\":745:754   */\n      dup4\n        /* \"#utility.yul\":736:743   */\n      dup6\n        /* \"#utility.yul\":732:755   */\n      sub\n        /* \"#utility.yul\":728:760   */\n      slt\n        /* \"#utility.yul\":725:844   */\n      iszero\n      tag_122\n      jumpi\n        /* \"#utility.yul\":763:842   */\n      tag_123\n      tag_119\n      jump\t// in\n    tag_123:\n        /* \"#utility.yul\":725:844   */\n    tag_122:\n        /* \"#utility.yul\":883:884   */\n      0x00\n        /* \"#utility.yul\":908:961   */\n      tag_124\n        /* \"#utility.yul\":953:960   */\n      dup6\n        /* \"#utility.yul\":944:950   */\n      dup3\n        /* \"#utility.yul\":933:942   */\n      dup7\n        /* \"#utility.yul\":929:951   */\n      add\n        /* \"#utility.yul\":908:961   */\n      tag_108\n      jump\t// in\n    tag_124:\n        /* \"#utility.yul\":898:961   */\n      swap3\n      pop\n        /* \"#utility.yul\":854:971   */\n      pop\n        /* \"#utility.yul\":1010:1012   */\n      0x20\n        /* \"#utility.yul\":1036:1089   */\n      tag_125\n        /* \"#utility.yul\":1081:1088   */\n      dup6\n        /* \"#utility.yul\":1072:1078   */\n      dup3\n        /* \"#utility.yul\":1061:1070   */\n      dup7\n        /* \"#utility.yul\":1057:1079   */\n      add\n        /* \"#utility.yul\":1036:1089   */\n      tag_112\n      jump\t// in\n    tag_125:\n        /* \"#utility.yul\":1026:1089   */\n      swap2\n      pop\n        /* \"#utility.yul\":981:1099   */\n      pop\n        /* \"#utility.yul\":632:1106   */\n      swap3\n      pop\n      swap3\n      swap1\n      pop\n      jump\t// out\n        /* \"#utility.yul\":1112:1220   */\n    tag_126:\n        /* \"#utility.yul\":1189:1213   */\n      tag_128\n        /* \"#utility.yul\":1207:1212   */\n      dup2\n        /* \"#utility.yul\":1189:1213   */\n      tag_129\n      jump\t// in\n    tag_128:\n        /* \"#utility.yul\":1184:1187   */\n      dup3\n        /* \"#utility.yul\":1177:1214   */\n      mstore\n        /* \"#utility.yul\":1112:1220   */\n      pop\n      pop\n      jump\t// out\n        /* \"#utility.yul\":1226:1344   */\n    tag_130:\n        /* \"#utility.yul\":1313:1337   */\n      tag_132\n        /* \"#utility.yul\":1331:1336   */\n      dup2\n        /* \"#utility.yul\":1313:1337   */\n      tag_129\n      jump\t// in\n    tag_132:\n        /* \"#utility.yul\":1308:1311   */\n      dup3\n        /* \"#utility.yul\":1301:1338   */\n      mstore\n        /* \"#utility.yul\":1226:1344   */\n      pop\n      pop\n      jump\t// out\n        /* \"#utility.yul\":1350:1449   */\n    tag_133:\n        /* \"#utility.yul\":1421:1442   */\n      tag_135\n        /* \"#utility.yul\":1436:1441   */\n      dup2\n        /* \"#utility.yul\":1421:1442   */\n      tag_136\n      jump\t// in\n    tag_135:\n        /* \"#utility.yul\":1416:1419   */\n      dup3\n        /* \"#utility.yul\":1409:1443   */\n      mstore\n        /* \"#utility.yul\":1350:1449   */\n      pop\n      pop\n      jump\t// out\n        /* \"#utility.yul\":1455:1564   */\n    tag_137:\n        /* \"#utility.yul\":1536:1557   */\n      tag_139\n        /* \"#utility.yul\":1551:1556   */\n      dup2\n        /* \"#utility.yul\":1536:1557   */\n      tag_136\n      jump\t// in\n    tag_139:\n        /* \"#utility.yul\":1531:1534   */\n      dup3\n        /* \"#utility.yul\":1524:1558   */\n      mstore\n        /* \"#utility.yul\":1455:1564   */\n      pop\n      pop\n      jump\t// out\n        /* \"#utility.yul\":1570:1936   */\n    tag_140:\n        /* \"#utility.yul\":1712:1715   */\n      0x00\n        /* \"#utility.yul\":1733:1800   */\n      tag_142\n        /* \"#utility.yul\":1797:1799   */\n      0x2b\n        /* \"#utility.yul\":1792:1795   */\n      dup4\n        /* \"#utility.yul\":1733:1800   */\n      tag_143\n      jump\t// in\n    tag_142:\n        /* \"#utility.yul\":1726:1800   */\n      swap2\n      pop\n        /* \"#utility.yul\":1809:1902   */\n      tag_144\n        /* \"#utility.yul\":1898:1901   */\n      dup3\n        /* \"#utility.yul\":1809:1902   */\n      tag_145\n      jump\t// in\n    tag_144:\n        /* \"#utility.yul\":1927:1929   */\n      0x40\n        /* \"#utility.yul\":1922:1925   */\n      dup3\n        /* \"#utility.yul\":1918:1930   */\n      add\n        /* \"#utility.yul\":1911:1930   */\n      swap1\n      pop\n        /* \"#utility.yul\":1570:1936   */\n      swap2\n      swap1\n      pop\n      jump\t// out\n        /* \"#utility.yul\":1942:2308   */\n    tag_146:\n        /* \"#utility.yul\":2084:2087   */\n      0x00\n        /* \"#utility.yul\":2105:2172   */\n      tag_148\n        /* \"#utility.yul\":2169:2171   */\n      0x26\n        /* \"#utility.yul\":2164:2167   */\n      dup4\n        /* \"#utility.yul\":2105:2172   */\n      tag_143\n      jump\t// in\n    tag_148:\n        /* \"#utility.yul\":2098:2172   */\n      swap2\n      pop\n        /* \"#utility.yul\":2181:2274   */\n      tag_149\n        /* \"#utility.yul\":2270:2273   */\n      dup3\n        /* \"#utility.yul\":2181:2274   */\n      tag_150\n      jump\t// in\n    tag_149:\n        /* \"#utility.yul\":2299:2301   */\n      0x40\n        /* \"#utility.yul\":2294:2297   */\n      dup3\n        /* \"#utility.yul\":2290:2302   */\n      add\n        /* \"#utility.yul\":2283:2302   */\n      swap1\n      pop\n        /* \"#utility.yul\":1942:2308   */\n      swap2\n      swap1\n      pop\n      jump\t// out\n        /* \"#utility.yul\":2314:2680   */\n    tag_151:\n        /* \"#utility.yul\":2456:2459   */\n      0x00\n        /* \"#utility.yul\":2477:2544   */\n      tag_153\n        /* \"#utility.yul\":2541:2543   */\n      0x20\n        /* \"#utility.yul\":2536:2539   */\n      dup4\n        /* \"#utility.yul\":2477:2544   */\n      tag_143\n      jump\t// in\n    tag_153:\n        /* \"#utility.yul\":2470:2544   */\n      swap2\n      pop\n        /* \"#utility.yul\":2553:2646   */\n      tag_154\n        /* \"#utility.yul\":2642:2645   */\n      dup3\n        /* \"#utility.yul\":2553:2646   */\n      tag_155\n      jump\t// in\n    tag_154:\n        /* \"#utility.yul\":2671:2673   */\n      0x20\n        /* \"#utility.yul\":2666:2669   */\n      dup3\n        /* \"#utility.yul\":2662:2674   */\n      add\n        /* \"#utility.yul\":2655:2674   */\n      swap1\n      pop\n        /* \"#utility.yul\":2314:2680   */\n      swap2\n      swap1\n      pop\n      jump\t// out\n        /* \"#utility.yul\":2686:3052   */\n    tag_156:\n        /* \"#utility.yul\":2828:2831   */\n      0x00\n        /* \"#utility.yul\":2849:2916   */\n      tag_158\n        /* \"#utility.yul\":2913:2915   */\n      0x2a\n        /* \"#utility.yul\":2908:2911   */\n      dup4\n        /* \"#utility.yul\":2849:2916   */\n      tag_143\n      jump\t// in\n    tag_158:\n        /* \"#utility.yul\":2842:2916   */\n      swap2\n      pop\n        /* \"#utility.yul\":2925:3018   */\n      tag_159\n        /* \"#utility.yul\":3014:3017   */\n      dup3\n        /* \"#utility.yul\":2925:3018   */\n      tag_160\n      jump\t// in\n    tag_159:\n        /* \"#utility.yul\":3043:3045   */\n      0x40\n        /* \"#utility.yul\":3038:3041   */\n      dup3\n        /* \"#utility.yul\":3034:3046   */\n      add\n        /* \"#utility.yul\":3027:3046   */\n      swap1\n      pop\n        /* \"#utility.yul\":2686:3052   */\n      swap2\n      swap1\n      pop\n      jump\t// out\n        /* \"#utility.yul\":3058:3424   */\n    tag_161:\n        /* \"#utility.yul\":3200:3203   */\n      0x00\n        /* \"#utility.yul\":3221:3288   */\n      tag_163\n        /* \"#utility.yul\":3285:3287   */\n      0x2c\n        /* \"#utility.yul\":3280:3283   */\n      dup4\n        /* \"#utility.yul\":3221:3288   */\n      tag_143\n      jump\t// in\n    tag_163:\n        /* \"#utility.yul\":3214:3288   */\n      swap2\n      pop\n        /* \"#utility.yul\":3297:3390   */\n      tag_164\n        /* \"#utility.yul\":3386:3389   */\n      dup3\n        /* \"#utility.yul\":3297:3390   */\n      tag_165\n      jump\t// in\n    tag_164:\n        /* \"#utility.yul\":3415:3417   */\n      0x40\n        /* \"#utility.yul\":3410:3413   */\n      dup3\n        /* \"#utility.yul\":3406:3418   */\n      add\n        /* \"#utility.yul\":3399:3418   */\n      swap1\n      pop\n        /* \"#utility.yul\":3058:3424   */\n      swap2\n      swap1\n      pop\n      jump\t// out\n        /* \"#utility.yul\":3504:4184   */\n    tag_166:\n        /* \"#utility.yul\":3647:3651   */\n      0x60\n        /* \"#utility.yul\":3642:3645   */\n      dup3\n        /* \"#utility.yul\":3638:3652   */\n      add\n        /* \"#utility.yul\":3736:3740   */\n      0x00\n        /* \"#utility.yul\":3729:3734   */\n      dup3\n        /* \"#utility.yul\":3725:3741   */\n      add\n        /* \"#utility.yul\":3719:3742   */\n      mload\n        /* \"#utility.yul\":3755:3812   */\n      tag_168\n        /* \"#utility.yul\":3806:3810   */\n      0x00\n        /* \"#utility.yul\":3801:3804   */\n      dup6\n        /* \"#utility.yul\":3797:3811   */\n      add\n        /* \"#utility.yul\":3783:3795   */\n      dup3\n        /* \"#utility.yul\":3755:3812   */\n      tag_133\n      jump\t// in\n    tag_168:\n        /* \"#utility.yul\":3662:3822   */\n      pop\n        /* \"#utility.yul\":3906:3910   */\n      0x20\n        /* \"#utility.yul\":3899:3904   */\n      dup3\n        /* \"#utility.yul\":3895:3911   */\n      add\n        /* \"#utility.yul\":3889:3912   */\n      mload\n        /* \"#utility.yul\":3925:3988   */\n      tag_169\n        /* \"#utility.yul\":3982:3986   */\n      0x20\n        /* \"#utility.yul\":3977:3980   */\n      dup6\n        /* \"#utility.yul\":3973:3987   */\n      add\n        /* \"#utility.yul\":3959:3971   */\n      dup3\n        /* \"#utility.yul\":3925:3988   */\n      tag_126\n      jump\t// in\n    tag_169:\n        /* \"#utility.yul\":3832:3998   */\n      pop\n        /* \"#utility.yul\":4085:4089   */\n      0x40\n        /* \"#utility.yul\":4078:4083   */\n      dup3\n        /* \"#utility.yul\":4074:4090   */\n      add\n        /* \"#utility.yul\":4068:4091   */\n      mload\n        /* \"#utility.yul\":4104:4167   */\n      tag_170\n        /* \"#utility.yul\":4161:4165   */\n      0x40\n        /* \"#utility.yul\":4156:4159   */\n      dup6\n        /* \"#utility.yul\":4152:4166   */\n      add\n        /* \"#utility.yul\":4138:4150   */\n      dup3\n        /* \"#utility.yul\":4104:4167   */\n      tag_171\n      jump\t// in\n    tag_170:\n        /* \"#utility.yul\":4008:4177   */\n      pop\n        /* \"#utility.yul\":3616:4184   */\n      pop\n        /* \"#utility.yul\":3504:4184   */\n      pop\n      pop\n      jump\t// out\n        /* \"#utility.yul\":4190:4298   */\n    tag_171:\n        /* \"#utility.yul\":4267:4291   */\n      tag_173\n        /* \"#utility.yul\":4285:4290   */\n      dup2\n        /* \"#utility.yul\":4267:4291   */\n      tag_174\n      jump\t// in\n    tag_173:\n        /* \"#utility.yul\":4262:4265   */\n      dup3\n        /* \"#utility.yul\":4255:4292   */\n      mstore\n        /* \"#utility.yul\":4190:4298   */\n      pop\n      pop\n      jump\t// out\n        /* \"#utility.yul\":4304:4422   */\n    tag_175:\n        /* \"#utility.yul\":4391:4415   */\n      tag_177\n        /* \"#utility.yul\":4409:4414   */\n      dup2\n        /* \"#utility.yul\":4391:4415   */\n      tag_174\n      jump\t// in\n    tag_177:\n        /* \"#utility.yul\":4386:4389   */\n      dup3\n        /* \"#utility.yul\":4379:4416   */\n      mstore\n        /* \"#utility.yul\":4304:4422   */\n      pop\n      pop\n      jump\t// out\n        /* \"#utility.yul\":4428:4650   */\n    tag_33:\n        /* \"#utility.yul\":4521:4525   */\n      0x00\n        /* \"#utility.yul\":4559:4561   */\n      0x20\n        /* \"#utility.yul\":4548:4557   */\n      dup3\n        /* \"#utility.yul\":4544:4562   */\n      add\n        /* \"#utility.yul\":4536:4562   */\n      swap1\n      pop\n        /* \"#utility.yul\":4572:4643   */\n      tag_179\n        /* \"#utility.yul\":4640:4641   */\n      0x00\n        /* \"#utility.yul\":4629:4638   */\n      dup4\n        /* \"#utility.yul\":4625:4642   */\n      add\n        /* \"#utility.yul\":4616:4622   */\n      dup5\n        /* \"#utility.yul\":4572:4643   */\n      tag_130\n      jump\t// in\n    tag_179:\n        /* \"#utility.yul\":4428:4650   */\n      swap3\n      swap2\n      pop\n      pop\n      jump\t// out\n        /* \"#utility.yul\":4656:4866   */\n    tag_19:\n        /* \"#utility.yul\":4743:4747   */\n      0x00\n        /* \"#utility.yul\":4781:4783   */\n      0x20\n        /* \"#utility.yul\":4770:4779   */\n      dup3\n        /* \"#utility.yul\":4766:4784   */\n      add\n        /* \"#utility.yul\":4758:4784   */\n      swap1\n      pop\n        /* \"#utility.yul\":4794:4859   */\n      tag_181\n        /* \"#utility.yul\":4856:4857   */\n      0x00\n        /* \"#utility.yul\":4845:4854   */\n      dup4\n        /* \"#utility.yul\":4841:4858   */\n      add\n        /* \"#utility.yul\":4832:4838   */\n      dup5\n        /* \"#utility.yul\":4794:4859   */\n      tag_137\n      jump\t// in\n    tag_181:\n        /* \"#utility.yul\":4656:4866   */\n      swap3\n      swap2\n      pop\n      pop\n      jump\t// out\n        /* \"#utility.yul\":4872:5291   */\n    tag_75:\n        /* \"#utility.yul\":5038:5042   */\n      0x00\n        /* \"#utility.yul\":5076:5078   */\n      0x20\n        /* \"#utility.yul\":5065:5074   */\n      dup3\n        /* \"#utility.yul\":5061:5079   */\n      add\n        /* \"#utility.yul\":5053:5079   */\n      swap1\n      pop\n        /* \"#utility.yul\":5125:5134   */\n      dup2\n        /* \"#utility.yul\":5119:5123   */\n      dup2\n        /* \"#utility.yul\":5115:5135   */\n      sub\n        /* \"#utility.yul\":5111:5112   */\n      0x00\n        /* \"#utility.yul\":5100:5109   */\n      dup4\n        /* \"#utility.yul\":5096:5113   */\n      add\n        /* \"#utility.yul\":5089:5136   */\n      mstore\n        /* \"#utility.yul\":5153:5284   */\n      tag_183\n        /* \"#utility.yul\":5279:5283   */\n      dup2\n        /* \"#utility.yul\":5153:5284   */\n      tag_140\n      jump\t// in\n    tag_183:\n        /* \"#utility.yul\":5145:5284   */\n      swap1\n      pop\n        /* \"#utility.yul\":4872:5291   */\n      swap2\n      swap1\n      pop\n      jump\t// out\n        /* \"#utility.yul\":5297:5716   */\n    tag_89:\n        /* \"#utility.yul\":5463:5467   */\n      0x00\n        /* \"#utility.yul\":5501:5503   */\n      0x20\n        /* \"#utility.yul\":5490:5499   */\n      dup3\n        /* \"#utility.yul\":5486:5504   */\n      add\n        /* \"#utility.yul\":5478:5504   */\n      swap1\n      pop\n        /* \"#utility.yul\":5550:5559   */\n      dup2\n        /* \"#utility.yul\":5544:5548   */\n      dup2\n        /* \"#utility.yul\":5540:5560   */\n      sub\n        /* \"#utility.yul\":5536:5537   */\n      0x00\n        /* \"#utility.yul\":5525:5534   */\n      dup4\n        /* \"#utility.yul\":5521:5538   */\n      add\n        /* \"#utility.yul\":5514:5561   */\n      mstore\n        /* \"#utility.yul\":5578:5709   */\n      tag_185\n        /* \"#utility.yul\":5704:5708   */\n      dup2\n        /* \"#utility.yul\":5578:5709   */\n      tag_146\n      jump\t// in\n    tag_185:\n        /* \"#utility.yul\":5570:5709   */\n      swap1\n      pop\n        /* \"#utility.yul\":5297:5716   */\n      swap2\n      swap1\n      pop\n      jump\t// out\n        /* \"#utility.yul\":5722:6141   */\n    tag_104:\n        /* \"#utility.yul\":5888:5892   */\n      0x00\n        /* \"#utility.yul\":5926:5928   */\n      0x20\n        /* \"#utility.yul\":5915:5924   */\n      dup3\n        /* \"#utility.yul\":5911:5929   */\n      add\n        /* \"#utility.yul\":5903:5929   */\n      swap1\n      pop\n        /* \"#utility.yul\":5975:5984   */\n      dup2\n        /* \"#utility.yul\":5969:5973   */\n      dup2\n        /* \"#utility.yul\":5965:5985   */\n      sub\n        /* \"#utility.yul\":5961:5962   */\n      0x00\n        /* \"#utility.yul\":5950:5959   */\n      dup4\n        /* \"#utility.yul\":5946:5963   */\n      add\n        /* \"#utility.yul\":5939:5986   */\n      mstore\n        /* \"#utility.yul\":6003:6134   */\n      tag_187\n        /* \"#utility.yul\":6129:6133   */\n      dup2\n        /* \"#utility.yul\":6003:6134   */\n      tag_151\n      jump\t// in\n    tag_187:\n        /* \"#utility.yul\":5995:6134   */\n      swap1\n      pop\n        /* \"#utility.yul\":5722:6141   */\n      swap2\n      swap1\n      pop\n      jump\t// out\n        /* \"#utility.yul\":6147:6566   */\n    tag_61:\n        /* \"#utility.yul\":6313:6317   */\n      0x00\n        /* \"#utility.yul\":6351:6353   */\n      0x20\n        /* \"#utility.yul\":6340:6349   */\n      dup3\n        /* \"#utility.yul\":6336:6354   */\n      add\n        /* \"#utility.yul\":6328:6354   */\n      swap1\n      pop\n        /* \"#utility.yul\":6400:6409   */\n      dup2\n        /* \"#utility.yul\":6394:6398   */\n      dup2\n        /* \"#utility.yul\":6390:6410   */\n      sub\n        /* \"#utility.yul\":6386:6387   */\n      0x00\n        /* \"#utility.yul\":6375:6384   */\n      dup4\n        /* \"#utility.yul\":6371:6388   */\n      add\n        /* \"#utility.yul\":6364:6411   */\n      mstore\n        /* \"#utility.yul\":6428:6559   */\n      tag_189\n        /* \"#utility.yul\":6554:6558   */\n      dup2\n        /* \"#utility.yul\":6428:6559   */\n      tag_156\n      jump\t// in\n    tag_189:\n        /* \"#utility.yul\":6420:6559   */\n      swap1\n      pop\n        /* \"#utility.yul\":6147:6566   */\n      swap2\n      swap1\n      pop\n      jump\t// out\n        /* \"#utility.yul\":6572:6991   */\n    tag_96:\n        /* \"#utility.yul\":6738:6742   */\n      0x00\n        /* \"#utility.yul\":6776:6778   */\n      0x20\n        /* \"#utility.yul\":6765:6774   */\n      dup3\n        /* \"#utility.yul\":6761:6779   */\n      add\n        /* \"#utility.yul\":6753:6779   */\n      swap1\n      pop\n        /* \"#utility.yul\":6825:6834   */\n      dup2\n        /* \"#utility.yul\":6819:6823   */\n      dup2\n        /* \"#utility.yul\":6815:6835   */\n      sub\n        /* \"#utility.yul\":6811:6812   */\n      0x00\n        /* \"#utility.yul\":6800:6809   */\n      dup4\n        /* \"#utility.yul\":6796:6813   */\n      add\n        /* \"#utility.yul\":6789:6836   */\n      mstore\n        /* \"#utility.yul\":6853:6984   */\n      tag_191\n        /* \"#utility.yul\":6979:6983   */\n      dup2\n        /* \"#utility.yul\":6853:6984   */\n      tag_161\n      jump\t// in\n    tag_191:\n        /* \"#utility.yul\":6845:6984   */\n      swap1\n      pop\n        /* \"#utility.yul\":6572:6991   */\n      swap2\n      swap1\n      pop\n      jump\t// out\n        /* \"#utility.yul\":6997:7311   */\n    tag_24:\n        /* \"#utility.yul\":7136:7140   */\n      0x00\n        /* \"#utility.yul\":7174:7176   */\n      0x60\n        /* \"#utility.yul\":7163:7172   */\n      dup3\n        /* \"#utility.yul\":7159:7177   */\n      add\n        /* \"#utility.yul\":7151:7177   */\n      swap1\n      pop\n        /* \"#utility.yul\":7187:7304   */\n      tag_193\n        /* \"#utility.yul\":7301:7302   */\n      0x00\n        /* \"#utility.yul\":7290:7299   */\n      dup4\n        /* \"#utility.yul\":7286:7303   */\n      add\n        /* \"#utility.yul\":7277:7283   */\n      dup5\n        /* \"#utility.yul\":7187:7304   */\n      tag_166\n      jump\t// in\n    tag_193:\n        /* \"#utility.yul\":6997:7311   */\n      swap3\n      swap2\n      pop\n      pop\n      jump\t// out\n        /* \"#utility.yul\":7317:7539   */\n    tag_37:\n        /* \"#utility.yul\":7410:7414   */\n      0x00\n        /* \"#utility.yul\":7448:7450   */\n      0x20\n        /* \"#utility.yul\":7437:7446   */\n      dup3\n        /* \"#utility.yul\":7433:7451   */\n      add\n        /* \"#utility.yul\":7425:7451   */\n      swap1\n      pop\n        /* \"#utility.yul\":7461:7532   */\n      tag_195\n        /* \"#utility.yul\":7529:7530   */\n      0x00\n        /* \"#utility.yul\":7518:7527   */\n      dup4\n        /* \"#utility.yul\":7514:7531   */\n      add\n        /* \"#utility.yul\":7505:7511   */\n      dup5\n        /* \"#utility.yul\":7461:7532   */\n      tag_175\n      jump\t// in\n    tag_195:\n        /* \"#utility.yul\":7317:7539   */\n      swap3\n      swap2\n      pop\n      pop\n      jump\t// out\n        /* \"#utility.yul\":7626:7795   */\n    tag_143:\n        /* \"#utility.yul\":7710:7721   */\n      0x00\n        /* \"#utility.yul\":7744:7750   */\n      dup3\n        /* \"#utility.yul\":7739:7742   */\n      dup3\n        /* \"#utility.yul\":7732:7751   */\n      mstore\n        /* \"#utility.yul\":7784:7788   */\n      0x20\n        /* \"#utility.yul\":7779:7782   */\n      dup3\n        /* \"#utility.yul\":7775:7789   */\n      add\n        /* \"#utility.yul\":7760:7789   */\n      swap1\n      pop\n        /* \"#utility.yul\":7626:7795   */\n      swap3\n      swap2\n      pop\n      pop\n      jump\t// out\n        /* \"#utility.yul\":7801:7897   */\n    tag_129:\n        /* \"#utility.yul\":7838:7845   */\n      0x00\n        /* \"#utility.yul\":7867:7891   */\n      tag_200\n        /* \"#utility.yul\":7885:7890   */\n      dup3\n        /* \"#utility.yul\":7867:7891   */\n      tag_201\n      jump\t// in\n    tag_200:\n        /* \"#utility.yul\":7856:7891   */\n      swap1\n      pop\n        /* \"#utility.yul\":7801:7897   */\n      swap2\n      swap1\n      pop\n      jump\t// out\n        /* \"#utility.yul\":7903:7993   */\n    tag_136:\n        /* \"#utility.yul\":7937:7944   */\n      0x00\n        /* \"#utility.yul\":7980:7985   */\n      dup2\n        /* \"#utility.yul\":7973:7986   */\n      iszero\n        /* \"#utility.yul\":7966:7987   */\n      iszero\n        /* \"#utility.yul\":7955:7987   */\n      swap1\n      pop\n        /* \"#utility.yul\":7903:7993   */\n      swap2\n      swap1\n      pop\n      jump\t// out\n        /* \"#utility.yul\":7999:8125   */\n    tag_201:\n        /* \"#utility.yul\":8036:8043   */\n      0x00\n        /* \"#utility.yul\":8076:8118   */\n      0xffffffffffffffffffffffffffffffffffffffff\n        /* \"#utility.yul\":8069:8074   */\n      dup3\n        /* \"#utility.yul\":8065:8119   */\n      and\n        /* \"#utility.yul\":8054:8119   */\n      swap1\n      pop\n        /* \"#utility.yul\":7999:8125   */\n      swap2\n      swap1\n      pop\n      jump\t// out\n        /* \"#utility.yul\":8131:8208   */\n    tag_174:\n        /* \"#utility.yul\":8168:8175   */\n      0x00\n        /* \"#utility.yul\":8197:8202   */\n      dup2\n        /* \"#utility.yul\":8186:8202   */\n      swap1\n      pop\n        /* \"#utility.yul\":8131:8208   */\n      swap2\n      swap1\n      pop\n      jump\t// out\n        /* \"#utility.yul\":8214:8447   */\n    tag_77:\n        /* \"#utility.yul\":8253:8256   */\n      0x00\n        /* \"#utility.yul\":8276:8300   */\n      tag_206\n        /* \"#utility.yul\":8294:8299   */\n      dup3\n        /* \"#utility.yul\":8276:8300   */\n      tag_174\n      jump\t// in\n    tag_206:\n        /* \"#utility.yul\":8267:8300   */\n      swap2\n      pop\n        /* \"#utility.yul\":8322:8388   */\n      0xffffffffffffffffffffffffffffffffffffffffffffffffffffffffffffffff\n        /* \"#utility.yul\":8315:8320   */\n      dup3\n        /* \"#utility.yul\":8312:8389   */\n      eq\n        /* \"#utility.yul\":8309:8412   */\n      iszero\n      tag_207\n      jumpi\n        /* \"#utility.yul\":8392:8410   */\n      tag_208\n      tag_209\n      jump\t// in\n    tag_208:\n        /* \"#utility.yul\":8309:8412   */\n    tag_207:\n        /* \"#utility.yul\":8439:8440   */\n      0x01\n        /* \"#utility.yul\":8432:8437   */\n      dup3\n        /* \"#utility.yul\":8428:8441   */\n      add\n        /* \"#utility.yul\":8421:8441   */\n      swap1\n      pop\n        /* \"#utility.yul\":8214:8447   */\n      swap2\n      swap1\n      pop\n      jump\t// out\n        /* \"#utility.yul\":8453:8633   */\n    tag_209:\n        /* \"#utility.yul\":8501:8578   */\n      0x4e487b7100000000000000000000000000000000000000000000000000000000\n        /* \"#utility.yul\":8498:8499   */\n      0x00\n        /* \"#utility.yul\":8491:8579   */\n      mstore\n        /* \"#utility.yul\":8598:8602   */\n      0x11\n        /* \"#utility.yul\":8595:8596   */\n      0x04\n        /* \"#utility.yul\":8588:8603   */\n      mstore\n        /* \"#utility.yul\":8622:8626   */\n      0x24\n        /* \"#utility.yul\":8619:8620   */\n      0x00\n        /* \"#utility.yul\":8612:8627   */\n      revert\n        /* \"#utility.yul\":8762:8879   */\n    tag_119:\n        /* \"#utility.yul\":8871:8872   */\n      0x00\n        /* \"#utility.yul\":8868:8869   */\n      dup1\n        /* \"#utility.yul\":8861:8873   */\n      revert\n        /* \"#utility.yul\":8885:9115   */\n    tag_145:\n        /* \"#utility.yul\":9025:9059   */\n      0x546869732077616c6c657420616c72656164792073746f72656420696e207468\n        /* \"#utility.yul\":9021:9022   */\n      0x00\n        /* \"#utility.yul\":9013:9019   */\n      dup3\n        /* \"#utility.yul\":9009:9023   */\n      add\n        /* \"#utility.yul\":9002:9060   */\n      mstore\n        /* \"#utility.yul\":9094:9107   */\n      0x652077686974656c697374000000000000000000000000000000000000000000\n        /* \"#utility.yul\":9089:9091   */\n      0x20\n        /* \"#utility.yul\":9081:9087   */\n      dup3\n        /* \"#utility.yul\":9077:9092   */\n      add\n        /* \"#utility.yul\":9070:9108   */\n      mstore\n        /* \"#utility.yul\":8885:9115   */\n      pop\n      jump\t// out\n        /* \"#utility.yul\":9121:9346   */\n    tag_150:\n        /* \"#utility.yul\":9261:9295   */\n      0x4f776e61626c653a206e6577206f776e657220697320746865207a65726f2061\n        /* \"#utility.yul\":9257:9258   */\n      0x00\n        /* \"#utility.yul\":9249:9255   */\n      dup3\n        /* \"#utility.yul\":9245:9259   */\n      add\n        /* \"#utility.yul\":9238:9296   */\n      mstore\n        /* \"#utility.yul\":9330:9338   */\n      0x6464726573730000000000000000000000000000000000000000000000000000\n        /* \"#utility.yul\":9325:9327   */\n      0x20\n        /* \"#utility.yul\":9317:9323   */\n      dup3\n        /* \"#utility.yul\":9313:9328   */\n      add\n        /* \"#utility.yul\":9306:9339   */\n      mstore\n        /* \"#utility.yul\":9121:9346   */\n      pop\n      jump\t// out\n        /* \"#utility.yul\":9352:9534   */\n    tag_155:\n        /* \"#utility.yul\":9492:9526   */\n      0x4f776e61626c653a2063616c6c6572206973206e6f7420746865206f776e6572\n        /* \"#utility.yul\":9488:9489   */\n      0x00\n        /* \"#utility.yul\":9480:9486   */\n      dup3\n        /* \"#utility.yul\":9476:9490   */\n      add\n        /* \"#utility.yul\":9469:9527   */\n      mstore\n        /* \"#utility.yul\":9352:9534   */\n      pop\n      jump\t// out\n        /* \"#utility.yul\":9540:9769   */\n    tag_160:\n        /* \"#utility.yul\":9680:9714   */\n      0x546869732077616c6c6574206973206e6f742073746f72656420696e20746865\n        /* \"#utility.yul\":9676:9677   */\n      0x00\n        /* \"#utility.yul\":9668:9674   */\n      dup3\n        /* \"#utility.yul\":9664:9678   */\n      add\n        /* \"#utility.yul\":9657:9715   */\n      mstore\n        /* \"#utility.yul\":9749:9761   */\n      0x2077686974656c69737400000000000000000000000000000000000000000000\n        /* \"#utility.yul\":9744:9746   */\n      0x20\n        /* \"#utility.yul\":9736:9742   */\n      dup3\n        /* \"#utility.yul\":9732:9747   */\n      add\n        /* \"#utility.yul\":9725:9762   */\n      mstore\n        /* \"#utility.yul\":9540:9769   */\n      pop\n      jump\t// out\n        /* \"#utility.yul\":9775:10006   */\n    tag_165:\n        /* \"#utility.yul\":9915:9949   */\n      0x546869732077616c6c6574206973206e6f742064697361626c656420696e2074\n        /* \"#utility.yul\":9911:9912   */\n      0x00\n        /* \"#utility.yul\":9903:9909   */\n      dup3\n        /* \"#utility.yul\":9899:9913   */\n      add\n        /* \"#utility.yul\":9892:9950   */\n      mstore\n        /* \"#utility.yul\":9984:9998   */\n      0x68652077686974656c6973740000000000000000000000000000000000000000\n        /* \"#utility.yul\":9979:9981   */\n      0x20\n        /* \"#utility.yul\":9971:9977   */\n      dup3\n        /* \"#utility.yul\":9967:9982   */\n      add\n        /* \"#utility.yul\":9960:9999   */\n      mstore\n        /* \"#utility.yul\":9775:10006   */\n      pop\n      jump\t// out\n        /* \"#utility.yul\":10012:10134   */\n    tag_111:\n        /* \"#utility.yul\":10085:10109   */\n      tag_220\n        /* \"#utility.yul\":10103:10108   */\n      dup2\n        /* \"#utility.yul\":10085:10109   */\n      tag_129\n      jump\t// in\n    tag_220:\n        /* \"#utility.yul\":10078:10083   */\n      dup2\n        /* \"#utility.yul\":10075:10110   */\n      eq\n        /* \"#utility.yul\":10065:10128   */\n      tag_221\n      jumpi\n        /* \"#utility.yul\":10124:10125   */\n      0x00\n        /* \"#utility.yul\":10121:10122   */\n      dup1\n        /* \"#utility.yul\":10114:10126   */\n      revert\n        /* \"#utility.yul\":10065:10128   */\n    tag_221:\n        /* \"#utility.yul\":10012:10134   */\n      pop\n      jump\t// out\n        /* \"#utility.yul\":10140:10262   */\n    tag_115:\n        /* \"#utility.yul\":10213:10237   */\n      tag_223\n        /* \"#utility.yul\":10231:10236   */\n      dup2\n        /* \"#utility.yul\":10213:10237   */\n      tag_174\n      jump\t// in\n    tag_223:\n        /* \"#utility.yul\":10206:10211   */\n      dup2\n        /* \"#utility.yul\":10203:10238   */\n      eq\n        /* \"#utility.yul\":10193:10256   */\n      tag_224\n      jumpi\n        /* \"#utility.yul\":10252:10253   */\n      0x00\n        /* \"#utility.yul\":10249:10250   */\n      dup1\n        /* \"#utility.yul\":10242:10254   */\n      revert\n        /* \"#utility.yul\":10193:10256   */\n    tag_224:\n        /* \"#utility.yul\":10140:10262   */\n      pop\n      jump\t// out\n\n    auxdata: 0xa2646970667358221220becbdda0f25d5c727f430070dffd1c5dd43745e4b8375356063c1891e958596064736f6c63430008070033\n}\n",
				"bytecode": {
					"linkReferences": {},
					"object": "608060405234801561001057600080fd5b5061002d61002261003260201b60201c565b61003a60201b60201c565b6100fe565b600033905090565b60008060009054906101000a900473ffffffffffffffffffffffffffffffffffffffff169050816000806101000a81548173ffffffffffffffffffffffffffffffffffffffff021916908373ffffffffffffffffffffffffffffffffffffffff1602179055508173ffffffffffffffffffffffffffffffffffffffff168173ffffffffffffffffffffffffffffffffffffffff167f8be0079c531659141344cd1fd0a4f28419497f9722a3daafe3b4186f6b6457e060405160405180910390a35050565b610fea8061010d6000396000f3fe608060405234801561001057600080fd5b506004361061009e5760003560e01c80638f180305116100665780638f18030514610147578063ca6d56dc14610165578063e10eff9b14610181578063f2fde38b1461019d578063f47d2a30146101b95761009e565b8063065c24dc146100a35780632ada2596146100d35780635918ba7914610103578063715018a61461011f5780638da5cb5b14610129575b600080fd5b6100bd60048036038101906100b89190610a87565b6101d5565b6040516100ca9190610c5a565b60405180910390f35b6100ed60048036038101906100e89190610a87565b61022e565b6040516100fa9190610d15565b60405180910390f35b61011d60048036038101906101189190610a87565b610302565b005b61012761042e565b005b610131610442565b60405161013e9190610c3f565b60405180910390f35b61014f61046b565b60405161015c9190610d30565b60405180910390f35b61017f600480360381019061017a9190610a87565b610475565b005b61019b60048036038101906101969190610ab4565b610647565b005b6101b760048036038101906101b29190610a87565b610729565b005b6101d360048036038101906101ce9190610a87565b6107ad565b005b6000600260008373ffffffffffffffffffffffffffffffffffffffff1673ffffffffffffffffffffffffffffffffffffffff16815260200190815260200160002060000160009054906101000a900460ff169050919050565b610236610a24565b600260008373ffffffffffffffffffffffffffffffffffffffff1673ffffffffffffffffffffffffffffffffffffffff1681526020019081526020016000206040518060600160405290816000820160009054906101000a900460ff161515151581526020016000820160019054906101000a900473ffffffffffffffffffffffffffffffffffffffff1673ffffffffffffffffffffffffffffffffffffffff1673ffffffffffffffffffffffffffffffffffffffff1681526020016001820154815250509050919050565b61030a6108da565b600260008273ffffffffffffffffffffffffffffffffffffffff1673ffffffffffffffffffffffffffffffffffffffff16815260200190815260200160002060000160009054906101000a900460ff16610399576040517f08c379a000000000000000000000000000000000000000000000000000000000815260040161039090610cd5565b60405180910390fd5b6000600260008373ffffffffffffffffffffffffffffffffffffffff1673ffffffffffffffffffffffffffffffffffffffff16815260200190815260200160002060000160006101000a81548160ff0219169083151502179055507f6e76fb4c77256006d9c38ec7d82b45a8c8f3c27b1d6766fffc42dfb8de684492816040516104239190610c3f565b60405180910390a150565b6104366108da565b6104406000610958565b565b60008060009054906101000a900473ffffffffffffffffffffffffffffffffffffffff16905090565b6000600154905090565b61047d6108da565b600260008273ffffffffffffffffffffffffffffffffffffffff1673ffffffffffffffffffffffffffffffffffffffff16815260200190815260200160002060000160009054906101000a900460ff161561050d576040517f08c379a000000000000000000000000000000000000000000000000000000000815260040161050490610c75565b60405180910390fd5b6001600081548092919061052090610da4565b919050555060405180606001604052806001151581526020018273ffffffffffffffffffffffffffffffffffffffff1681526020016000815250600260008373ffffffffffffffffffffffffffffffffffffffff1673ffffffffffffffffffffffffffffffffffffffff16815260200190815260200160002060008201518160000160006101000a81548160ff02191690831515021790555060208201518160000160016101000a81548173ffffffffffffffffffffffffffffffffffffffff021916908373ffffffffffffffffffffffffffffffffffffffff160217905550604082015181600101559050507fb251eb052afc73ffd02ffe85ad79990a8b3fed60d76dbc2fa2fdd7123dffd9148160405161063c9190610c3f565b60405180910390a150565b61064f6108da565b600260008373ffffffffffffffffffffffffffffffffffffffff1673ffffffffffffffffffffffffffffffffffffffff16815260200190815260200160002060000160009054906101000a900460ff166106de576040517f08c379a00000000000000000000000000000000000000000000000000000000081526004016106d590610cd5565b60405180910390fd5b80600260008473ffffffffffffffffffffffffffffffffffffffff1673ffffffffffffffffffffffffffffffffffffffff168152602001908152602001600020600101819055505050565b6107316108da565b600073ffffffffffffffffffffffffffffffffffffffff168173ffffffffffffffffffffffffffffffffffffffff1614156107a1576040517f08c379a000000000000000000000000000000000000000000000000000000000815260040161079890610c95565b60405180910390fd5b6107aa81610958565b50565b6107b56108da565b600260008273ffffffffffffffffffffffffffffffffffffffff1673ffffffffffffffffffffffffffffffffffffffff16815260200190815260200160002060000160009054906101000a900460ff1615610845576040517f08c379a000000000000000000000000000000000000000000000000000000000815260040161083c90610cf5565b60405180910390fd5b6001600260008373ffffffffffffffffffffffffffffffffffffffff1673ffffffffffffffffffffffffffffffffffffffff16815260200190815260200160002060000160006101000a81548160ff0219169083151502179055507fb251eb052afc73ffd02ffe85ad79990a8b3fed60d76dbc2fa2fdd7123dffd914816040516108cf9190610c3f565b60405180910390a150565b6108e2610a1c565b73ffffffffffffffffffffffffffffffffffffffff16610900610442565b73ffffffffffffffffffffffffffffffffffffffff1614610956576040517f08c379a000000000000000000000000000000000000000000000000000000000815260040161094d90610cb5565b60405180910390fd5b565b60008060009054906101000a900473ffffffffffffffffffffffffffffffffffffffff169050816000806101000a81548173ffffffffffffffffffffffffffffffffffffffff021916908373ffffffffffffffffffffffffffffffffffffffff1602179055508173ffffffffffffffffffffffffffffffffffffffff168173ffffffffffffffffffffffffffffffffffffffff167f8be0079c531659141344cd1fd0a4f28419497f9722a3daafe3b4186f6b6457e060405160405180910390a35050565b600033905090565b6040518060600160405280600015158152602001600073ffffffffffffffffffffffffffffffffffffffff168152602001600081525090565b600081359050610a6c81610f86565b92915050565b600081359050610a8181610f9d565b92915050565b600060208284031215610a9d57610a9c610e1c565b5b6000610aab84828501610a5d565b91505092915050565b60008060408385031215610acb57610aca610e1c565b5b6000610ad985828601610a5d565b9250506020610aea85828601610a72565b9150509250929050565b610afd81610d5c565b82525050565b610b0c81610d5c565b82525050565b610b1b81610d6e565b82525050565b610b2a81610d6e565b82525050565b6000610b3d602b83610d4b565b9150610b4882610e21565b604082019050919050565b6000610b60602683610d4b565b9150610b6b82610e70565b604082019050919050565b6000610b83602083610d4b565b9150610b8e82610ebf565b602082019050919050565b6000610ba6602a83610d4b565b9150610bb182610ee8565b604082019050919050565b6000610bc9602c83610d4b565b9150610bd482610f37565b604082019050919050565b606082016000820151610bf56000850182610b12565b506020820151610c086020850182610af4565b506040820151610c1b6040850182610c21565b50505050565b610c2a81610d9a565b82525050565b610c3981610d9a565b82525050565b6000602082019050610c546000830184610b03565b92915050565b6000602082019050610c6f6000830184610b21565b92915050565b60006020820190508181036000830152610c8e81610b30565b9050919050565b60006020820190508181036000830152610cae81610b53565b9050919050565b60006020820190508181036000830152610cce81610b76565b9050919050565b60006020820190508181036000830152610cee81610b99565b9050919050565b60006020820190508181036000830152610d0e81610bbc565b9050919050565b6000606082019050610d2a6000830184610bdf565b92915050565b6000602082019050610d456000830184610c30565b92915050565b600082825260208201905092915050565b6000610d6782610d7a565b9050919050565b60008115159050919050565b600073ffffffffffffffffffffffffffffffffffffffff82169050919050565b6000819050919050565b6000610daf82610d9a565b91507fffffffffffffffffffffffffffffffffffffffffffffffffffffffffffffffff821415610de257610de1610ded565b5b600182019050919050565b7f4e487b7100000000000000000000000000000000000000000000000000000000600052601160045260246000fd5b600080fd5b7f546869732077616c6c657420616c72656164792073746f72656420696e20746860008201527f652077686974656c697374000000000000000000000000000000000000000000602082015250565b7f4f776e61626c653a206e6577206f776e657220697320746865207a65726f206160008201527f6464726573730000000000000000000000000000000000000000000000000000602082015250565b7f4f776e61626c653a2063616c6c6572206973206e6f7420746865206f776e6572600082015250565b7f546869732077616c6c6574206973206e6f742073746f72656420696e2074686560008201527f2077686974656c69737400000000000000000000000000000000000000000000602082015250565b7f546869732077616c6c6574206973206e6f742064697361626c656420696e207460008201527f68652077686974656c6973740000000000000000000000000000000000000000602082015250565b610f8f81610d5c565b8114610f9a57600080fd5b50565b610fa681610d9a565b8114610fb157600080fd5b5056fea2646970667358221220becbdda0f25d5c727f430070dffd1c5dd43745e4b8375356063c1891e958596064736f6c63430008070033",
					"opcodes": "PUSH1 0x80 PUSH1 0x40 MSTORE CALLVALUE DUP1 ISZERO PUSH2 0x10 JUMPI PUSH1 0x0 DUP1 REVERT JUMPDEST POP PUSH2 0x2D PUSH2 0x22 PUSH2 0x32 PUSH1 0x20 SHL PUSH1 0x20 SHR JUMP JUMPDEST PUSH2 0x3A PUSH1 0x20 SHL PUSH1 0x20 SHR JUMP JUMPDEST PUSH2 0xFE JUMP JUMPDEST PUSH1 0x0 CALLER SWAP1 POP SWAP1 JUMP JUMPDEST PUSH1 0x0 DUP1 PUSH1 0x0 SWAP1 SLOAD SWAP1 PUSH2 0x100 EXP SWAP1 DIV PUSH20 0xFFFFFFFFFFFFFFFFFFFFFFFFFFFFFFFFFFFFFFFF AND SWAP1 POP DUP2 PUSH1 0x0 DUP1 PUSH2 0x100 EXP DUP2 SLOAD DUP2 PUSH20 0xFFFFFFFFFFFFFFFFFFFFFFFFFFFFFFFFFFFFFFFF MUL NOT AND SWAP1 DUP4 PUSH20 0xFFFFFFFFFFFFFFFFFFFFFFFFFFFFFFFFFFFFFFFF AND MUL OR SWAP1 SSTORE POP DUP2 PUSH20 0xFFFFFFFFFFFFFFFFFFFFFFFFFFFFFFFFFFFFFFFF AND DUP2 PUSH20 0xFFFFFFFFFFFFFFFFFFFFFFFFFFFFFFFFFFFFFFFF AND PUSH32 0x8BE0079C531659141344CD1FD0A4F28419497F9722A3DAAFE3B4186F6B6457E0 PUSH1 0x40 MLOAD PUSH1 0x40 MLOAD DUP1 SWAP2 SUB SWAP1 LOG3 POP POP JUMP JUMPDEST PUSH2 0xFEA DUP1 PUSH2 0x10D PUSH1 0x0 CODECOPY PUSH1 0x0 RETURN INVALID PUSH1 0x80 PUSH1 0x40 MSTORE CALLVALUE DUP1 ISZERO PUSH2 0x10 JUMPI PUSH1 0x0 DUP1 REVERT JUMPDEST POP PUSH1 0x4 CALLDATASIZE LT PUSH2 0x9E JUMPI PUSH1 0x0 CALLDATALOAD PUSH1 0xE0 SHR DUP1 PUSH4 0x8F180305 GT PUSH2 0x66 JUMPI DUP1 PUSH4 0x8F180305 EQ PUSH2 0x147 JUMPI DUP1 PUSH4 0xCA6D56DC EQ PUSH2 0x165 JUMPI DUP1 PUSH4 0xE10EFF9B EQ PUSH2 0x181 JUMPI DUP1 PUSH4 0xF2FDE38B EQ PUSH2 0x19D JUMPI DUP1 PUSH4 0xF47D2A30 EQ PUSH2 0x1B9 JUMPI PUSH2 0x9E JUMP JUMPDEST DUP1 PUSH4 0x65C24DC EQ PUSH2 0xA3 JUMPI DUP1 PUSH4 0x2ADA2596 EQ PUSH2 0xD3 JUMPI DUP1 PUSH4 0x5918BA79 EQ PUSH2 0x103 JUMPI DUP1 PUSH4 0x715018A6 EQ PUSH2 0x11F JUMPI DUP1 PUSH4 0x8DA5CB5B EQ PUSH2 0x129 JUMPI JUMPDEST PUSH1 0x0 DUP1 REVERT JUMPDEST PUSH2 0xBD PUSH1 0x4 DUP1 CALLDATASIZE SUB DUP2 ADD SWAP1 PUSH2 0xB8 SWAP2 SWAP1 PUSH2 0xA87 JUMP JUMPDEST PUSH2 0x1D5 JUMP JUMPDEST PUSH1 0x40 MLOAD PUSH2 0xCA SWAP2 SWAP1 PUSH2 0xC5A JUMP JUMPDEST PUSH1 0x40 MLOAD DUP1 SWAP2 SUB SWAP1 RETURN JUMPDEST PUSH2 0xED PUSH1 0x4 DUP1 CALLDATASIZE SUB DUP2 ADD SWAP1 PUSH2 0xE8 SWAP2 SWAP1 PUSH2 0xA87 JUMP JUMPDEST PUSH2 0x22E JUMP JUMPDEST PUSH1 0x40 MLOAD PUSH2 0xFA SWAP2 SWAP1 PUSH2 0xD15 JUMP JUMPDEST PUSH1 0x40 MLOAD DUP1 SWAP2 SUB SWAP1 RETURN JUMPDEST PUSH2 0x11D PUSH1 0x4 DUP1 CALLDATASIZE SUB DUP2 ADD SWAP1 PUSH2 0x118 SWAP2 SWAP1 PUSH2 0xA87 JUMP JUMPDEST PUSH2 0x302 JUMP JUMPDEST STOP JUMPDEST PUSH2 0x127 PUSH2 0x42E JUMP JUMPDEST STOP JUMPDEST PUSH2 0x131 PUSH2 0x442 JUMP JUMPDEST PUSH1 0x40 MLOAD PUSH2 0x13E SWAP2 SWAP1 PUSH2 0xC3F JUMP JUMPDEST PUSH1 0x40 MLOAD DUP1 SWAP2 SUB SWAP1 RETURN JUMPDEST PUSH2 0x14F PUSH2 0x46B JUMP JUMPDEST PUSH1 0x40 MLOAD PUSH2 0x15C SWAP2 SWAP1 PUSH2 0xD30 JUMP JUMPDEST PUSH1 0x40 MLOAD DUP1 SWAP2 SUB SWAP1 RETURN JUMPDEST PUSH2 0x17F PUSH1 0x4 DUP1 CALLDATASIZE SUB DUP2 ADD SWAP1 PUSH2 0x17A SWAP2 SWAP1 PUSH2 0xA87 JUMP JUMPDEST PUSH2 0x475 JUMP JUMPDEST STOP JUMPDEST PUSH2 0x19B PUSH1 0x4 DUP1 CALLDATASIZE SUB DUP2 ADD SWAP1 PUSH2 0x196 SWAP2 SWAP1 PUSH2 0xAB4 JUMP JUMPDEST PUSH2 0x647 JUMP JUMPDEST STOP JUMPDEST PUSH2 0x1B7 PUSH1 0x4 DUP1 CALLDATASIZE SUB DUP2 ADD SWAP1 PUSH2 0x1B2 SWAP2 SWAP1 PUSH2 0xA87 JUMP JUMPDEST PUSH2 0x729 JUMP JUMPDEST STOP JUMPDEST PUSH2 0x1D3 PUSH1 0x4 DUP1 CALLDATASIZE SUB DUP2 ADD SWAP1 PUSH2 0x1CE SWAP2 SWAP1 PUSH2 0xA87 JUMP JUMPDEST PUSH2 0x7AD JUMP JUMPDEST STOP JUMPDEST PUSH1 0x0 PUSH1 0x2 PUSH1 0x0 DUP4 PUSH20 0xFFFFFFFFFFFFFFFFFFFFFFFFFFFFFFFFFFFFFFFF AND PUSH20 0xFFFFFFFFFFFFFFFFFFFFFFFFFFFFFFFFFFFFFFFF AND DUP2 MSTORE PUSH1 0x20 ADD SWAP1 DUP2 MSTORE PUSH1 0x20 ADD PUSH1 0x0 KECCAK256 PUSH1 0x0 ADD PUSH1 0x0 SWAP1 SLOAD SWAP1 PUSH2 0x100 EXP SWAP1 DIV PUSH1 0xFF AND SWAP1 POP SWAP2 SWAP1 POP JUMP JUMPDEST PUSH2 0x236 PUSH2 0xA24 JUMP JUMPDEST PUSH1 0x2 PUSH1 0x0 DUP4 PUSH20 0xFFFFFFFFFFFFFFFFFFFFFFFFFFFFFFFFFFFFFFFF AND PUSH20 0xFFFFFFFFFFFFFFFFFFFFFFFFFFFFFFFFFFFFFFFF AND DUP2 MSTORE PUSH1 0x20 ADD SWAP1 DUP2 MSTORE PUSH1 0x20 ADD PUSH1 0x0 KECCAK256 PUSH1 0x40 MLOAD DUP1 PUSH1 0x60 ADD PUSH1 0x40 MSTORE SWAP1 DUP2 PUSH1 0x0 DUP3 ADD PUSH1 0x0 SWAP1 SLOAD SWAP1 PUSH2 0x100 EXP SWAP1 DIV PUSH1 0xFF AND ISZERO ISZERO ISZERO ISZERO DUP2 MSTORE PUSH1 0x20 ADD PUSH1 0x0 DUP3 ADD PUSH1 0x1 SWAP1 SLOAD SWAP1 PUSH2 0x100 EXP SWAP1 DIV PUSH20 0xFFFFFFFFFFFFFFFFFFFFFFFFFFFFFFFFFFFFFFFF AND PUSH20 0xFFFFFFFFFFFFFFFFFFFFFFFFFFFFFFFFFFFFFFFF AND PUSH20 0xFFFFFFFFFFFFFFFFFFFFFFFFFFFFFFFFFFFFFFFF AND DUP2 MSTORE PUSH1 0x20 ADD PUSH1 0x1 DUP3 ADD SLOAD DUP2 MSTORE POP POP SWAP1 POP SWAP2 SWAP1 POP JUMP JUMPDEST PUSH2 0x30A PUSH2 0x8DA JUMP JUMPDEST PUSH1 0x2 PUSH1 0x0 DUP3 PUSH20 0xFFFFFFFFFFFFFFFFFFFFFFFFFFFFFFFFFFFFFFFF AND PUSH20 0xFFFFFFFFFFFFFFFFFFFFFFFFFFFFFFFFFFFFFFFF AND DUP2 MSTORE PUSH1 0x20 ADD SWAP1 DUP2 MSTORE PUSH1 0x20 ADD PUSH1 0x0 KECCAK256 PUSH1 0x0 ADD PUSH1 0x0 SWAP1 SLOAD SWAP1 PUSH2 0x100 EXP SWAP1 DIV PUSH1 0xFF AND PUSH2 0x399 JUMPI PUSH1 0x40 MLOAD PUSH32 0x8C379A000000000000000000000000000000000000000000000000000000000 DUP2 MSTORE PUSH1 0x4 ADD PUSH2 0x390 SWAP1 PUSH2 0xCD5 JUMP JUMPDEST PUSH1 0x40 MLOAD DUP1 SWAP2 SUB SWAP1 REVERT JUMPDEST PUSH1 0x0 PUSH1 0x2 PUSH1 0x0 DUP4 PUSH20 0xFFFFFFFFFFFFFFFFFFFFFFFFFFFFFFFFFFFFFFFF AND PUSH20 0xFFFFFFFFFFFFFFFFFFFFFFFFFFFFFFFFFFFFFFFF AND DUP2 MSTORE PUSH1 0x20 ADD SWAP1 DUP2 MSTORE PUSH1 0x20 ADD PUSH1 0x0 KECCAK256 PUSH1 0x0 ADD PUSH1 0x0 PUSH2 0x100 EXP DUP2 SLOAD DUP2 PUSH1 0xFF MUL NOT AND SWAP1 DUP4 ISZERO ISZERO MUL OR SWAP1 SSTORE POP PUSH32 0x6E76FB4C77256006D9C38EC7D82B45A8C8F3C27B1D6766FFFC42DFB8DE684492 DUP2 PUSH1 0x40 MLOAD PUSH2 0x423 SWAP2 SWAP1 PUSH2 0xC3F JUMP JUMPDEST PUSH1 0x40 MLOAD DUP1 SWAP2 SUB SWAP1 LOG1 POP JUMP JUMPDEST PUSH2 0x436 PUSH2 0x8DA JUMP JUMPDEST PUSH2 0x440 PUSH1 0x0 PUSH2 0x958 JUMP JUMPDEST JUMP JUMPDEST PUSH1 0x0 DUP1 PUSH1 0x0 SWAP1 SLOAD SWAP1 PUSH2 0x100 EXP SWAP1 DIV PUSH20 0xFFFFFFFFFFFFFFFFFFFFFFFFFFFFFFFFFFFFFFFF AND SWAP1 POP SWAP1 JUMP JUMPDEST PUSH1 0x0 PUSH1 0x1 SLOAD SWAP1 POP SWAP1 JUMP JUMPDEST PUSH2 0x47D PUSH2 0x8DA JUMP JUMPDEST PUSH1 0x2 PUSH1 0x0 DUP3 PUSH20 0xFFFFFFFFFFFFFFFFFFFFFFFFFFFFFFFFFFFFFFFF AND PUSH20 0xFFFFFFFFFFFFFFFFFFFFFFFFFFFFFFFFFFFFFFFF AND DUP2 MSTORE PUSH1 0x20 ADD SWAP1 DUP2 MSTORE PUSH1 0x20 ADD PUSH1 0x0 KECCAK256 PUSH1 0x0 ADD PUSH1 0x0 SWAP1 SLOAD SWAP1 PUSH2 0x100 EXP SWAP1 DIV PUSH1 0xFF AND ISZERO PUSH2 0x50D JUMPI PUSH1 0x40 MLOAD PUSH32 0x8C379A000000000000000000000000000000000000000000000000000000000 DUP2 MSTORE PUSH1 0x4 ADD PUSH2 0x504 SWAP1 PUSH2 0xC75 JUMP JUMPDEST PUSH1 0x40 MLOAD DUP1 SWAP2 SUB SWAP1 REVERT JUMPDEST PUSH1 0x1 PUSH1 0x0 DUP2 SLOAD DUP1 SWAP3 SWAP2 SWAP1 PUSH2 0x520 SWAP1 PUSH2 0xDA4 JUMP JUMPDEST SWAP2 SWAP1 POP SSTORE POP PUSH1 0x40 MLOAD DUP1 PUSH1 0x60 ADD PUSH1 0x40 MSTORE DUP1 PUSH1 0x1 ISZERO ISZERO DUP2 MSTORE PUSH1 0x20 ADD DUP3 PUSH20 0xFFFFFFFFFFFFFFFFFFFFFFFFFFFFFFFFFFFFFFFF AND DUP2 MSTORE PUSH1 0x20 ADD PUSH1 0x0 DUP2 MSTORE POP PUSH1 0x2 PUSH1 0x0 DUP4 PUSH20 0xFFFFFFFFFFFFFFFFFFFFFFFFFFFFFFFFFFFFFFFF AND PUSH20 0xFFFFFFFFFFFFFFFFFFFFFFFFFFFFFFFFFFFFFFFF AND DUP2 MSTORE PUSH1 0x20 ADD SWAP1 DUP2 MSTORE PUSH1 0x20 ADD PUSH1 0x0 KECCAK256 PUSH1 0x0 DUP3 ADD MLOAD DUP2 PUSH1 0x0 ADD PUSH1 0x0 PUSH2 0x100 EXP DUP2 SLOAD DUP2 PUSH1 0xFF MUL NOT AND SWAP1 DUP4 ISZERO ISZERO MUL OR SWAP1 SSTORE POP PUSH1 0x20 DUP3 ADD MLOAD DUP2 PUSH1 0x0 ADD PUSH1 0x1 PUSH2 0x100 EXP DUP2 SLOAD DUP2 PUSH20 0xFFFFFFFFFFFFFFFFFFFFFFFFFFFFFFFFFFFFFFFF MUL NOT AND SWAP1 DUP4 PUSH20 0xFFFFFFFFFFFFFFFFFFFFFFFFFFFFFFFFFFFFFFFF AND MUL OR SWAP1 SSTORE POP PUSH1 0x40 DUP3 ADD MLOAD DUP2 PUSH1 0x1 ADD SSTORE SWAP1 POP POP PUSH32 0xB251EB052AFC73FFD02FFE85AD79990A8B3FED60D76DBC2FA2FDD7123DFFD914 DUP2 PUSH1 0x40 MLOAD PUSH2 0x63C SWAP2 SWAP1 PUSH2 0xC3F JUMP JUMPDEST PUSH1 0x40 MLOAD DUP1 SWAP2 SUB SWAP1 LOG1 POP JUMP JUMPDEST PUSH2 0x64F PUSH2 0x8DA JUMP JUMPDEST PUSH1 0x2 PUSH1 0x0 DUP4 PUSH20 0xFFFFFFFFFFFFFFFFFFFFFFFFFFFFFFFFFFFFFFFF AND PUSH20 0xFFFFFFFFFFFFFFFFFFFFFFFFFFFFFFFFFFFFFFFF AND DUP2 MSTORE PUSH1 0x20 ADD SWAP1 DUP2 MSTORE PUSH1 0x20 ADD PUSH1 0x0 KECCAK256 PUSH1 0x0 ADD PUSH1 0x0 SWAP1 SLOAD SWAP1 PUSH2 0x100 EXP SWAP1 DIV PUSH1 0xFF AND PUSH2 0x6DE JUMPI PUSH1 0x40 MLOAD PUSH32 0x8C379A000000000000000000000000000000000000000000000000000000000 DUP2 MSTORE PUSH1 0x4 ADD PUSH2 0x6D5 SWAP1 PUSH2 0xCD5 JUMP JUMPDEST PUSH1 0x40 MLOAD DUP1 SWAP2 SUB SWAP1 REVERT JUMPDEST DUP1 PUSH1 0x2 PUSH1 0x0 DUP5 PUSH20 0xFFFFFFFFFFFFFFFFFFFFFFFFFFFFFFFFFFFFFFFF AND PUSH20 0xFFFFFFFFFFFFFFFFFFFFFFFFFFFFFFFFFFFFFFFF AND DUP2 MSTORE PUSH1 0x20 ADD SWAP1 DUP2 MSTORE PUSH1 0x20 ADD PUSH1 0x0 KECCAK256 PUSH1 0x1 ADD DUP2 SWAP1 SSTORE POP POP POP JUMP JUMPDEST PUSH2 0x731 PUSH2 0x8DA JUMP JUMPDEST PUSH1 0x0 PUSH20 0xFFFFFFFFFFFFFFFFFFFFFFFFFFFFFFFFFFFFFFFF AND DUP2 PUSH20 0xFFFFFFFFFFFFFFFFFFFFFFFFFFFFFFFFFFFFFFFF AND EQ ISZERO PUSH2 0x7A1 JUMPI PUSH1 0x40 MLOAD PUSH32 0x8C379A000000000000000000000000000000000000000000000000000000000 DUP2 MSTORE PUSH1 0x4 ADD PUSH2 0x798 SWAP1 PUSH2 0xC95 JUMP JUMPDEST PUSH1 0x40 MLOAD DUP1 SWAP2 SUB SWAP1 REVERT JUMPDEST PUSH2 0x7AA DUP2 PUSH2 0x958 JUMP JUMPDEST POP JUMP JUMPDEST PUSH2 0x7B5 PUSH2 0x8DA JUMP JUMPDEST PUSH1 0x2 PUSH1 0x0 DUP3 PUSH20 0xFFFFFFFFFFFFFFFFFFFFFFFFFFFFFFFFFFFFFFFF AND PUSH20 0xFFFFFFFFFFFFFFFFFFFFFFFFFFFFFFFFFFFFFFFF AND DUP2 MSTORE PUSH1 0x20 ADD SWAP1 DUP2 MSTORE PUSH1 0x20 ADD PUSH1 0x0 KECCAK256 PUSH1 0x0 ADD PUSH1 0x0 SWAP1 SLOAD SWAP1 PUSH2 0x100 EXP SWAP1 DIV PUSH1 0xFF AND ISZERO PUSH2 0x845 JUMPI PUSH1 0x40 MLOAD PUSH32 0x8C379A000000000000000000000000000000000000000000000000000000000 DUP2 MSTORE PUSH1 0x4 ADD PUSH2 0x83C SWAP1 PUSH2 0xCF5 JUMP JUMPDEST PUSH1 0x40 MLOAD DUP1 SWAP2 SUB SWAP1 REVERT JUMPDEST PUSH1 0x1 PUSH1 0x2 PUSH1 0x0 DUP4 PUSH20 0xFFFFFFFFFFFFFFFFFFFFFFFFFFFFFFFFFFFFFFFF AND PUSH20 0xFFFFFFFFFFFFFFFFFFFFFFFFFFFFFFFFFFFFFFFF AND DUP2 MSTORE PUSH1 0x20 ADD SWAP1 DUP2 MSTORE PUSH1 0x20 ADD PUSH1 0x0 KECCAK256 PUSH1 0x0 ADD PUSH1 0x0 PUSH2 0x100 EXP DUP2 SLOAD DUP2 PUSH1 0xFF MUL NOT AND SWAP1 DUP4 ISZERO ISZERO MUL OR SWAP1 SSTORE POP PUSH32 0xB251EB052AFC73FFD02FFE85AD79990A8B3FED60D76DBC2FA2FDD7123DFFD914 DUP2 PUSH1 0x40 MLOAD PUSH2 0x8CF SWAP2 SWAP1 PUSH2 0xC3F JUMP JUMPDEST PUSH1 0x40 MLOAD DUP1 SWAP2 SUB SWAP1 LOG1 POP JUMP JUMPDEST PUSH2 0x8E2 PUSH2 0xA1C JUMP JUMPDEST PUSH20 0xFFFFFFFFFFFFFFFFFFFFFFFFFFFFFFFFFFFFFFFF AND PUSH2 0x900 PUSH2 0x442 JUMP JUMPDEST PUSH20 0xFFFFFFFFFFFFFFFFFFFFFFFFFFFFFFFFFFFFFFFF AND EQ PUSH2 0x956 JUMPI PUSH1 0x40 MLOAD PUSH32 0x8C379A000000000000000000000000000000000000000000000000000000000 DUP2 MSTORE PUSH1 0x4 ADD PUSH2 0x94D SWAP1 PUSH2 0xCB5 JUMP JUMPDEST PUSH1 0x40 MLOAD DUP1 SWAP2 SUB SWAP1 REVERT JUMPDEST JUMP JUMPDEST PUSH1 0x0 DUP1 PUSH1 0x0 SWAP1 SLOAD SWAP1 PUSH2 0x100 EXP SWAP1 DIV PUSH20 0xFFFFFFFFFFFFFFFFFFFFFFFFFFFFFFFFFFFFFFFF AND SWAP1 POP DUP2 PUSH1 0x0 DUP1 PUSH2 0x100 EXP DUP2 SLOAD DUP2 PUSH20 0xFFFFFFFFFFFFFFFFFFFFFFFFFFFFFFFFFFFFFFFF MUL NOT AND SWAP1 DUP4 PUSH20 0xFFFFFFFFFFFFFFFFFFFFFFFFFFFFFFFFFFFFFFFF AND MUL OR SWAP1 SSTORE POP DUP2 PUSH20 0xFFFFFFFFFFFFFFFFFFFFFFFFFFFFFFFFFFFFFFFF AND DUP2 PUSH20 0xFFFFFFFFFFFFFFFFFFFFFFFFFFFFFFFFFFFFFFFF AND PUSH32 0x8BE0079C531659141344CD1FD0A4F28419497F9722A3DAAFE3B4186F6B6457E0 PUSH1 0x40 MLOAD PUSH1 0x40 MLOAD DUP1 SWAP2 SUB SWAP1 LOG3 POP POP JUMP JUMPDEST PUSH1 0x0 CALLER SWAP1 POP SWAP1 JUMP JUMPDEST PUSH1 0x40 MLOAD DUP1 PUSH1 0x60 ADD PUSH1 0x40 MSTORE DUP1 PUSH1 0x0 ISZERO ISZERO DUP2 MSTORE PUSH1 0x20 ADD PUSH1 0x0 PUSH20 0xFFFFFFFFFFFFFFFFFFFFFFFFFFFFFFFFFFFFFFFF AND DUP2 MSTORE PUSH1 0x20 ADD PUSH1 0x0 DUP2 MSTORE POP SWAP1 JUMP JUMPDEST PUSH1 0x0 DUP2 CALLDATALOAD SWAP1 POP PUSH2 0xA6C DUP2 PUSH2 0xF86 JUMP JUMPDEST SWAP3 SWAP2 POP POP JUMP JUMPDEST PUSH1 0x0 DUP2 CALLDATALOAD SWAP1 POP PUSH2 0xA81 DUP2 PUSH2 0xF9D JUMP JUMPDEST SWAP3 SWAP2 POP POP JUMP JUMPDEST PUSH1 0x0 PUSH1 0x20 DUP3 DUP5 SUB SLT ISZERO PUSH2 0xA9D JUMPI PUSH2 0xA9C PUSH2 0xE1C JUMP JUMPDEST JUMPDEST PUSH1 0x0 PUSH2 0xAAB DUP5 DUP3 DUP6 ADD PUSH2 0xA5D JUMP JUMPDEST SWAP2 POP POP SWAP3 SWAP2 POP POP JUMP JUMPDEST PUSH1 0x0 DUP1 PUSH1 0x40 DUP4 DUP6 SUB SLT ISZERO PUSH2 0xACB JUMPI PUSH2 0xACA PUSH2 0xE1C JUMP JUMPDEST JUMPDEST PUSH1 0x0 PUSH2 0xAD9 DUP6 DUP3 DUP7 ADD PUSH2 0xA5D JUMP JUMPDEST SWAP3 POP POP PUSH1 0x20 PUSH2 0xAEA DUP6 DUP3 DUP7 ADD PUSH2 0xA72 JUMP JUMPDEST SWAP2 POP POP SWAP3 POP SWAP3 SWAP1 POP JUMP JUMPDEST PUSH2 0xAFD DUP2 PUSH2 0xD5C JUMP JUMPDEST DUP3 MSTORE POP POP JUMP JUMPDEST PUSH2 0xB0C DUP2 PUSH2 0xD5C JUMP JUMPDEST DUP3 MSTORE POP POP JUMP JUMPDEST PUSH2 0xB1B DUP2 PUSH2 0xD6E JUMP JUMPDEST DUP3 MSTORE POP POP JUMP JUMPDEST PUSH2 0xB2A DUP2 PUSH2 0xD6E JUMP JUMPDEST DUP3 MSTORE POP POP JUMP JUMPDEST PUSH1 0x0 PUSH2 0xB3D PUSH1 0x2B DUP4 PUSH2 0xD4B JUMP JUMPDEST SWAP2 POP PUSH2 0xB48 DUP3 PUSH2 0xE21 JUMP JUMPDEST PUSH1 0x40 DUP3 ADD SWAP1 POP SWAP2 SWAP1 POP JUMP JUMPDEST PUSH1 0x0 PUSH2 0xB60 PUSH1 0x26 DUP4 PUSH2 0xD4B JUMP JUMPDEST SWAP2 POP PUSH2 0xB6B DUP3 PUSH2 0xE70 JUMP JUMPDEST PUSH1 0x40 DUP3 ADD SWAP1 POP SWAP2 SWAP1 POP JUMP JUMPDEST PUSH1 0x0 PUSH2 0xB83 PUSH1 0x20 DUP4 PUSH2 0xD4B JUMP JUMPDEST SWAP2 POP PUSH2 0xB8E DUP3 PUSH2 0xEBF JUMP JUMPDEST PUSH1 0x20 DUP3 ADD SWAP1 POP SWAP2 SWAP1 POP JUMP JUMPDEST PUSH1 0x0 PUSH2 0xBA6 PUSH1 0x2A DUP4 PUSH2 0xD4B JUMP JUMPDEST SWAP2 POP PUSH2 0xBB1 DUP3 PUSH2 0xEE8 JUMP JUMPDEST PUSH1 0x40 DUP3 ADD SWAP1 POP SWAP2 SWAP1 POP JUMP JUMPDEST PUSH1 0x0 PUSH2 0xBC9 PUSH1 0x2C DUP4 PUSH2 0xD4B JUMP JUMPDEST SWAP2 POP PUSH2 0xBD4 DUP3 PUSH2 0xF37 JUMP JUMPDEST PUSH1 0x40 DUP3 ADD SWAP1 POP SWAP2 SWAP1 POP JUMP JUMPDEST PUSH1 0x60 DUP3 ADD PUSH1 0x0 DUP3 ADD MLOAD PUSH2 0xBF5 PUSH1 0x0 DUP6 ADD DUP3 PUSH2 0xB12 JUMP JUMPDEST POP PUSH1 0x20 DUP3 ADD MLOAD PUSH2 0xC08 PUSH1 0x20 DUP6 ADD DUP3 PUSH2 0xAF4 JUMP JUMPDEST POP PUSH1 0x40 DUP3 ADD MLOAD PUSH2 0xC1B PUSH1 0x40 DUP6 ADD DUP3 PUSH2 0xC21 JUMP JUMPDEST POP POP POP POP JUMP JUMPDEST PUSH2 0xC2A DUP2 PUSH2 0xD9A JUMP JUMPDEST DUP3 MSTORE POP POP JUMP JUMPDEST PUSH2 0xC39 DUP2 PUSH2 0xD9A JUMP JUMPDEST DUP3 MSTORE POP POP JUMP JUMPDEST PUSH1 0x0 PUSH1 0x20 DUP3 ADD SWAP1 POP PUSH2 0xC54 PUSH1 0x0 DUP4 ADD DUP5 PUSH2 0xB03 JUMP JUMPDEST SWAP3 SWAP2 POP POP JUMP JUMPDEST PUSH1 0x0 PUSH1 0x20 DUP3 ADD SWAP1 POP PUSH2 0xC6F PUSH1 0x0 DUP4 ADD DUP5 PUSH2 0xB21 JUMP JUMPDEST SWAP3 SWAP2 POP POP JUMP JUMPDEST PUSH1 0x0 PUSH1 0x20 DUP3 ADD SWAP1 POP DUP2 DUP2 SUB PUSH1 0x0 DUP4 ADD MSTORE PUSH2 0xC8E DUP2 PUSH2 0xB30 JUMP JUMPDEST SWAP1 POP SWAP2 SWAP1 POP JUMP JUMPDEST PUSH1 0x0 PUSH1 0x20 DUP3 ADD SWAP1 POP DUP2 DUP2 SUB PUSH1 0x0 DUP4 ADD MSTORE PUSH2 0xCAE DUP2 PUSH2 0xB53 JUMP JUMPDEST SWAP1 POP SWAP2 SWAP1 POP JUMP JUMPDEST PUSH1 0x0 PUSH1 0x20 DUP3 ADD SWAP1 POP DUP2 DUP2 SUB PUSH1 0x0 DUP4 ADD MSTORE PUSH2 0xCCE DUP2 PUSH2 0xB76 JUMP JUMPDEST SWAP1 POP SWAP2 SWAP1 POP JUMP JUMPDEST PUSH1 0x0 PUSH1 0x20 DUP3 ADD SWAP1 POP DUP2 DUP2 SUB PUSH1 0x0 DUP4 ADD MSTORE PUSH2 0xCEE DUP2 PUSH2 0xB99 JUMP JUMPDEST SWAP1 POP SWAP2 SWAP1 POP JUMP JUMPDEST PUSH1 0x0 PUSH1 0x20 DUP3 ADD SWAP1 POP DUP2 DUP2 SUB PUSH1 0x0 DUP4 ADD MSTORE PUSH2 0xD0E DUP2 PUSH2 0xBBC JUMP JUMPDEST SWAP1 POP SWAP2 SWAP1 POP JUMP JUMPDEST PUSH1 0x0 PUSH1 0x60 DUP3 ADD SWAP1 POP PUSH2 0xD2A PUSH1 0x0 DUP4 ADD DUP5 PUSH2 0xBDF JUMP JUMPDEST SWAP3 SWAP2 POP POP JUMP JUMPDEST PUSH1 0x0 PUSH1 0x20 DUP3 ADD SWAP1 POP PUSH2 0xD45 PUSH1 0x0 DUP4 ADD DUP5 PUSH2 0xC30 JUMP JUMPDEST SWAP3 SWAP2 POP POP JUMP JUMPDEST PUSH1 0x0 DUP3 DUP3 MSTORE PUSH1 0x20 DUP3 ADD SWAP1 POP SWAP3 SWAP2 POP POP JUMP JUMPDEST PUSH1 0x0 PUSH2 0xD67 DUP3 PUSH2 0xD7A JUMP JUMPDEST SWAP1 POP SWAP2 SWAP1 POP JUMP JUMPDEST PUSH1 0x0 DUP2 ISZERO ISZERO SWAP1 POP SWAP2 SWAP1 POP JUMP JUMPDEST PUSH1 0x0 PUSH20 0xFFFFFFFFFFFFFFFFFFFFFFFFFFFFFFFFFFFFFFFF DUP3 AND SWAP1 POP SWAP2 SWAP1 POP JUMP JUMPDEST PUSH1 0x0 DUP2 SWAP1 POP SWAP2 SWAP1 POP JUMP JUMPDEST PUSH1 0x0 PUSH2 0xDAF DUP3 PUSH2 0xD9A JUMP JUMPDEST SWAP2 POP PUSH32 0xFFFFFFFFFFFFFFFFFFFFFFFFFFFFFFFFFFFFFFFFFFFFFFFFFFFFFFFFFFFFFFFF DUP3 EQ ISZERO PUSH2 0xDE2 JUMPI PUSH2 0xDE1 PUSH2 0xDED JUMP JUMPDEST JUMPDEST PUSH1 0x1 DUP3 ADD SWAP1 POP SWAP2 SWAP1 POP JUMP JUMPDEST PUSH32 0x4E487B7100000000000000000000000000000000000000000000000000000000 PUSH1 0x0 MSTORE PUSH1 0x11 PUSH1 0x4 MSTORE PUSH1 0x24 PUSH1 0x0 REVERT JUMPDEST PUSH1 0x0 DUP1 REVERT JUMPDEST PUSH32 0x546869732077616C6C657420616C72656164792073746F72656420696E207468 PUSH1 0x0 DUP3 ADD MSTORE PUSH32 0x652077686974656C697374000000000000000000000000000000000000000000 PUSH1 0x20 DUP3 ADD MSTORE POP JUMP JUMPDEST PUSH32 0x4F776E61626C653A206E6577206F776E657220697320746865207A65726F2061 PUSH1 0x0 DUP3 ADD MSTORE PUSH32 0x6464726573730000000000000000000000000000000000000000000000000000 PUSH1 0x20 DUP3 ADD MSTORE POP JUMP JUMPDEST PUSH32 0x4F776E61626C653A2063616C6C6572206973206E6F7420746865206F776E6572 PUSH1 0x0 DUP3 ADD MSTORE POP JUMP JUMPDEST PUSH32 0x546869732077616C6C6574206973206E6F742073746F72656420696E20746865 PUSH1 0x0 DUP3 ADD MSTORE PUSH32 0x2077686974656C69737400000000000000000000000000000000000000000000 PUSH1 0x20 DUP3 ADD MSTORE POP JUMP JUMPDEST PUSH32 0x546869732077616C6C6574206973206E6F742064697361626C656420696E2074 PUSH1 0x0 DUP3 ADD MSTORE PUSH32 0x68652077686974656C6973740000000000000000000000000000000000000000 PUSH1 0x20 DUP3 ADD MSTORE POP JUMP JUMPDEST PUSH2 0xF8F DUP2 PUSH2 0xD5C JUMP JUMPDEST DUP2 EQ PUSH2 0xF9A JUMPI PUSH1 0x0 DUP1 REVERT JUMPDEST POP JUMP JUMPDEST PUSH2 0xFA6 DUP2 PUSH2 0xD9A JUMP JUMPDEST DUP2 EQ PUSH2 0xFB1 JUMPI PUSH1 0x0 DUP1 REVERT JUMPDEST POP JUMP INVALID LOG2 PUSH5 0x6970667358 0x22 SLT KECCAK256 0xBE 0xCB 0xDD LOG0 CALLCODE 0x5D 0x5C PUSH19 0x7F430070DFFD1C5DD43745E4B8375356063C18 SWAP2 0xE9 PC MSIZE PUSH1 0x64 PUSH20 0x6F6C634300080700330000000000000000000000 "
				},
				"gasEstimates": {
					"creation": {
						"codeDepositCost": "814800",
						"executionCost": "infinite",
						"totalCost": "infinite"
					},
					"external": {
						"addMember(address)": "infinite",
						"disableMember(address)": "infinite",
						"enableMember(address)": "infinite",
						"getMember(address)": "infinite",
						"getTotalMembers()": "2437",
						"owner()": "2611",
						"renounceOwnership()": "30465",
						"transferOwnership(address)": "30813",
						"updateMemberMint(address,uint256)": "27395",
						"validateMember(address)": "2890"
					}
				},
				"methodIdentifiers": {
					"addMember(address)": "ca6d56dc",
					"disableMember(address)": "5918ba79",
					"enableMember(address)": "f47d2a30",
					"getMember(address)": "2ada2596",
					"getTotalMembers()": "8f180305",
					"owner()": "8da5cb5b",
					"renounceOwnership()": "715018a6",
					"transferOwnership(address)": "f2fde38b",
					"updateMemberMint(address,uint256)": "e10eff9b",
					"validateMember(address)": "065c24dc"
				}
			},
			"storageLayout": {
				"storage": [
					{
						"astId": 7,
						"contract": "contracts/ObzidianWhitelist.sol:ObzidianWhitelist",
						"label": "_owner",
						"offset": 0,
						"slot": "0",
						"type": "t_address"
					},
					{
						"astId": 156,
						"contract": "contracts/ObzidianWhitelist.sol:ObzidianWhitelist",
						"label": "membersCount",
						"offset": 0,
						"slot": "1",
						"type": "t_uint256"
					},
					{
						"astId": 161,
						"contract": "contracts/ObzidianWhitelist.sol:ObzidianWhitelist",
						"label": "members",
						"offset": 0,
						"slot": "2",
						"type": "t_mapping(t_address,t_struct(Member)154_storage)"
					}
				],
				"types": {
					"t_address": {
						"encoding": "inplace",
						"label": "address",
						"numberOfBytes": "20"
					},
					"t_bool": {
						"encoding": "inplace",
						"label": "bool",
						"numberOfBytes": "1"
					},
					"t_mapping(t_address,t_struct(Member)154_storage)": {
						"encoding": "mapping",
						"key": "t_address",
						"label": "mapping(address => struct ObzidianWhitelist.Member)",
						"numberOfBytes": "32",
						"value": "t_struct(Member)154_storage"
					},
					"t_struct(Member)154_storage": {
						"encoding": "inplace",
						"label": "struct ObzidianWhitelist.Member",
						"members": [
							{
								"astId": 149,
								"contract": "contracts/ObzidianWhitelist.sol:ObzidianWhitelist",
								"label": "active",
								"offset": 0,
								"slot": "0",
								"type": "t_bool"
							},
							{
								"astId": 151,
								"contract": "contracts/ObzidianWhitelist.sol:ObzidianWhitelist",
								"label": "wallet",
								"offset": 1,
								"slot": "0",
								"type": "t_address"
							},
							{
								"astId": 153,
								"contract": "contracts/ObzidianWhitelist.sol:ObzidianWhitelist",
								"label": "mintCount",
								"offset": 0,
								"slot": "1",
								"type": "t_uint256"
							}
						],
						"numberOfBytes": "64"
					},
					"t_uint256": {
						"encoding": "inplace",
						"label": "uint256",
						"numberOfBytes": "32"
					}
				}
			},
			"userdoc": {
				"kind": "user",
				"methods": {},
				"version": 1
			}
		}
	}
}